:1000000000000120C10000001D0100008D2800003B
:1000100000000000000000000000000000000000E0
:100020000000000000000000000000001D010000B2
:1000300000000000000000001D010000B5250000C8
:1000400029170000331700003D1700004717000074
:1000500000000000000000000000000000000000A0
:10006000912800001D0100000000000000000000B9
:100070001D0100001D0100001D0100001D01000008
:100080001D0100001D0100001D0100001D010000F8
:100090001D010000000000001D0100001D01000006
:1000A0001D0100001D0100001D0100001D010000D8
:1000B0001D0100001D010000AB250000A12500006E
:1000C00072B610490F4A0F4B0E4C0E4D0D4E0D4F90
:1000D000B846B946BA46BB46BC460B490B4A521A0B
:1000E000013A05DD0020042308601944043AFBDAD4
:1000F00007488546074880470748804762B602F0B0
:1001000055FCFEE700000000000000200000012078
:10011000000001201103000095020000D0E7C04656
:1001200002B4714649084900095C49008E4402BC8A
:100130007047C04603B47146490840004900095A57
:1001400049008E4403BC7047002243088B4274D39D
:1001500003098B425FD3030A8B4244D3030B8B42C8
:1001600028D3030C8B420DD3FF22090212BA030CD1
:100170008B4202D31212090265D0030B8B4219D3B2
:1001800000E0090AC30B8B4201D3CB03C01A5241D2
:10019000830B8B4201D38B03C01A5241430B8B421A
:1001A00001D34B03C01A5241030B8B4201D30B0303
:1001B000C01A5241C30A8B4201D3CB02C01A52412A
:1001C000830A8B4201D38B02C01A5241430A8B42ED
:1001D00001D34B02C01A5241030A8B4201D30B02D6
:1001E000C01A5241CDD2C3098B4201D3CB01C01AF0
:1001F000524183098B4201D38B01C01A52414309FA
:100200008B4201D34B01C01A524103098B4201D3E7
:100210000B01C01A5241C3088B4201D3CB00C01A54
:10022000524183088B4201D38B00C01A52414308CC
:100230008B4201D34B00C01A5241411A00D20146F1
:10024000524110467047FFE701B5002000F006F864
:1002500002BDC0460029F7D076E770477047C04618
:100260000023C25C0133002AFBD1581E70470000F6
:1002700003B47146490840004900095E49008E44B4
:1002800003BC704703008218934200D17047197075
:100290000133F9E7134B144A03E019781170013266
:1002A000013312498B42F8D1114B124A03E01978FD
:1002B00011700132013310498B42F8D10F4B02E02B
:1002C00000221A7001330E4A9342F9D10D4B0E4AA7
:1002D00003E019781170013301320C498B42F8D1D7
:1002E0007047C04664E300000000002078EE000084
:1002F00078EE0000140B002078EE0000140B0020B4
:10030000140D002078EE000078EE000078EE00007A
:10031000044B054A5A605A68044A1A60044A9A60B3
:100320007047C0460020054020C528D92021000084
:10033000FFFF0000F0B5002801D100BEFEE7002855
:1003400034D04368002B31D0002208E000210B4359
:100350006100174C095B8900164C0B510132036890
:10036000934223D993009B184168C95C4900104C03
:10037000095B104D89004C590F4E34404C51446874
:10038000E118E45C4E788B780F79CD781B06E0217C
:10039000C9040B40E90008250D402B4307213940D3
:1003A0000B43002ED2D08021C905D0E7F0BDC04656
:1003B0009CCE000000500640FFFFFFBF70B5002834
:1003C00001D100BEFEE7424A88215358FF24A343CF
:1003D000C33C23435350503413591B0E1B063D4955
:1003E0000B4313510378002B06D10379002B21D145
:1003F000037B002B4AD170BD45788178C278344B9D
:100400005C68354E34405C605B68344C2340002DA2
:100410000ED08024240123430C01FF2121400B43F3
:100420001202E021C9000A401343294A5360DCE765
:100430000024F0E7057AC47981794279244B1B695D
:100440003F26B343002D10D001252B43002C0ED0A6
:10045000022423438C000C2121400B431101302244
:100460000A4013431A4A1361C2E70025EDE700244E
:10047000EFE79A1C9200821894689900184A8C50F1
:100480000133DBB2022BF4D900230CE00023F9E79F
:10049000144C22400906C024A40421400A430C49FC
:1004A000CA600133DBB2012BA5D89A1D92008218D5
:1004B0005168074AD268002BEAD0012BEFD10A4CD1
:1004C00022408906C024240521400A43E7E7C046AC
:1004D00000800440FFFF0A00FFF7FFFF0FF0FFFF5F
:1004E000180B0020FFFFFFFCFFFFFFF330B50123D7
:1004F0008370037043704371C370037103760022ED
:10050000426183731C498160037343734377032102
:10051000017728240355083C0155C27783770334BB
:1005200002250555013C0355013C01551349416520
:100530000D2101651F3143540131425401314254B0
:10054000013142540131435404314354013943547D
:10055000013942540139425407314354C2630264A1
:10056000426406E0130010339B00C3180021996019
:100570000132012AF6D930BD00127A006400002051
:10058000222816D9322816D0352816D0372816D06A
:100590003A2816D0492816D040000C4BC35A9B006D
:1005A0000B4A9B585B0001D5002003E080204000EF
:1005B00000E0042070470420FCE70420FAE7042050
:1005C000F8E70420F6E70420F4E7C0469CCE0000DC
:1005D00000500640084B5A69FF231340042B07D0F4
:1005E000802B07D0012B01D0042070470120FCE7AD
:1005F0000220FAE70320F8E700E00740014B186803
:100600007047C046240B002010B582B000291AD0D4
:10061000002824D008794A79072303401202E020F9
:10062000C0000240134310488222520083500A68DF
:100630000E4B1A600E4CFFF7E1FF00280BD1002C87
:1006400009D0013CF7E701236A4613715371094B46
:1006500000936946DCE7002C04D0002000E0002075
:1006600002B010BD0320FBE700400640240B002031
:1006700088E7300000127A000048704700127A00C4
:1006800010B582B0002917D000281ED008784A780B
:10069000072303401202E021C9000A4013430D4919
:1006A000812292008B506424FFF7E6FF002808D1D6
:1006B000002C06D0013CF7E701A901230B704B7019
:1006C000E2E7002C04D0002000E0002002B010BDC2
:1006D0000320FBE700400640004870470087930373
:1006E00010B582B0002917D000281ED008784A78AB
:1006F000072303401202E021C9000A4013430D49B9
:10070000C12292008B506424FFF7E6FF002808D135
:10071000002C06D0013CF7E701A901230B704B70B8
:10072000E2E7002C04D0002000E0002002B010BD61
:100730000320FBE70040064010B5022808D003283C
:1007400009D0012801D0002010BDFFF757FFFBE7BB
:10075000FFF792FFF8E7FFF7BFFFF5E7F8B5CE46E2
:10076000474680B504004B7898465E1C0F787B1C8A
:1007700073439946002801D100BEFEE78D7828001A
:10078000FFF7DAFF0009012C03D0022C22D000BEB3
:10079000FEE7EB00274A9B581B095E4386423ED387
:1007A000EA00244B9B185B681B094A465A43824265
:1007B0003AD32D06F0231B051D4043461B04F022AF
:1007C000120313402B430F2217401F431A4B5F6144
:1007D000002025E0022D01D000BEFEE7EB00174A05
:1007E0009B581B095E43864220D3EA00134B9B189B
:1007F0005B681B094A465A43824219D32D06F023EF
:100800001B051D4043461B04F022120313402B43DB
:100810000F2217403B43084A9361002000E001206B
:10082000C0BCB946B046F8BD0120F9E70120F7E7A2
:100830000120F5E780CF000000400640B8CF00005F
:1008400010B5041E01D100BEFEE78378FF2B01D155
:1008500000BEFEE7FFF7BEFE042801D100BEFEE7A2
:100860002100FFF77BFF00280DD10A210139074B3A
:100870001A69120E0F231340A2789A4201D0002960
:10088000F4D1002900D010BD0320FCE70040064051
:1008900070B582B0050080782900FFF7F1FE041ED4
:1008A00007D0FFF797FE01280AD002281DD000BE0E
:1008B000FEE729000831A87BFFF7A6FE0400F0E759
:1008C0002E001E36002C0DD1B378032B36D1AB7B16
:1008D000002B0DD10124AB78002B01D0012C11D0BD
:1008E000002C1AD0200002B070BD2E002136E9E79E
:1008F00001A801238370002242700370FFF7A0FF5C
:100900000400E8E701A80223837000234370013349
:100910000370FFF795FF0400E2E7E91C6879FFF731
:10092000DFFE041EDED1B37801A8837073784370B4
:1009300033780370FFF784FF0400D3E701A88370C6
:100940007378437033780370FFF77AFF041EC9D1C0
:10095000E91C6879FFF7C4FE0400C3E700B583B063
:100960000E4B1A69120E0F231340032B13D0FFF7FF
:10097000B3FE002805D100210130FFF7B1FE0028A9
:1009800007D101A803238370002242700370FFF790
:1009900057FF03B000BD0020FBE7C0460040064003
:1009A00070B5041E01D100BEFEE7002831D0FFF76C
:1009B000D5FF002829D000282CD1174B00221A601F
:1009C000237E002B02D0144B62691A60637F002BD8
:1009D0000AD0227F11490B6A114D2B401206F025D7
:1009E0002D052A4013430B622823E35C002B11D012
:1009F00021001E310120FFF7B1FE00280AD121009D
:100A000021310230FFF7AAFE04E02000FFF740FF8B
:100A1000D1E7002070BDC046140B00200040064006
:100A2000FFFFFFF010B50400022801D900BEFEE769
:100A3000154B1A69120E0F231340022B1BD0032BE8
:100A40001CD0012B14D000200F4B1B691B0C0F2155
:100A500019400131FFF778FB012C08D9022C10D185
:100A6000094B1B690F2119400131FFF76DFB10BDC8
:100A7000FFF7C4FDE8E7FFF7FFFDE5E7FFF72CFE12
:100A8000E2E70020F3E7C0460040064010B50F4BF8
:100A90001A6A120E0F231340022B14D008D8002B11
:100AA0000DD0012B02D1FFF7A9FD07E0002005E0E2
:100AB000032B02D1FFF710FE00E0002010BD022042
:100AC000FFF7B0FFFAE7FFF7D7FDF7E70040064072
:100AD00010B5002903D001292DD000BEFEE705285E
:100AE00005D006281DD0042810D000BEFEE7FFF771
:100AF000F3FD02002549C1239B00CB580720184075
:100B0000002802D00138C240100010BDFFF7B4FD2C
:100B100002001E4981239B00C858FE3BFF3B184042
:100B2000EEE7FFF76BFD0200184982235B00C8580F
:100B3000FD3B1840E4E7052805D006281AD0042814
:100B40000CD000BEFEE7FFF7C7FD02000F49C1232E
:100B50009B00C858000A07231840D1E7FFF78CFD17
:100B600002000A4981239B00C858000AFE3BFF3B54
:100B70001840C5E7FFF742FD0200044982235B00ED
:100B8000C858000AFD3B1840BAE7C046004006407E
:100B900010B5144B1A69120903231340022B1ED0FF
:100BA0000FD8002B16D0012B09D10E4B1B69022246
:100BB000100018401A420CD0FA20C00109E00020B1
:100BC00007E0032B04D100210520FFF781FF00E09F
:100BD000002010BD00210620FFF77AFFF9E7024B45
:100BE0001868F6E700800440140B0020174B1A69C0
:100BF000920803231340022B19D005D8002B22D0D2
:100C0000012B1ED100207047032B1AD10F4B1B69FB
:100C10000222100018401A42F5D00C4B1B69013A11
:100C2000100018401A42EED0FA208000EBE7074B84
:100C30001B690222100018401A42E4D0FA20C001B9
:100C4000E1E700BEFEE7FA204002DCE70080044056
:100C500010B5204B5A6880231B01100018401A421F
:100C600036D01C4B5A6812090F2313400E2B26D87E
:100C70009B00194AD3589F46FA20400220E0FFF714
:100C800005FF1DE001210620FFF722FF18E00121EA
:100C90000420FFF71DFF13E001210520FFF718FFD7
:100CA0000EE00020FFF7BEFE0AE00120FFF7BAFECB
:100CB00006E0FFF79BFF03E0FFF76AFF00E000207C
:100CC000044B5B681B0A072119400131FFF73CFA0E
:100CD00010BDC0460080044008CE000010B50C00D6
:100CE0000F285FD88000314B1B589F460020FFF72C
:100CF00099FE03000020002C00D0236010BD0120CD
:100D0000FFF790FE03000020F5E70220FFF78AFEC0
:100D100003000020EFE7FFF79BFF03000020EAE756
:100D2000FFF7AAFC03000020E5E7FFF7D5FC03006E
:100D30000020E0E7FFF762FC03000020DBE71C4B2C
:100D40001B680020D7E7FFF7A1FE03000020D2E7D1
:100D500000210420FFF7BCFE03000020CBE70121A7
:100D60000420FFF7B5FE03000020C4E700210520A2
:100D7000FFF7AEFE03000020BDE701210520FFF7CD
:100D8000A7FE03000020B6E700210620FFF7A0FE23
:100D900003000020AFE701210620FFF799FE0300C2
:100DA0000020A8E700230420A5E7C04644CE0000A9
:100DB000140B002010B50C001738C3B2052B03D854
:100DC0009800184B1B589F46002025E0FFF740FF76
:100DD00022E0FFF7DDFE1FE0FFF708FF1CE0124BEB
:100DE0001B690222100018401A4215D00E4B1B69D5
:100DF000013A100018401A420ED0FA2080000BE091
:100E0000094B1B690222100018401A4204D0FA2034
:100E1000C00101E0FA204002002C00D02060002038
:100E200010BDC04684CE00000080044070B582B082
:100E300004000E0000230193152818D0162823D093
:100E400001A9FFF7B7FF05001D3CE4B2042C01D84F
:100E5000002D2AD0019B002B03D1042D01D0802529
:100E60006D00002E00D03360280002B070BD114B21
:100E7000DA68120E03231340022B12D89B000E4A8D
:100E80009B5801930025DFE70A4BDA68920E032393
:100E90001340022B07D89B00074A9B58019300255B
:100EA000D2E70025D0E70025CEE70120FFF7BAFD05
:100EB0000190CFE700800440180B002010B53828BF
:100EC00003D0392805D0002010BD1520FFF7AEFF54
:100ED000FAE71620FFF7AAFFF6E7000070B582B028
:100EE0000023019342001D4BD35A1D4A9D00AC586C
:100EF000E40801263440AA5807251540A54220D30E
:100F00009A00174E925952001BD59B009A59120E07
:100F100007231340022B17D0032B1AD0012B04D028
:100F200001A9FFF7CBFF002503E00620FFF7D0FD66
:100F30000190691C0198FFF707F9019001344443BF
:100F40000194019802B070BD0420FFF7C1FD01902B
:100F5000EFE70520FFF7BCFD0190EAE79CCE00001B
:100F600000500640F8B505000E00FFF709FB041E0F
:100F70003BD1224B5F5DBB0606D47B0618D47BB207
:100F8000002B1DDB00BEFEE70120FFF74BFD002814
:100F90001ED0002C2FD118233B4227D03B071AD458
:100FA0000020FB061CD4002820D1802464001DE012
:100FB0000020FFF737FD0028EBD180246400E8E72C
:100FC0000220FFF72FFD0028E3D180246400E0E732
:100FD00080246400DDE700212800FFF77FFFE0E7C1
:100FE00001212800FFF77AFFDDE70020002E00D066
:100FF00030602000F8BD0020F8E7C04634CF000084
:1010000030B597B00400FFF7E5FA012801D000BE23
:10101000FEE7002C07D02000FFF7C2FC051E07D01A
:10102000280017B030BD6846FFF760FA6C46F2E75B
:1010300020002C30FFF7C2F920005030FFF77AF97A
:10104000EEE710B5112805D9212806D9492807D976
:10105000042001E0FFF742FE10BDFFF7E7FEFBE7CB
:10106000FFF780FFF8E7000010B5002801D100BEAF
:10107000FEE7002A01D100BEFEE7044C206021718A
:10108000A26023736373002010BDC046280B0020AC
:10109000F0B5C64600B582B006000D003C4B1B798A
:1010A000984201D300BEFEE701AC2070617000F0F1
:1010B00077FB374B1A7B5A730123A370002401E09E
:1010C0000134E4B2324B1B7BA34215D9304B9A68F2
:1010D000A300D358002BF3D01A79022AF0D09968D4
:1010E0001B6801A898470028EAD0294B5C73002DA3
:1010F000E6D10427FF3700E00027002F05D0012D9F
:1011000003D001AB00229A702EE0214B9846B30029
:1011100042461268D058FFF773FF071E43465E71C0
:10112000EFD101AB02229A70002407E0002803D01F
:10113000174B5C73002D22D00134E4B2144B1B7B9F
:10114000A3421ED9124B9A68A300D358002BEDD0AE
:101150001A79012AEAD099681B6801A89847E5E73F
:10116000002C0ED0013CE4B2094B9A68A300D3587E
:10117000002BF5D099681B6801A89847F0E78227F3
:101180007F0000F0FFFA380002B080BCB846F0BD26
:10119000280B002010B5032901D900BEFEE74B0142
:1011A000C3180A4CA44663441B880224A3431C00B2
:1011B000002A08D00223234349014118034A9446D8
:1011C00061440B8010BD0023F5E7C0461C100000F1
:1011D00003231840014B1877D877704700800040F0
:1011E000022801D8012070470020FCE7002A01D026
:1011F000C17670478176FCE710B54B01C318104AE1
:101200009C1800222260803149010A5040188280D7
:10121000C2800C4959180A600B4959180A600B49D9
:1012200059180A800A4959180A800A4959180A6047
:10123000094959180A8009498C4663441A8010BD2F
:10124000081000000C100000101000001410000026
:1012500016100000181000001C1000001E100000E6
:1012600070B504AC247805AD2D78032901D900BEF2
:10127000FEE7D20292B22402E026F6003440224376
:10128000DC00FF232340072425402B431A438031F1
:1012900049014118CA8070BD10B5032901D900BEAB
:1012A000FEE703681B0621D54B01C318134CA44667
:1012B00063441B68002B0CDB4B01C31863441B68A1
:1012C0005B0006D4920092084B01C31863441A6075
:1012D00012E04B01C31809498C4663441968890A16
:1012E00089029205920D0A431A6005E049014118EE
:1012F000024B9C4661440A6010BDC04608100000C5
:1013000010B5032901D900BEFEE74B01C318174CE5
:10131000A44663441B881BB2002B13DB4901411810
:10132000124BC8180388DB0BDB035204520C134327
:1013300003800F4B9C4661440B88DB0BDB031A4395
:101340000A8010BD49014118081903885B0A5B0235
:10135000D205D20D13430380054B9C4661440B8894
:101360005B0A5B021A430A80EBE7C0461E100000CE
:101370001610000010B5032801D900BEFEE7094B86
:101380001B68002B01D100BEFEE78400E458002C4E
:1013900001D100BEFEE78000C4586160C3589A6066
:1013A000002010BD380B002010B5084B1B688200D0
:1013B000D458FFF70DFF002C06D06368002B03D034
:1013C000217BC9B2A068984710BDC046380B0020E9
:1013D000F0B5C64600B586B005000C000392049334
:1013E0000CAB1F78032801D900BEFEE7604B1B68D9
:1013F000002B01D100BEFEE78200D358002B01D1A3
:1014000000BEFEE73800FFF7EBFE002801D100BE6A
:10141000FEE703262E400123BB401A000593FF235D
:101420001A40904611000398FEF714FF002901D0DE
:1014300000BEFEE741460498FEF70CFF002901D0EC
:1014400000BEFEE741460D98FEF704FF002904D0D8
:10145000012006B080BCB846F0BD31004548FFF71A
:10146000CBFE444A7001444B9C46604403889B0475
:10147000990C424B0B439BB20380136880218B4332
:101480000B431360330080335B0103999950730160
:101490003B4A94466344049A1A60019700970023DC
:1014A000002231003348FFF7DBFE022C4FD02BD84F
:1014B000002C3AD0012C10D16B461427DF57BFB255
:1014C000330080335B012B4A944663449F80730151
:1014D0002C4A9446634400221A80264C0D9A31000F
:1014E0002000FFF7D9FE012231002000FFF708FF9E
:1014F000012231002000FFF74DFE1D4B1B68A800A4
:10150000C35800201873A4E7032CE6D133008033BE
:101510005B01184A9446634400229A807301194A79
:101520009446634400221A80D7E7330080335B017E
:10153000104A9446634400229A806B461427DF5772
:10154000BFB273010F4A944663441F80C5E76B46E0
:101550001427DF57BFB2330080335B01054A94463E
:1015600063449F807301074A944663441F80B4E735
:10157000380B0020008000401C9000400080FFFFDE
:101580001090004014900040F0B5D64600B586B0EB
:1015900004000591039204930CAB1D780FAB1E78E9
:1015A000032801D900BEFEE7214B1B68002B01D1A7
:1015B00000BEFEE7032707400123AB40FF221A408D
:1015C000924611000398FEF745FE002901D000BEA7
:1015D000FEE751460498FEF73DFE002901D000BE0B
:1015E000FEE70D9B01930095049B039A059920004B
:1015F000FFF7EEFE041E04D0200006B080BCBA4601
:10160000F0BD0E9A39000B48FFF77AFE7B010A4ABB
:10161000944663441A8808239A43002E00D100237D
:101620001A437B0104498C4663441A80E4E7C046B0
:10163000380B0020008000401C90004010B50328AB
:1016400001D900BEFEE70A4B1B68002B01D100BE8A
:10165000FEE78200D358002B01D100BEFEE7032134
:10166000014001220348FFF7C1FD002010BDC04624
:10167000380B00200080004010B5032801D900BEBF
:10168000FEE70A4B1B68002B01D100BEFEE782007B
:10169000D358002B01D100BEFEE7032101400022F8
:1016A0000348FFF7A3FD002010BDC046380B002003
:1016B00000800040032801D900BEFEE7094B1B68EB
:1016C000002B01D100BEFEE78200D358002B01D1D0
:1016D00000BEFEE70323034080335B01024A9950BA
:1016E0007047C046380B00200080004010B503282A
:1016F00001D900BEFEE70A4B1B68002B01D100BEDA
:10170000FEE78200D358002B01D100BEFEE7032381
:1017100018400A0001000348FFF7F2FD10BDC04663
:10172000380B00200080004010B50020FFF73CFE81
:1017300010BD10B50120FFF737FE10BD10B5022017
:10174000FFF732FE10BD10B50320FFF72DFE10BDD0
:10175000002801DA00BEFEE7C30F1F2200218242EB
:101760004B41DBB2002B01D100BEFEE71F2202403D
:101770004009012393408000014A83507047C046CE
:1017800000E100E0054B1B68002B04DD013B034A30
:101790001360002B00DD704762B6FCE73C0B0020B5
:1017A00072B6024A13680133136070473C0B002085
:1017B000002801D000BEFEE7044B1A6881218A434D
:1017C0001A6000221A605A609A6070470000044054
:1017D000F8B50C00002801D000BEFEE7002901D1B9
:1017E00000BEFEE78E68CD784F79002D59D180225A
:1017F0005202964201D300BEFEE7B6B2FFF7D8FF11
:101800002278314B1B6831490B40002A55D0802289
:10181000520013432C4A136062782B4B1B68C02183
:101820008B43002A4BD040221343274A1360A278EF
:10183000254B1B6884218B43002A42D0042213438A
:10184000214A136011001368822293436D00803A8D
:1018500015401D430D604B6876329343FF001740DF
:101860001F434F6020794B68753A934302401343FE
:101870004B608B681B0C1B0433438B60227B0B6813
:10188000B020834312018038024013430B60627B17
:101890000B6858308343D2008038024013430B60FA
:1018A000F8BD012D01D000BEFEE780225202964213
:1018B00001D300BEFEE7B6B2A0E70022A9E70022EE
:1018C000B2E70022BBE7C046000004407FFEFFFFF6
:1018D00070B50C001500002801D000BEFEE70029FD
:1018E00001D100BEFEE7FFF773FF6378002B03D042
:1018F000074B802252001A60002D00D170BD054AAE
:10190000136881218B4380390B431360F6E7C0468F
:1019100000E100E000000440F0B5C64600B586B026
:101920000400012801D900BEFEE7002901D100BE54
:10193000FEE7830021481D5821481E58337F002BA5
:101940003AD1002A01D100BEFEE7F160002398469B
:10195000736101203077023373872B001C330593AA
:101960003627F35D9C460390029201904346009314
:10197000059B0A0001216046FFF706FEF05D22008C
:101980001049FFF7F7FCF05DFFF758FEAB690E4A10
:101990001A4080231B031343AB61AB691B03FCD5C7
:1019A0002B690A4A1A4080231B0413432B61002031
:1019B00006B080BCB846F0BD0220F9E7F8CF0000C1
:1019C000400B0020451C0000FFFFF7FFFFFF7FFFDB
:1019D000054B0361054B4361002383610362F022E1
:1019E00092028262C36270470400000F00C01FC0F1
:1019F0000B00002A00D04B1C022B0AD08269102158
:101A00008A431B01134383610369054A1340036141
:101A10007047026980239B0513430361F8E7C046C2
:101A2000FFFFFFDF0A00836902218B435108490051
:101A30000B4383618169012399431A4011438161FA
:101A40007047000030B50B0C0904090C032B0FD0B4
:101A5000072B1AD0012B00D030BD046901258D4021
:101A6000AC43002A00D100238B4023430361F3E7FA
:101A7000836901248C40A343002A04D001228A40B8
:101A800013438361E8E70022F9E7836A01248C406D
:101A9000A343054C2340002A04D001228A4013436B
:101AA0008362D9E70022F9E7FFFFFCFF10B50128A8
:101AB00001D900BEFEE7002901D100BEFEE7830088
:101AC00018481858184C1B591C7F002C28D1002A84
:101AD00001D100BEFEE720241C5D002C03D0D407FA
:101AE00006D4012400E00124002C03D100BEFEE74F
:101AF0000024F9E7D9605A6101221A7701325A8726
:101B000083690A4A1A4080231B0313438361836954
:101B10001B03FCD501220649FFF794FF002000E0DB
:101B2000022010BDF8CF0000400B0020FFFFF7FFA0
:101B30001700030070B5012801D900BEFEE7800040
:101B4000134BC458134BC5586B8F9BB2022B13D148
:101B500000236B87002210492000FFF773FFA36961
:101B60000E4A1340A361A3691B03FCD400232B7707
:101B7000AB7F002B06D170BD002209492000FFF782
:101B800061FFE7E72800383000F074FDF3E7C04656
:101B9000F8CF0000400B002016000300FFFFF7FF06
:101BA0001700030070B58000144BC458144BC5587F
:101BB0002369144A134023613623E85CFFF75CFD78
:101BC000002211492000FFF73DFFA3690F4A13408F
:101BD000A361A3691B03FCD4AB7F002B06D16B8FE1
:101BE0009BB2022B07D000232B7770BD2800383022
:101BF00000F040FDF3E700236B87F4E7F8CF000027
:101C0000400B0020FFFF7FFF16000300FFFFF7FFE0
:101C100010B582000A4BD4586369002B0CD13433C1
:101C2000E35C012B09D0FFF7BDFFE36A002B03D073
:101C3000226B02212000984710BDFFF77BFFF4E7DD
:101C4000400B002070B58300184A9C58184A9D58D4
:101C5000012918D0E36A002B03D0226B0121200058
:101C600098476369002B1AD03625605DE168FFF75D
:101C700021FD6169605DFFF739FD00236361605DEF
:101C8000FFF7DCFC70BD01236387FFF78BFFE36A7E
:101C9000002BF7D0226B032120009847F2E70122A6
:101CA00004492800FFF7CEFEECE7C046400B0020B9
:101CB000F8CF0000160003000B0C032B0CD0072BF1
:101CC00011D0012B01D00020704703690904090CD1
:101CD000CB4001201840F7E783690904090CCB4089
:101CE00001201840F0E7836A0904090CCB40012069
:101CF0001840E9E710B50B0A01221A408369044C29
:101D00002340920713438361C9B2017710BDC046D7
:101D1000FFFFFFBF30B50C0A012214404B0A1A40E6
:101D20008369064D2B40A40723435B005B08D20761
:101D300013438361C9B2017730BDC046FFFFFFBFC7
:101D400010B580000D4BC3580D4A8058DA68202129
:101D50005B5C002B02D11378037710BD012B06D0FA
:101D60001378517809021943FFF7D4FFF5E7137888
:101D7000517809021943FFF7BDFFEEE7400B002041
:101D8000F8CF000070B58300194A9C58194A9D5835
:101D90006369002B00D170BDFFF7D2FF2023E35C05
:101DA000002B1DD1E3680133E3606369013B63618C
:101DB0006369002BEFD1E36A002B03D0226B012172
:101DC000200098476369002BE5D100220A492800CA
:101DD000FFF738FE012209492800FFF733FEDAE752
:101DE000E3680233E3606369023B6361E0E7C04696
:101DF000400B0020F8CF000017000300160003007E
:101E0000002901D100BEFEE78369DB0F1B020B80B6
:101E1000C269D2B213430B807047002901D100BEC2
:101E2000FEE783699B0F5B028022920013400B80C8
:101E30008269D20F120213430B80C269D2B21343DC
:101E40000B80704710B582B08000154BC358154AFF
:101E500080581C6920229B5C002B06D1002C01D1EC
:101E600000BEFEE7C36923700CE0012B0CD06B466B
:101E7000991DFFF7D2FF6B469B7923706B46DB8879
:101E80001B0A637002B010BD6B46991DFFF7B8FFC7
:101E90006B469B7923706B46DB881B0A6370F1E706
:101EA000400B0020F8CF00000B0C042B0CD0072BAC
:101EB00011D0022B01D00020704743690904090C9E
:101EC000CB4001201840F7E7C3690904090CCB4057
:101ED00001201840F0E7836A0904090CCB40012077
:101EE0001840E9E770B504000D000A000949FFF742
:101EF000A9FD2A0008492000FFF7A4FD2A00074990
:101F00002000FFF79FFD2A0005492000FFF79AFDFA
:101F100070BDC0461B000300180003001A00030038
:101F20001900030070B5012801D900BEFEE780004A
:101F3000144BC558144BC458A369144A1340A361E9
:101F4000A3695B03FCD400212000FFF7CBFFE3690A
:101F500000220F492000FFF775FDEB7F002B06D113
:101F600000236B77AB8F9BB2022B07D070BD28008C
:101F7000373000F07FFB0023EB77F1E70023AB87DE
:101F8000F4E7C046400B0020F8CF0000FFFFFBFF46
:101F90001500030070B505008200174BD458FFF7F9
:101FA00051FF2023E35C002B13D12369013323610C
:101FB000A369013BA361A369002B06D1636A002BCF
:101FC00003D0A26A002120009847A369002B07D004
:101FD00070BD236902332361A369023BA361EAE771
:101FE0002800FFF79FFF636A002BF1D0A26A02214D
:101FF00020009847ECE7C046400B002070B58000F9
:10200000154BC458154BC558A369154A1340A36115
:10201000A3695B03FCD400212000FFF763FF236961
:10202000104A13402361E3693523E85CFFF724FB82
:10203000EB7F002B06D1AB8F9BB2022B09D0002384
:102040006B7770BD2800373000F014FB0023EB776E
:10205000F1E70023AB87F2E7F8CF0000400B002048
:10206000FFFFFBFFFFFFDFFF70B506008300444A60
:102070009C58444A9D5844492800FFF715FF002802
:1020800016D0424BA3873423E35C012B68D0300089
:10209000FFF7B4FF636A002B03D0A26A032120007C
:1020A00098476B693A4A1A40F0231B0313436B614C
:1020B00038492800FFF7F8FE002816D0364BA387D2
:1020C0003423E35C012B4FD03000FFF797FF636AA6
:1020D000002B03D0A26A0321200098476B692C4A89
:1020E0001A40F0231B0313436B612C492800FFF7B0
:1020F000DBFE002816D02A4BA3873423E35C012B98
:1021000036D03000FFF77AFF636A002B03D0A26A53
:102110000321200098476B691D4A1A40F0231B03D6
:1021200013436B611F492800FFF7BEFE002816D03D
:102130001D4BA3873423E35C012B1DD03000FFF738
:102140005DFF636A002B03D0A26A03212000984739
:102150006B690F4A1A40F0231B0313436B6170BD78
:102160003000FFF7DFFE95E73000FFF7DBFEAEE75C
:102170003000FFF7D7FEC7E73000FFF7D3FEE0E7F8
:10218000400B0020F8CF0000130002000106000001
:10219000FF3FE03F110002000306000010000200B4
:1021A000040600001200020005060000012801D903
:1021B00000BEFEE78000034BC358586A59629A621A
:1021C0007047C046400B002070B504001D00012878
:1021D00001D900BEFEE7002901D100BEFEE7830061
:1021E00017481E580123B3773333F35C012B01D911
:1021F00000BEFEE7012B07D02000FFF78DFB002873
:1022000006D0708F80B270BD2000FFF74FFCF6E75C
:1022100030003830290000F0D5F90328F1D100232F
:10222000B377033373873133F35C012B03D0200082
:10223000FFF7B8FCE5E72000FFF77CFCE1E7C046CC
:10224000400B0020F0B5D6464F464646C0B586B096
:1022500003000C00012801D900BEFEE74B4A105CC8
:102260009B004B4A9A5892464A4A9B58002B07D0EB
:102270001A7F002A00D080E05B7F002B00D083E033
:1022800005A9FEF7DEFE059E002E01D100BEFEE789
:10229000A1008E4201D200BEFEE73000FDF754FFE0
:1022A00083B203930104890B3000FDF74DFF844294
:1022B0000CD2071B21003000FDF746FF8146202885
:1022C00024D8042824D80423029328E0271AF1E70D
:1022D000201AB84204D80700019B02934346039397
:1022E0000135ADB201954D4516D821006943300046
:1022F000FDF72AFF83B298460104090C69433000B8
:10230000FDF722FF8442E3D2001BE2E72023994637
:10231000042302930525E5E7029B072B06D85346C5
:102320001A6980239B02134352461361029F013FA7
:102330001F2F01D900BEFEE753461B69164A134002
:102340003F06F822520517401F4353461F61039B67
:102350005A1E0023114991425B41002B01D100BE5E
:10236000FEE753461B695B0B5A03039BDB04DB0C44
:10237000134352461361002000E0022006B0E0BC87
:10238000BA46B146A846F0BD0220F7E7F0CF0000FC
:10239000F8CF0000400B0020FFFFFFE0FE1F000011
:1023A000F0B583B006000C001500012801D900BE6D
:1023B000FEE7002901D100BEFEE7002A01D100BEE0
:1023C000FEE78300414A9F58414B185C01A9FEF784
:1023D00038FE019B002B01D100BEFEE7B3003D4A51
:1023E0009B58002B01D000BEFEE7EB79002B04D1F7
:1023F000AB79002B06D1013300E00123002B03D180
:1024000000BEFEE70023F9E7AB79022B04D00123DD
:10241000002B51D100BEFEE72B79002B01D10133F7
:10242000F6E70023F4E7E2180021117001333F2B97
:10243000F9D9B300274A9C50EA793423E254AA79A7
:10244000143BE2542A7A1533E2546A7A0133E25497
:102450003800FFF7BDFA29683000FFF7F3FE2B794B
:10246000002B2BD0A97901223800FFF7C1FA297976
:102470003800FFF7D7FA6A793B6917490B405203D6
:1024800013433B6100236387A3872000373000217B
:1024900000F006F9050020003830002100F000F9B6
:1024A000012D06D001280FD00C4B9857FFF750F99B
:1024B0000025280003B0F0BD0023B8E7A979002269
:1024C0003800FFF795FAD2E70500F2E7F8CF0000F1
:1024D000F0CF0000400B0020FFDFFFFFF4CF000033
:1024E000012801D900BEFEE7002901D100BEFEE7A8
:1024F000002A01D100BEFEE78000034BC3581961DA
:102500009A6100207047C046400B002070B504005F
:10251000012801D900BEFEE783001A4A9D58FFF743
:10252000A3FD19492800FFF7C7FB00280CD1174964
:102530002800FFF7C1FB002810D115492800FFF73C
:10254000BBFB002814D170BD12492800FFF7ACFC7A
:102550000028ECD02000FFF71DFDE8E70E49280019
:10256000FFF7A2FC0028E8D02000FFF70BFCE4E70F
:102570000A492800FFF798FC0028E4D02000FFF764
:1025800047FBE0E7F8CF0000150003001700030049
:1025900016000300150002001700020016000200DA
:1025A00010B50020FFF7B2FF10BD10B50120FFF7F6
:1025B000ADFF10BD024A1368013313607047C04677
:1025C000480B002070B582B004000D00002801D136
:1025D00000BEFEE70023019301A90020FEF731FDB4
:1025E000002801D000BEFEE7019B002B01D100BEF8
:1025F000FEE71D4E00233360FA2189000198FDF7A4
:10260000A3FD03021B0A7360184B1B78002B03D039
:102610000023B360154A1370134B07221A60002D74
:102620000DD12378002B1CD0FFF7BAF82378013B9B
:10263000DBB22370FFF7A6F8280002B070BD0C4B88
:102640001A682378002B08D1094B1B689B1A691C58
:10265000F7D09D42F5D2032500E00025002DEBD1F7
:10266000E2E70325E8E7C04610E000E0A50000200F
:10267000480B002010B5041E01D100BEFEE7FFF795
:102680008FF82378DBB2FF2B08D023780133DBB23D
:1026900023700024FFF776F8200010BD0124F9E72D
:1026A00070B504000D00002801D100BEFEE7FFF761
:1026B00077F82570FFF766F8002070BD70B50368E5
:1026C000002B01D100BEFEE7827A012A04D001214D
:1026D000002908D100BEFEE70169002901D00121CF
:1026E000F6E70021F4E741680F2901D900BEFEE7B3
:1026F0008C00E558047A012C3CD0022C3FD0002CF1
:1027000001D000BEFEE70234A5434024A543467A2B
:10271000B60134402C432E4D2C401202E025ED0032
:102720002A4022432B4C2240C47AE407240C224343
:10273000294C1440027B1204F0252D032A40224329
:10274000447B002C04D0254C224080246404224386
:102750008900CA500168C0254B5944680122A24033
:1027600093431A00837BA34013434B51837A012B7D
:1027700008D070BD0124A54301342543C5E70324D7
:102780002543C2E701694B69027D002A03D0012A73
:102790000CD000BEFEE701244568AC40A343012AEB
:1027A00009D002691B041B0C5361E2E70124456850
:1027B000AC402343F3E74668447D0A680125B540F1
:1027C000AA43B44022431204120C0A60E9E7C0464F
:1027D000FFF8FFFFFF7FFFFFFFFFF0FFFFFFFFFEA0
:1027E000002308E09A0002210A4811500A481150BB
:1027F0000A48115001330F2B0AD8094ADA40D20790
:10280000F0D59A0002210748115007481150E9E716
:102810007047C04600A0044000C0044000D00440FF
:10282000EFFF00000090044000B0044070B50500C8
:102830000E00002406E060000019C0003018FFF709
:102840003DFF0134AC42F6D3002070BD0904090CF1
:10285000C160704710B5002907D10A4B19780A4B9F
:102860005B5C0A2B01D0FE2900D110BD0131C9B239
:10287000044B1970044BC91801220020FFF730FEE9
:10288000F3E7C046500C0020500B0020FEE700008C
:1028900010B50D4A136880210B4313600B4B1A6867
:1028A00001321A601A680A4B9A4203D9094B1B7805
:1028B000002B00D110BD054B00221A60090206480A
:1028C000FFF7C4FFF6E7C04600000440540C0020A8
:1028D0001F4E0000580C002000F10F4010B50400FE
:1028E000FDF7BEFC0200C82321000020FFF76CFCAE
:1028F00010BD000000B593B0482200216846FDF7E6
:10290000C1FC0F4B0093022269468A720693012391
:1029100007932221684642540A4A0C920F220D92D4
:102920002B328354023209218154074A10924422E7
:10293000694683540320FFF779FF13B000BDC046FA
:1029400000A0044000D0044000F10F4030B585B035
:1029500001AA074B110031CB31C106490020FFF716
:102960001FFD002204490020FFF720FC05B030BD08
:10297000385400005C0C00205528000030B585B0AC
:102980006946084B0C330A0031CB31C21B68136017
:1029900001220020FEF79CFF034B00221A6005B0C5
:1029A00030BDC04638540000540C0020F0B5F5B0DE
:1029B0003A4B00221A70FFF713FF394A80235B0459
:1029C00011680B4313600023364A01213648FEF795
:1029D0004BFB00210020FEF75BFBFFF78BFFFFF7AF
:1029E000CDFFFFF7B3FF3148FFF778FF00F096F80F
:1029F00000284ED12E48FFF771FF002000F0FCFAAE
:102A0000032302930D3301932A4A00922A4A01219B
:102A10000E2000F021FB002809D12848FFF75EFFB7
:102A20000E2206214FA800F08BFB002515E024485C
:102A3000FFF754FFF9E76F004FAB5C192279214E85
:102A400005ABD819310001F037FC4C3422782AABA1
:102A5000D819310001F030FC01352B2DEBDD2C2392
:102A600000222AA9CA5405A9CA541748FFF736FFFD
:102A700005A8FFF733FF154C2000FFF72FFF144880
:102A8000FFF72CFF2AA8FFF729FF2000FFF726FFFA
:102A9000FEE71048FFF722FFFAE7C046580C002077
:102AA000084006404C0B00204401002000D00000EC
:102AB00014D000003CD0000028D0000050D000000E
:102AC00070D0000090D0000098D00000B0D000007E
:102AD000B4D00000CCD0000070B50C000500002080
:102AE00001F076FA094E22002900300001F071FA57
:102AF000002807DA2B00064A0649074801F0B0FB18
:102B0000072070BD00207460FBE7C046480100202C
:102B100002D10000DDD00000E3D00000A02110B5FC
:102B20003148C901FFF7D8FF00285BD100F042F916
:102B3000002857D1C020800101F0D0F9002851D1E0
:102B40008020C00101F0DEF900284BD1C020000137
:102B500000F040FF002845D1C020800000F04CFF6D
:102B600000283FD10130FF3000F084F8002839D12F
:102B70008020000100F0C4FC002833D188208000B0
:102B800001F040FA00282DD19020000101F048F911
:102B9000002827D18020800001F0C0F9002821D131
:102BA0009020800001F0CCF900281BD198208000F3
:102BB00001F0D8F9002815D1A020800001F0E4F937
:102BC00000280FD18020400100F004FA002809D12C
:102BD000B020000101F0EAF9002803D18020C000F4
:102BE00001F0FEF910BDC0460000C043F0B514006E
:102BF00091B00500684601F035FA0026A408A4004B
:102C0000A64201D111B0F0BD6B46985901F041F9CF
:102C1000AF1938600436F3E7F0B51400002595B01D
:102C2000960800900191B60004AFB54219D1032671
:102C3000250039002700B5432A00009801F012FA58
:102C4000374034420BD0019B5919086801F021F933
:102C5000009B03903A00581903A901F003FA15B03C
:102C6000F0BD019B5B19186801F013F97851043528
:102C7000DAE70000054B10B51B68C018044B01686B
:102C80001860044800F086FD10BDC04648010020D1
:102C90009C0C0020A1A0465010B50A00040004209E
:102CA000402906D8034B210018684030FFF79EFFEB
:102CB000002010BD9C0C002010B50A000400042068
:102CC000402906D8034B210018688030FFF78EFF9B
:102CD000002010BD9C0C00200A0010B5402900D92E
:102CE0004022034B1968C031FFF796FF10BDC04664
:102CF0009C0C002070B5074D04002E680800F2639C
:102D0000110001F06AF9706320002D6801F066F986
:102D1000A86370BDA00C0020120202431B061A43D8
:102D2000024B09011B680A43DA667047A00C0020B9
:102D3000002901D002231843002A01D0042318439C
:102D4000014B1B6858627047A00C002010B544422C
:102D500060418024C00724060019002902D0802188
:102D6000C9050843002A02D0802292051043002B97
:102D700002D080235B051843029B1B061843024BBD
:102D80001B68586410BDC046A00C00200122024BF5
:102D90001B681A627047C046A00C00200300012087
:102DA000034A126812691040002B00D01A60704765
:102DB000A00C0020094B10B51B68C018084B016817
:102DC0001860084800F0E6FC041E04D101F003F985
:102DD000002800DA0734200010BDC046480100205A
:102DE000A00C0020A2005050034B1A6801239360EE
:102DF000D0681842FCD17047C40C00200323F3B5FF
:102E00001700FFB003320E00040095080021684649
:102E10009A43FDF737FA002E04D03A003100684695
:102E200001F002F92000084B684319686B46451908
:102E3000A84201D17FB0F3BD020010CBC032920096
:102E400054500130F4E7C046C40C0020F7B5254CBF
:102E50004301E618B77F00203A000D00195901938D
:102E6000FFF7CCFF3A0001207168FFF7C7FF3A0077
:102E70000220B168FFF7C2FF3A000320F168FFF7B4
:102E8000BDFF3A0004203169FFF7B8FF3A00052082
:102E90007169FFF7B3FF144B9D4212D007D8134B53
:102EA0009D4207D0124B9D420BD00B20FEBD114B13
:102EB0009D42FAD1019BE418637FE27F1B04D20399
:102EC00005E0019BE418637FE27F1B03D2021343FA
:102ED000227F002012021343074A1268FC3253601B
:102EE000E4E7C046140900208113F3EC0393F0ECEF
:102EF0000113F3EC0393F3ECC40C0020F3B50400CE
:102F00000800D11C89080D00FFB0002B02D055002D
:102F10000335AD080B4E4C4337686E466519AC421D
:102F200007D1002B00D05200694601F07DF87FB038
:102F3000F3BDC0218C46A44461468900C9590134BF
:102F400002C6ECE7C40C002030B5C3B00D0010225F
:102F5000010002A801F086F8154B029A1C68F823BC
:102F60005B00E250039B29000193FA23019A5B0066
:102F7000E250049B02A80193FC23019A5B00E250FB
:102F8000059B0193FE23019A5B00E25080225200D0
:102F900001F068F800239A0002A989581A008032CB
:102FA000920001331151402BF5D143B030BDC046E2
:102FB000C40C00201022054BFF3210B51A81044BBF
:102FC0000F201B681968FFF741FF10BDB80C0020E7
:102FD000C40C0020054B10B51B68C018044B0168D9
:102FE0001860044800F0D6FB10BDC0464801002020
:102FF000C40C00200393F0EC030070B504200F2BE9
:1030000012D8124A117A994203D10020517A814292
:103010000AD101240E4905200968CD68254203D153
:103020000F2B02D1FFF7C6FF70BD0A489D002E5836
:103030000B20F56B002DF7D013721800096816608D
:1030400055605472FFF702FFEEE7C046B80C00204F
:10305000C40C002050010020F0B591B01E0018AB48
:103060001B78334D0D900E910F936B7A170004244B
:10307000002B59D0002302000621180000F01AFC92
:10308000041E51D12A7A2B4B52019B189A7F179B11
:1030900008970B93169B01270A9380235B000793E5
:1030A0000E9B033206930223921005930F9B02326C
:1030B000039002900190009311210300520104201B
:1030C0000996049700F0BEFE041E2DD11A4E3368F7
:1030D000DB683B4227D12B7A0F2B1AD1174B1A688A
:1030E0005B68D068D968FFF72FFF1121042000F03A
:1030F0002BFC0D994500062000F026FC33684004A7
:10310000FC3328439860FFF76FFE83070CD5092432
:103110000AE06B68D86A002803D02B68D96A0029B6
:10312000E1D10B2400E00524200011B0F0BDC04621
:10313000B80C002014090020C40C00206C050020ED
:10314000F7B5344E00900192737A0D000424002BE1
:1031500042D0062901D001293ED1337A2E4A5B01A3
:10316000D318290001201B8B019A00F0A3FB041E39
:1031700032D12A4F3B68DB68DB0746D4337A0F2B0A
:103180002CD1274B1A685B6890689968FFF7DCFEC2
:10319000062D2DD12800019900F0D6FB3B68400098
:1031A000FC339860FFF720FE022305001D40184203
:1031B0002DD1337A184A5B01D3189A7F00992B00DE
:1031C00004C10920FFF79AFE0099009A2B000A20FB
:1031D00012684C31FFF792FE2000FEBD7368186B39
:1031E000002803D03368196B0029CFD10B24F3E7F3
:1031F00001223B682800FC339A60019900F0A4FB8F
:103200003B680001FC33D860CCE70524E4E70924DF
:10321000E2E7C046B80C002014090020C40C0020CE
:103220006C0500200238072300B5062808D8FCF7F3
:1032300077FF04090B0D040909001C230B60002310
:10324000180000BD2023F9E73023F7E74023F5E716
:103250000300881E00B5062805D8FCF761FF06129A
:103260001416181A1C00072000BD0221002011604E
:10327000012BF9D0022BF6D11168FE330B431360FA
:10328000F2E70321F2E70421F0E70521EEE706214A
:10329000ECE70721EAE70821E8E70000F0B51600AF
:1032A0000022050095B00F00100011000293FFF7F7
:1032B0003FFD2B00012200249B33039318780299D1
:1032C000130050400094FFF741FD39002F003200F9
:1032D0002000FFF70FFD802398373A889B009A4221
:1032E0001BD128004021EC30FFF7D6FC29002D31FE
:1032F0004022FF3104A800F0B5FE0821334B02AA9A
:103300001E685218A300D05800F0C3FD23001033EC
:103310009B0001349851102CEFD12B000833DC6F47
:1033200080233E789B009C4200D91C002B009033E8
:103330001968300000F008FB220003000121300072
:10334000FFF7EAFC039B1B78002B04D028004021E8
:10335000AC30FFF7B1FC2B009A331978013B187899
:1033600004AAFFF775FF041E17D12F00174E049A09
:1033700033688C379A613A681A62FFF707FD04A830
:10338000FFF70CFD0028FAD1049B002B08D0104A4F
:103390001049114800F064FF0D24200015B0F0BD65
:1033A00033681B690493002B03D0094A09490B4871
:1033B000F0E7029B002BF0D128004021AC30FFF752
:1033C0008BFC33681B6B3B60E7E7C046C80C0020F2
:1033D000C4DB0000DDD000006FDB00009ADB0000E2
:1033E000F0B50C0093B09931069109780626814218
:1033F00033D1161E31D00026B3422ED021008831A1
:103400000968251D029121009431096800930191FA
:1034100013002100EA6F08A800F04BF9EE6705964B
:1034200008AD089B0793079A059B934201D300269A
:1034300013E02B79AF68EE68002B1FD00020FFF758
:10344000ADFC031E0CD1320039002000FFF726FF2F
:10345000061E07D00023069A1370300013B0F0BD8B
:103460000526F7E723009B331A78002A01D10132A1
:103470001A70059B0C3501330593D2E7231DD86FD5
:10348000BC4203D1002801D1DE67F2E732003900E7
:10349000201800F0F0FD231DDA6F9619F4E7F8B557
:1034A0000E009936150032780C000623824225D191
:1034B0000B1DDF6F97331B78002B02D00423002FE6
:1034C0001AD00423002D17D00020FFF767FC052336
:1034D000002811D1043B3A0021002000FFF7DEFE56
:1034E000031E09D14021281D9A34FFF7F5FB29005E
:1034F0002078FFF797FE0300002232701800F8BD15
:10350000054B10B51B68C018044B016818600448CF
:1035100000F040F910BDC04648010020C80C002052
:103520000038393110B513000A0001000120FFF7FF
:1035300057FF10BD10B50A0001000120FFF7AFFFD3
:1035400010BDF0B51600B6221F00DDB004000D005E
:103550005200002101A8FCF795FE390001A800F0F7
:1035600093F800280AD13200290001A8FFF7DAFFFA
:10357000002803D1210001A8FFF7DCFF5DB0F0BDFA
:10358000F0B51E000B0095B0019099331B780C002C
:10359000150005201A9F002B18D101380E2A15D8C6
:1035A000FD22B31E0630134210D0364B019A1B6821
:1035B0009B68022A02D10130DA0707D5072D07D808
:1035C000032D11D8AA1E0420012A08D915B0F0BD78
:1035D0000420082DFAD10B202B4203D1F6E70B2053
:1035E0009B07F3D5402203E00B2080225B07EDD53B
:1035F000230094331A60019B022B09D1002E2BD09B
:103600003A00310001201B9B00F054F90028DDD165
:1036100000201B9A231DD8670433DA670122803308
:103620001A60019A1E74586004335A739D73D873DC
:10363000864202D090342760C8E7EC348022310003
:103640002000FCF71FFE1B9B3900DA1D2000D2086A
:1036500000F008FD3000B9E7230094331B681B9A83
:10366000DB009A42D4D91B9B3900DA1DD2082B000B
:1036700003A8FFF766FF0028A8D1039B04AFDB0077
:103680001B93C5E7C80C0020002307B50A00010002
:10369000019301200093FFF773FF0EBD13B5049C47
:1036A0000093019413000A0001000220FFF768FF55
:1036B00016BDF0B5140085B00A9F282201910021A3
:1036C0000C9E00930500FCF7DDFDE31903930B9BB3
:1036D000E219F3189A4203D30B9B901B98420AD22B
:1036E000019BEC60AB60009BAF616B6102232B60C0
:1036F000280005B0F0BD0B99FCF726FD0600002C54
:103700001BD00B9A4243944229D80B9F013EA742FB
:1037100021D33B1B0293019B029A1819009900F0D8
:10372000A1FC029A01249446019BEF60AB60009BD0
:103730002C7163440093039BDF1B002E1AD00C23D3
:1037400001226343EB181A71009A01349A600B9AB4
:103750007243DA600EE00B9B013EFF18D7E70123AE
:103760002B71019BEA6099180026A21A0224AB6013
:103770006961AA610C220B9B62435E430023AA1875
:103780001371009BBF1B9B1901349360D7602C60A1
:10379000AEE7000007B50B00020000208A4206D009
:1037A00000920349034A044800F05AFD08200EBD68
:1037B000DDD0000020DC0000D6DB0000030030B5C7
:1037C0000B290BD807290FD9802402206400A242BC
:1037D00009D8541E01307F2C09D804E00C000C3CA1
:1037E0000420012C24D930BD0220802AFBD80020DF
:1037F0008342F8D00B2925D82D4B072943D90C003B
:103800001B68083CE4001C19236A0420DD07EAD584
:103810005D046D0D9542E6D11B0C4831DBB28B4245
:10382000E1D1606A1B04C31A5A1E93419800DAE77B
:1038300080240220A400A242D5D8541E0130FF2CBF
:10384000D5D8D0E70C000C3CE3B20420012BCAD839
:10385000174B24011B6804201C19236ADD07C2D5FD
:103860005D046D0D9542BED11B0C5431DBB28B4211
:10387000B9D1626A1B049A42B5D1A36A9A42B2D105
:10388000E06A101A0FE018680B0008339B001B5801
:103890000420DC07A7D55C04640D9442A3D1180C66
:1038A000C0B23031401A431E984180009BE7C046A9
:1038B000CC0C002070B50600481E15001A00052823
:1038C0003ED8FCF72DFC03090D151A1F1900E8B2AC
:1038D00000F0E9FA010009E0E8B200F0DCFAF9E7EB
:1038E000802300241B019A426441A100080070BD9E
:1038F000EDB2112DFAD10021F8E73000E9B2FFF75F
:103900005DFFE7E72B000E3BDBB20421022BEDD875
:10391000902302399B009A42E8D800218E42E5D0DC
:10392000084BEDB21B680235AD00EB580431D807E7
:10393000DCD55B045B0DD21A531E9A419100D5E78A
:103940000421D3E7CC0C002000B506280CD8FCF7E6
:10395000E7FB04060E0414192800002000BDCBB2BA
:10396000043B081F1F2BF9D901204042F6E7CBB2D8
:10397000013B022BF8D80800F0E7CBB21139112B2C
:10398000F9D0F1E7CBB20B2B05D8F8231942F2D0CE
:1039900008394800E2E70C3B012BE5D80C398800D8
:1039A000DCE7CBB20E3B022BDED80E39E3E700009A
:1039B00002000420112909D1054B1B68196EC907A3
:1039C00004D500201B6E5B045B0D13607047C0467E
:1039D000CC0C0020054B10B51B68C018044B0168C7
:1039E00018600448FFF7D6FE10BDC046480100200D
:1039F000CC0C0020A0015050054B10B51B68C0181E
:103A0000044B016818600448FFF7C4FE10BDC046AF
:103A100048010020D00C002000463833F0B5F7B044
:103A200005937CAB1C787DAB1B78819E07937FABA5
:103A30001B780290049383AB1B7806910892039342
:103A4000002C04D0631E012B10D904273DE0B622C0
:103A5000210052001BA8FCF715FC23002200079947
:103A600000941BA8FFF71AFE071E2ED1059B002508
:103A7000581E032806D8FCF75DFBCA0104000B00A2
:103A80000D000225029B042B06D0052B07D0DCE796
:103A90000325F7E70425F5E780231B051D430020D8
:103AA000089B069A0299FFF705FF071E0DD106999C
:103AB0000298FFF749FFBE4B00071B6828439B682D
:103AC000012C05D9022C61D00B37380077B0F0BD3E
:103AD0006242544125010543DB0700D495E1079874
:103AE00002380628B1D8FCF71BFB04090E43484BEB
:103AF0004E00802080001C23054308E0C020800089
:103B00002023054303E080203023C00005430293B7
:103B1000049B002B54D10293899B9E4200D994E7C9
:103B20003300311E03D0899B9E425BD00323059A4C
:103B3000002A5BD000220692059A042A5FD0829A5E
:103B40000498D2B2002853D1013A032A00D97CE765
:103B500001209A01024300188343012B01D109027D
:103B60000A43829BDBB2013B1B011343069346E0F1
:103B7000A020C00040230543C9E7C020C000BAE729
:103B8000E020C000BCE780200001B9E7234200D15B
:103B90003BE1049B5A1E93411B010293859BC02B62
:103BA00008D08023859A20255B009A4204D188257D
:103BB000AD0001E090256D00049B0543002BABD0C8
:103BC000809B002B0CD180239B021D43022E00D929
:103BD0003BE7F3B2012E06D1330002990026A6E797
:103BE000C023F1E7022300263100A0E70223A6E765
:103BF000042A00D929E7002006908242A8D1859B9B
:103C000000200A93FFF7CAF8002800D0CEE0039BFB
:103C1000002B7DD180230A9A9B009A4200D992E022
:103C2000869B002B00D087E0402200210BA8FCF7E8
:103C300029FB879A86990BA800F014FA40210BA85B
:103C4000FFF73AF8002211001000FFF771F8002387
:103C5000009301331A0019001800FFF777F8002EBF
:103C600073D1899A88998A98FFF744F8039B002BAF
:103C70000FD10A9C190040221BA80734FCF702FB55
:103C80008499E2081BA800F0EDF940211BA8FFF77A
:103C900003F8059B0724042B00D000248499039883
:103CA0000A9EFFF751FE3200030021000398FFF740
:103CB00033F8049B3E4E5A1E9341809A5B421A4051
:103CC000879B06998092DA0033689D61D9610899D3
:103CD0000433D9627E991BAD196302995963DA677F
:103CE000809B002B6ED1FFF751F82800FFF756F8A4
:103CF0000028FAD12F4B186800F0AAF91B9B002B63
:103D00007AD02D4A2D492E4800F0AAFA0D2722E03C
:103D1000039B042B09D1849B0AA8D9B2FFF748FE64
:103D2000002800D17CE7070015E00A9B849A0399DC
:103D30000120FFF7BFFDF3E7879BDA0080239B009C
:103D40009A4200D870E7022705E01A4B1B680993D6
:103D5000002B0AD00727174C2068002800D1B4E6B2
:103D600000F076F900232360AFE6829A899B94469F
:103D700063441800079300F061F90E4B041E1860AD
:103D8000E8D03200889900F06DF9829A0999A0195B
:103D9000FCF778FA829BF018899B20189A1B889B65
:103DA000991900F05FF92100079A5CE70527D2E72F
:103DB000D40C0020D80C002072DC0000DDD0000004
:103DC0002EDC0000402200212800FCF75BFA2800CE
:103DD000029A809900F046F9002433680293A30008
:103DE000E85800F056F82300029A10339B00013483
:103DF0009850102CF1D176E733681B691B93002B88
:103E0000A9D0044A044905487EE70B275DE6012551
:103E100038E6C04672DC0000DDD0000051DC000056
:103E2000054B10B51B68C018044B016818600448A6
:103E3000FFF7B0FC10BDC04648010020D40C0020A4
:103E400000444B48F0B5002791B017AD2D7816AC63
:103E50001BAE24783678039501250E97219F07968F
:103E60000D97209F1A9E0C971F9F06960B971E9FDB
:103E7000199E0A971D9F05960997189E1C9F0093EF
:103E800002950323019408970496FFF7C7FD11B02C
:103E9000F0BD00BA70470138C3B202209842804199
:103EA00040428000704704380A00C1B2042310B5B4
:103EB0001F290DD88021023B09018A4208D2012125
:103EC000FE339A4206D8FCF7C5F94B1E9941CBB296
:103ED000180010BD5B004900F3E70000064B10B569
:103EE0001B68C018054B1860B0239B00C1580448DC
:103EF000FFF750FC10BDC04648010020DC0C00203C
:103F0000D6304D50034B044A1B681B181360002029
:103F10007047C04648010020E00C0020054B10B55A
:103F20001B68C018044B016818600448FFF732FC96
:103F300010BDC04648010020E40C00200041383389
:103F4000054B10B51B68C018044B01681860044885
:103F5000FFF720FC10BDC04648010020E80C0020FF
:103F600001433833054B10B51B68C018044B01687A
:103F700018600448FFF70EFC10BDC0464801002041
:103F8000EC0C002001443833054B10B51B68C018F9
:103F9000044B016818600448FFF7FCFB10BDC046E5
:103FA00048010020F00C002000453833054B10B5C7
:103FB0001B68C018044B016818600448FFF7EAFB4F
:103FC00010BDC04648010020F40C002000413039EB
:103FD000704700207047002070477047704700000E
:103FE000054B10B51B68C018044B016818600448E5
:103FF000FFF7D0FB10BDC04648010020F80C0020A0
:1040000002003984054B10B51B68C018044B0168C9
:1040100018600448FFF7BEFB10BDC04648010020F1
:10402000FC0C002000423833013A531C00D1704789
:104030008B5C013A03700130F7E7000010B5034BC9
:104040000100186800F096F810BDC046000000207E
:1040500010B5034B0100186800F020F810BDC046F1
:1040600000000020002310B59A4200D110BDCC5CA6
:10407000C4540133F8E710B5884202D98B1898422E
:1040800003D3002307E08B5C8354013AFBD210BDBD
:10409000CC5CC45401339A42FAD1F8E770B50500FC
:1040A000002910D00C1F2368002B00DAE418280028
:1040B00000F02EFC1D4A1368002B05D163601460CC
:1040C000280000F02DFC70BDA34208D921686018BB
:1040D0008342F3D118685B6841182160EEE71A004B
:1040E0005B68002B01D0A342F9D911685018A04297
:1040F0000BD120680918501811608342E0D118686C
:104100005B68411811605360DAE7A04202D90C23C2
:104110002B60D5E721686018834203D118685B687B
:104120004118216063605460CAE7C046000D00205A
:1041300070B50F4E0D0031680400002902D100F067
:10414000A9F830602900200000F0A4F8431C0AD030
:104150000323C51C9D43A84207D0291A200000F064
:1041600099F8431C01D101256D42280070BDC0465D
:10417000040D0020F7B50322CB1C9343083306003F
:104180001F000C2B32D20C27B94231D8300000F07E
:10419000BFFB324D2B681C00002C2ED139003000A3
:1041A000FFF7C6FF0400431C1ED12C682500002D1C
:1041B0004AD123682900E3183000019300F06AF81F
:1041C000019B834243D123680337FF1A03239F4394
:1041D00008370C2F00D20C2739003000FFF7A8FF5A
:1041E000431C34D02368DF19276013E0002BCBDA9F
:1041F0000C23002533602800FEBD2268D11B20D48B
:104200000B2917D9E2192760A34211D12A606368EC
:10421000116053603000250000F082FB07220B354F
:10422000231D9543EA1A9D42E5D05B1BA350E2E7AC
:104230005A60ECE76268A34201D12A60EAE75A605B
:10424000E8E723006468A7E72C006D68AFE70C235C
:104250003000336000F064FBCDE7C046000D002065
:104260000FB40B4B13B51C68002C05D0A369002BB1
:1042700002D1200000F03CFA05AB2000049AA168AE
:10428000019300F061FE16BC08BC04B01847C0469C
:1042900000000020002370B5064D040008002B60CC
:1042A00001F0B4F8431C03D12B68002B00D023602D
:1042B00070BDC0460C0D00200EB400B50B499CB07B
:1042C0001DAB02900690079104910948094904CB5F
:1042D0000591006802A9019300F08CFB0023029A6B
:1042E00013701CB008BC03B01847C046FFFFFF7F27
:1042F000000000200802FFFFF8B505000E001400C2
:10430000002804D08369002B01D100F0F1F9224B81
:104310009C422ED16C68A369A360A3891B0732D588
:104320002369002B2FD023682269F7B2981A63699A
:10433000F6B2834205DC2100280000F037F900289E
:1043400027D1A3680130013BA36023685A1C226077
:104350001F706369834204D0A389DB0707D50A2E47
:1043600005D12100280000F021F9002811D13000EA
:10437000F8BD0A4B9C4201D1AC68CCE7084B9C428B
:10438000C9D1EC68C7E72100280000F00BF800282D
:10439000C9D001267642EAE7E0E2000000E300002F
:1043A000C0E20000374B70B51D6806000C00002D00
:1043B00005D0AB69002B02D1280000F099F9324BEF
:1043C0009C420FD16C680C23E25E93B211072DD48E
:1043D000D90611D409230120336037331343A38155
:1043E000404270BD294B9C4201D1AC68EBE7284BA1
:1043F0009C42E8D1EC68E6E75B0713D5616B0029C6
:1044000008D023004433994202D03000FFF746FE23
:10441000002363632422A3899343A3810023636061
:10442000236923600823A2891343A3812369002BF6
:104430000BD1A0218022A389890092000B409342D6
:1044400003D02100300000F01FFA0C22A35E0120EF
:104450001A0099B2024003420FD00022A2606269A2
:104460005242A261002022698242BAD10A06B8D51E
:1044700040221343A3810138B3E7880700D462695F
:10448000A260EFE700000020E0E2000000E300008F
:10449000C0E20000F7B58B8905000C001A075FD455
:1044A0004A68002A04DC0A6C002A01DC0020FEBDF8
:1044B000E76A002FFAD0002280212E682A601A00B5
:1044C00049010A400B4234D0606DA3895B0706D5D1
:1044D0006368C01A636B002B01D0236CC01A020002
:1044E000216A00232800E76AB847A189431C06D146
:1044F0002B681D2B31D82C4ADA40D3072DD5002349
:10450000636023692360CB0405D5431C02D12B686B
:10451000002B00D16065616B2E600029C6D023009E
:104520004433994202D02800FFF7B8FD00206063B1
:10453000BDE701232800216AB847431CC5D12B6879
:10454000002BC2D01D2B01D0162B01D12E60ADE760
:104550004023A2891343A381A9E740230B43FAE731
:104560000F69002FA2D00A680F60D21B01920022AF
:104570009B0700D14A69A260019B002B00DC95E7F4
:104580003A002800019B216AA66AB047002806DC91
:1045900040230120A28940421343A38187E7019B66
:1045A0003F181B1A0193E7E7010040200B6970B523
:1045B00005000C00002B02D10025280070BD00284A
:1045C00004D08369002B01D100F092F8144B9C4277
:1045D0001BD16C680C22A35E002BEDD0626ED2075B
:1045E00004D49B0502D4A06D00F023F9280021001B
:1045F000FFF750FF636E0500DB07DED4A3899B0540
:10460000DBD4A06D00F016F9D7E7064B9C4201D130
:10461000AC68DFE7044B9C42DCD1EC68DAE7C046CB
:10462000E0E2000000E30000C0E20000002310B55B
:104630000400036043608360818143661900C28186
:1046400003614361836108225C30FBF71BFE054B6D
:1046500024626362044BA362044BE362044B236352
:1046600010BDC046BD510000E55100001D520000C4
:104670004952000010B5024900F0BAF810BDC0461A
:10468000AD45000070B568254A1E55430E0029004F
:104690007431FFF76FFD041E08D000212A0001606D
:1046A00046600C30A0606832FBF7ECFD200070BD66
:1046B00010B5024800F0BDF810BDC046090D00203D
:1046C00010B5024800F0B6F810BDC046090D002034
:1046D00010B5024800F0ADF810BDC0460A0D00202C
:1046E00010B5024800F0A6F810BDC0460A0D002023
:1046F00013B50400FFF7ECFFA369002B02D0FFF70E
:10470000EFFF13BDA364E3642365134B134A1B68D7
:10471000A2620193A34201D10123A361200000F012
:104720001FF86060200000F01BF8A060200000F07F
:1047300017F800220421E0606068FFF777FF01228C
:104740000921A068FFF772FF02221221E068FFF73B
:104750006DFF0123A361D2E704CE0000754600007F
:10476000F8B50700FFF7A4FF1F4B1E68B369002BC5
:1047700002D13000FFF7BCFF4836B4687368013BD4
:1047800004D53368002B22D03668F6E70C22A55EEC
:10479000002D1AD12000154B5830E360656600F0FB
:1047A00047F8FFF78DFF2000082229002560A5604B
:1047B000656025616561A5615C30FBF763FD65633C
:1047C000A563A564E5642000F8BD6834D7E704213B
:1047D0003800FFF757FF041E3060D5D1FFF770FF98
:1047E0000C233B60EFE7C04604CE00000100FFFF52
:1047F000F7B5040006000027019148346368A568F6
:104800000093009B013B009304D52468002CF5D154
:104810003800FEBDAB89012B08D90E22AB5E0133F7
:1048200004D029003000019B984707436835E8E72A
:10483000704770477047000070B50E001D000E23D2
:10484000C95E140096B0002908DA0C22B35E00227B
:104850002A601B0611D48023DB000FE06A4600F0BB
:104860001FFD0028F1DBF02301991B021940054BC5
:10487000C9184B4259412960EDE7402300202360CD
:1048800016B070BD00E0FFFFF7B502268B8905006A
:104890000C00334206D023004733236023610123F9
:1048A0006361F7BD6A4601ABFFF7C6FF00990700D9
:1048B0002800FFF75FFC002808D10C22A35E9A05B0
:1048C000EFD4032293431E43A681E4E70F4BAB6270
:1048D0008023A28920601343A381009B2061636130
:1048E000019B002B0DD028000E23E15E00F0EAFCB6
:1048F000002806D00322A38993431A0001231343FF
:10490000A381A0890743A781CBE7C0467546000075
:1049100010B50248FFF78DFF10BDC046080D0020FE
:1049200010B50248FFF786FF10BDC046080D0020F5
:10493000F0B58E6885B007000C00039201939E428B
:104940003CD890238A89DB001A4234D00969236855
:1049500060695B1A029303234343DD0FED18019B4B
:10496000029801331B186D10AB4200D91D0053058E
:1049700032D529003800FFF7FDFB061E09D10C23B4
:104980003B6040230120A28940421343A38105B02C
:10499000F0BD029A2169FFF765FBA389144A1A400A
:1049A00080231343A381029B2661F618266065616C
:1049B000019EED1AA560019B9E4200D9019E320026
:1049C00003992068FFF757FBA36800209B1BA36097
:1049D00023689E192660DAE72A00380000F0A3FC5D
:1049E000061EE0D138002169FFF758FBC7E7C04633
:1049F0007FFBFFFFF0B5A1B003901D008B890F0076
:104A000016001B0611D50B69002B0ED14021FFF7B4
:104A1000B1FB38603861002805D10C23039A0138B6
:104A2000136021B0F0BD40237B61002308AC6361BB
:104A3000203363761033A376079535002B78002B4F
:104A400001D0252B47D1AB1B0593B5420CD03200CA
:104A500039000398FFF76CFF431C00D1AEE0626998
:104A6000059B9446634463612B78002B00D1A5E03D
:104A7000012200235242626004A9543252186E1C73
:104A80002360E360A3601370A36505223178544866
:104A900000F03EFC751C00281FD12268D30604D507
:104AA000532304A95B1820211970130704D553233D
:104AB00004A95B182B21197033782A2B16D03500E6
:104AC00000210A20E3682A786E1C303A092A4ED960
:104AD000002911D117E00135B0E7414B2268C01A17
:104AE0000123834013432E002360CEE7079B191D4B
:104AF0001B680791002B01DB0B9304E05B42E36032
:104B00000223134323602B782E2B0AD16B782A2B98
:104B100035D1079B02351A1D1B680792002B2BDB32
:104B20000993304E03223000297800F0F1FB002871
:104B300006D04023801B8340226801351343236045
:104B40002978062228486E1C217600F0E1FB002817
:104B50003CD0264B002B25D10722079B07339343DC
:104B6000083307936369049A9B18636165E74343BD
:104B7000350001219B18A6E701235B42D0E7002303
:104B80000A201A000135636029786E1C3039092922
:104B900003D9002BC5D00992C3E742433500012356
:104BA0005218F1E707AB00933A002100104B03982D
:104BB00000E000BF0490049B0133D3D1BB890D9862
:104BC0005B0600D42DE7012040422AE707AB0093A3
:104BD0003A002100064B039800F07CF8EAE7C04653
:104BE00020E3000026E300002AE3000000000000AC
:104BF00031490000F7B5150001938A680B690C0074
:104C00000090934200DA130022002B6043321278A6
:104C1000002A01D001332B6023689B0602D52B6844
:104C200002332B602268062317001F401A4227D048
:104C3000230043331B785A1E93412268920630D4D6
:104C4000220001990098089E4332B047431C25D0AA
:104C5000062320682A68E16800250340042B03D15D
:104C60008D1AEB43DB171D40A3682269934201DDD7
:104C70009B1AED180027BD4220D1002010E001371B
:104C8000E3682A689B1ABB42D2DD22000123019906
:104C90000098089E1932B047431CF0D101204042D1
:104CA000FEBD3020E1184331087021005A1C453107
:104CB0000978A218433202331170C1E722000123A0
:104CC00001990098089E1A32B047431CE6D001377C
:104CD000D1E70000F0B58BB006920A00433207938B
:104CE000059004920A7E0C00109B782A07D8622A4D
:104CF00009D8002A00D1C1E0582A00D18CE0260052
:104D00004236327022E0100063381528F7D8FBF7DE
:104D1000AFFA16001F00F6FFF6FFF6FFF6FF1F00C2
:104D2000F6FFF6FFF6FFF6FFA80036009A00F6FF42
:104D3000F6FFB900F6FF3600F6FFF6FF9E002600EC
:104D40001A684236111D1960136833700123A7E0F9
:104D5000086819680A1D05060BD50D681A60002D34
:104D600003DA2D23049A6D421370614B0A270393D3
:104D70001BE00D681A604106F1D52DB2EFE70D6812
:104D80001968081D18602E0601D50D6803E06D0630
:104D9000FBD50D68ADB2564B082703936F2A00D0A0
:104DA00002372300002243331A706368A360002B8C
:104DB00003DB0422216891432160002D02D1049E6F
:104DC000002B0CD0049E28003900FBF743FA039B0C
:104DD000013E5B5C33702B0005009F42F3D9082F26
:104DE00009D12368DB0706D563682269934202DC98
:104DF0003023013E3370049B9B1B2361079B2100E2
:104E000000930598069B09AAFFF7F4FE431C4CD1BA
:104E1000012040420BB0F0BD45310A70344A039284
:104E20001A68216820CA1A60080616D5CB0702D571
:104E30002023194321601027002DB2D1202322689E
:104E40009A432260ADE7202209680A4322602200CB
:104E5000782145321170274AE1E74806E6D5ADB220
:104E6000E4E71A680D68101D4969186013682E067A
:104E700001D5196002E06D06FBD519800023049E60
:104E80002361BBE71A68111D196016680021300004
:104E9000626800F03DFA002801D0801B6060636802
:104EA00023610023049A1370A8E72369320006994E
:104EB0000598079DA847431CAAD023689B0715D4D3
:104EC000099BE0689842A5DA1800A3E722000123B5
:104ED00006990598079E1932B047431C98D00135B2
:104EE000E368099A9B1AAB42F0DCE9E70025F7E793
:104EF00031E3000042E30000936810B5013B93608A
:104F0000002B04DA9469A34207DB0A2905D0136851
:104F1000581C10601970080010BDFFF7EDF9010072
:104F2000F9E7F8B506000F001400D518AC4201D11E
:104F3000002007E021783A003000FFF7DDFF013460
:104F4000431CF3D1F8BD0000F0B5A1B006000C0081
:104F50001F000392002804D08369002B01D1FFF7C2
:104F6000C7FB8E4B9C421CD17468636EDB0705D473
:104F7000A3899B0502D4A06DFFF75BFCA3891B07E7
:104F800002D52369002B1DD121003000FFF70AFA5A
:104F9000002817D0636EDB070DD50120404221B0F9
:104FA000F0BD7F4B9C4201D1B468DEE77D4B9C4253
:104FB000DBD1F468D9E7A3899B05EED4A06DFFF798
:104FC00039FCEAE7002308AD6B6120336B761033C0
:104FD000AB760797039F3B78002B01D0252B4ED152
:104FE000039BFB1A0593039B9F420DD0059B210059
:104FF0003000039AFFF795FF431C00D1B5E06A69C2
:10500000059B944663446B613B78002B00D1ACE078
:1050100001227B1C0393002352426A6004A954328C
:1050200052182B60EB60AB601370AB65039B0522DD
:1050300019785D4800F06CF9039B5F1C002820D1B3
:105040002A68D30604D5532304A95B1820211970BC
:10505000130704D5532304A95B182B211970039B54
:105060001B782A2B16D00021EB68039F3A78781C16
:10507000303A8446092A4FD9002911D117E0013767
:10508000A9E7494B2A68C01A0123834013432B60C8
:105090000397CBE7079B191D1B680791002B01DBCA
:1050A0000B9304E05B42EB60022313432B603B78DD
:1050B0002E2B0AD17B782A2B37D1079B02371A1D5A
:1050C0001B680792002B2DDB0993032239783748A0
:1050D00000F01EF9002807D0344B2A68C01A40237C
:1050E0008340134301372B6039787B1C06223048FC
:1050F0000393297600F00CF9002845D02D4B002BA6
:1051000027D10722079B07339343083307936B6923
:10511000049A9B186B615DE70A214B4367469B1815
:105120000939A3E701235B42CEE700231A000137C8
:105130006B603978781C30398446092903D9002BF3
:10514000C3D00992C1E70A235A4367465218093B64
:10515000EFE707AB0093220029003000164B00E078
:1051600000BF0490049B0133D1D1636EDB0705D4EB
:10517000A3899B0502D4A06DFFF75CFBA3895B06A6
:1051800000D50AE70D980AE707AB00932200290033
:105190003000094BFFF79EFDE3E7C046E0E2000068
:1051A00000E30000C0E2000020E3000026E300006E
:1051B0002AE3000000000000234F000070B50C003F
:1051C0000E25495F00F0DEF8002803DB636D1B1835
:1051D000636570BDA389024A1340A381F9E7C04605
:1051E000FFEFFFFFF8B51F008B8905000C001600CC
:1051F000DB0505D50E23C95E0022022300F074F8FA
:10520000A389054A28001340A38132000E23E15EE2
:105210003B0000F01FF8F8BDFFEFFFFF70B50C007A
:105220000E25495F00F060F8A389421C03D1054AAE
:105230001340A38170BD802252011343A381606596
:10524000F8E7C046FFEFFFFF10B50E23C95E00F080
:1052500015F810BD70B50400080011001A000023F5
:10526000054D2B6000F0E0F8431C03D12B68002BA8
:1052700000D0236070BDC0460C0D0020002370B527
:10528000064D040008002B6000F098F8431C03D181
:105290002B68002B00D0236070BDC0460C0D002091
:1052A000002370B5064D0400080011002B6000F0CB
:1052B0008DF8431C03D12B68002B00D0236070BDF8
:1052C0000C0D0020002370B5064D040008002B6073
:1052D00000F084F8431C03D12B68002B00D023601E
:1052E00070BDC0460C0D002070B504000800110010
:1052F0001A000023054D2B6000F078F8431C03D101
:105300002B68002B00D0236070BDC0460C0D002020
:10531000C9B28218904201D10020704703788B42B5
:10532000FBD00130F6E7F7B507000E0014000029A6
:1053300005D11100FEF71EFF05002800FEBD002A62
:1053400003D1FEF7ABFE2500F7E700F02FF8019040
:10535000844203D835004308A342EED3210038002D
:10536000FEF708FF051EE8D0019B22009C4200D9F1
:105370001A0031002800FEF775FE31003800FEF7F4
:105380008DFEDAE770B50400080011001A00002352
:10539000054D2B6000F032F8431C03D12B68002B25
:1053A00000D0236070BDC0460C0D00200B1F1B6891
:1053B000181F002B01DA0B58C01870475822012023
:1053C000014B40421A6070470C0D0020582201200A
:1053D000014B40421A6070470C0D00205822024BCE
:1053E00000201A607047C0460C0D00205822012092
:1053F000014B40421A6070470C0D002058220120DA
:10540000014B40421A6070470C0D0020044A030013
:105410001068002802D0C318136070470148FAE7EB
:10542000100D0020180D002058220120014B404291
:105430001A6070470C0D002000C20100000000013E
:10544000010000000001000000020000090000004F
:10545000000000003600008E9500000A0040029611
:105460000080042E000200B01881044A000480C3AA
:10547000361000898000000EA680040AB7C0060A14
:105480002000099200480B8A0016C0C118C10646C8
:1054900001C006B6000000FC000000000000000093
:1054A00000000000000000000000000000000000FC
:1054B00000000000000000000000000000000000EC
:1054C00000000000000000000000000000000000DC
:1054D00000000000000000000000000000000000CC
:1054E00000000000000000000000000000000000BC
:1054F00000000000000000000000000000000000AC
:10550000000000000000000000000000000000009B
:10551000000000000000000000000000000000008B
:10552000000000000000000000000000000000007B
:10553000000000000000000000000000000000006B
:10554000000000000000000000000000000000005B
:1055500000000000003600008E9500000A004002A6
:10556000960080042E1881044A000480C33610007F
:10557000898000000EA680040AB7C0060A20000930
:105580009200480B8A0016804136301B8818C106ED
:105590004601C006B6000000FC000000000000004C
:1055A00000000000000000000000000000000000FB
:1055B00000000000000000000000000000000000EB
:1055C00000000000000000000000000000000000DB
:1055D00000000000000000000000000000000000CB
:1055E00000000000000000000000000000000000BB
:1055F00000000000000000000000000000000000AB
:10560000000000000000000000000000000000009A
:10561000000000000000000000000000000000008A
:10562000000000000000000000000000000000007A
:10563000000000000000000000000000000000006A
:10564000000000000000000000000000000000005A
:105650000000000000003600008E9500000A0040A7
:105660000296009004AE000200B01881044A0004C3
:1056700080C3363002898000000EC880048AD9C0F9
:10568000068A2000099211480B8A0016C0C13630E4
:1056900002893600008E9500000A004002960080C4
:1056A000042E1881044A000480C33610008980004B
:1056B000000EA680040AB7C0060A2000099200481E
:1056C0000B8A0016C0C1361000891108003D200267
:1056D00000C500000039000000FC000000000000D0
:1056E00000000000000000000000000000000000BA
:1056F00000000000000000000000000000000000AA
:105700000000000000000000000000000000000099
:105710000000000000000000000000000000000089
:105720000000000000000000000000000000000079
:105730000000000000000000000000000000000069
:105740000000000000000000000000000000000059
:10575000000000000000004800008E9500000AE0F4
:10576000C106A68080042620200492000500C336CE
:105770001000898000000E7380048A84C0060A200D
:1057800000099200480B8A0016C0C13630028948D1
:1057900000008E9500000A1148028A00020043367C
:1057A000301B884800008E9500000AA640020A00BF
:1057B000020043365004894800008E9500000AD943
:1057C00040028A0080042E1881044A22C8068A00FA
:1057D0000500C3363002894800008E9500000A009B
:1057E00048028A000600C3361000894800008E95E2
:1057F00000000A0048028A1188048A000400433627
:10580000501D88000000FC000000000000000000A7
:105810000000000000000000000000000000000088
:105820000000000000000000000000000000000078
:105830000000000000000000000000000000000068
:105840000000000000000000000000000000000058
:1058500000000000000000009500000AD940028A04
:10586000000000C3004062A000010043004082200D
:10587000EA40028A000000C30048622000010043A1
:10588000004882A0EA40028A000600C33610008960
:105890004800008E9500000A0048028AA680040A8B
:1058A00000040043363002894800008E9500000A4B
:1058B0000048028AD980048A0004004336500489D3
:1058C0008000000E7380048A84C0060A20000992BA
:1058D00011480B8A00168041361000894830028931
:1058E0008000000EB780040AC8C0068A2000099212
:1058F00022480B8A00168041365004894870068978
:105900008000000E0088048A11C8068A2208098ACD
:1059100033480B8A000700C10050A22036100089CE
:105920004800008E9500000A0048028A00020043E9
:105930003610008900281B9C00580218000000FC4B
:105940000000000000000000000000000000000057
:105950000000000000000000004800008E950000DC
:105960000AE1C10626818004A620200492000500D9
:10597000C318C1064600C00636000000FC00000047
:105980000000000000000000000000000000000017
:105990000000000000000000000000000000000007
:1059A00000000000000000000000000000000000F7
:1059B00000000000000000000000000000000000E7
:1059C00000000000000000000000000000000000D7
:1059D00000000000000000000000000000000000C7
:1059E00000000000000000000000000000000000B7
:1059F00000000000000000000000000000000000A7
:105A00000000000000000000000000000000000096
:105A10000000000000000000000000000000000086
:105A20000000000000000000000000000000000076
:105A30000000000000000000000000000000000066
:105A40000000000000000000000000000000000056
:105A5000000000000000000000004800008E9500DB
:105A6000000A0000002820200492000500C318C18D
:105A7000064600C00636000000FC000000000000E2
:105A80000000000000000000000000000000000016
:105A90000000000000000000000000000000000006
:105AA00000000000000000000000000000000000F6
:105AB00000000000000000000000000000000000E6
:105AC00000000000000000000000000000000000D6
:105AD00000000000000000000000000000000000C6
