:1000000000000120C10000001D0100006504000087
:1000100000000000000000000000000000000000E0
:100020000000000000000000000000001D010000B2
:1000300000000000000000001D010000B1370000BA
:10004000F51A0000FF1A0000091B0000131B000036
:1000500000000000000000000000000000000000A0
:100060001D01000069040000000000000000000005
:100070001D0100001D0100001D0100001D01000008
:100080001D0100001D0100001D010000C13B00001A
:100090002D260000000000001D0100001D010000D1
:1000A000052600001D010000F52A0000FF2A0000BF
:1000B000613C0000092B0000A73700009D370000BD
:1000C00072B610490F4A0F4B0E4C0E4D0D4E0D4F90
:1000D000B846B946BA46BB46BC460B490B4A521A0B
:1000E000013A05DD0020042308601944043AFBDAD4
:1000F00007488546074880470748804762B600F0B2
:100100007FFAFEE700000000000000200000012050
:1001100000000120353E0000593E0000D0E7C046F7
:10012000002243088B4274D303098B425FD3030A36
:100130008B4244D3030B8B4228D3030C8B420DD349
:10014000FF22090212BA030C8B4202D312120902D7
:1001500065D0030B8B4219D300E0090AC30B8B4215
:1001600001D3CB03C01A5241830B8B4201D38B03C3
:10017000C01A5241430B8B4201D34B03C01A524168
:10018000030B8B4201D30B03C01A5241C30A8B42AB
:1001900001D3CB02C01A5241830A8B4201D38B0296
:1001A000C01A5241430A8B4201D34B02C01A52413A
:1001B000030A8B4201D30B02C01A5241CDD2C309AC
:1001C0008B4201D3CB01C01A524183098B4201D328
:1001D0008B01C01A524143098B4201D34B01C01A13
:1001E000524103098B4201D30B01C01A5241C3088B
:1001F0008B4201D3CB00C01A524183088B4201D3FA
:100200008B00C01A524143088B4201D34B00C01AE5
:100210005241411A00D20146524110467047FFE751
:1002200001B5002000F0F0F802BDC0460029F7D06B
:1002300076E7704703460B437FD4002243088B4286
:1002400074D303098B425FD3030A8B4244D3030B5D
:100250008B4228D3030C8B420DD3FF22090212BA22
:10026000030C8B4202D31212090265D0030B8B429E
:1002700019D300E0090AC30B8B4201D3CB03C01A88
:100280005241830B8B4201D38B03C01A5241430B63
:100290008B4201D34B03C01A5241030B8B4201D353
:1002A0000B03C01A5241C30A8B4201D3CB02C01ABE
:1002B0005241830A8B4201D38B02C01A5241430A36
:1002C0008B4201D34B02C01A5241030A8B4201D325
:1002D0000B02C01A5241CDD2C3098B4201D3CB01CC
:1002E000C01A524183098B4201D38B01C01A52417B
:1002F00043098B4201D34B01C01A524103098B427F
:1003000001D30B01C01A5241C3088B4201D3CB0069
:10031000C01A524183088B4201D38B00C01A52414C
:1003200043088B4201D34B00C01A5241411A00D2FC
:1003300001465241104670475DE0CA0F00D0494265
:10034000031000D34042534000229C4603098B42D5
:100350002DD3030A8B4212D3FC22890112BA030A5D
:100360008B420CD3890192118B4208D389019211DF
:100370008B4204D389013AD0921100E08909C30964
:100380008B4201D3CB01C01A524183098B4201D366
:100390008B01C01A524143098B4201D34B01C01A51
:1003A000524103098B4201D30B01C01A5241C308C9
:1003B0008B4201D3CB00C01A524183088B4201D338
:1003C0008B00C01A5241D9D243088B4201D34B0053
:1003D000C01A5241411A00D20146634652415B1095
:1003E000104601D34042002B00D549427047634676
:1003F0005B1000D3404201B5002000F005F802BDBB
:100400000029F8D016E770477047C0460023C25C49
:100410000133002AFBD1581E704703008218934213
:1004200000D1704719700133F9E7000010B50029B9
:1004300007D10A4B19780A4B5B5C0A2B01D0FE29C5
:1004400000D110BD0131C9B2044B1970044BC91859
:100450000122002003F042F9F3E7C046E801002042
:10046000E8000020FEE70000064B1B69DB0108D511
:10047000044A116980235B040B431361024B012280
:100480001A70704700D00440EA01002010B5040043
:10049000FFF7BCFF0200C8232100002002F092FFFA
:1004A00010BD000070B59AB002AC6022002120009F
:1004B000FFF7B3FF164B02930222A272A36101233E
:1004C000E36122216254134D2563023262633632A6
:1004D000A35402321839A1540132A3540132A35457
:1004E0000D4A2264A5640531E16443316354A26579
:1004F0005C22A35401AE094B1B88338021000420E9
:1005000003F0CCFA3100280003F0D8FA1AB070BD1D
:1005100000A0044000D0044000F10F40E83E00007D
:1005200030B585B001AA084B0433110031CB31C17D
:100530000649002003F032F800220549002002F0AD
:1005400033FF05B030BDC046E83E0000EC0100209E
:100550002D04000010B5244B00221A70234B0132E9
:100560001A702348FFF792FF092001F01FFB0024B7
:100570000CE02048FFF78AFF1C4B00221A701A4B30
:1005800000221A70194B1B78002B1CD1FA20800016
:1005900003F016F9144B1B78012BF3D1092001F05D
:1005A0001FFB9620400003F00BF9092001F0FEFA32
:1005B0000E4B1B78002BDCD10F48FFF767FF0B4B6E
:1005C00001221A70DBE7631CDCB2DB0705D5802152
:1005D00009020A4803F086FAD8E780210902074891
:1005E00003F07CFAD2E7C046EA010020E9010020CE
:1005F000F83E00003C3F0000303F000000F10F409B
:1006000010B503F025FA0B4A80235B0411680B43F5
:1006100013600023084A0121084800F0ABFE0021C6
:10062000002000F0BBFEFFF73DFFFFF779FFFFF76B
:1006300091FFC04608400640E40000209C000020D6
:10064000F0B5002801D100BEFEE7002834D0436891
:10065000002B31D0002208E000210B436100174C31
:10066000095B8900164C0B5101320368934223D970
:1006700093009B184168C95C4900104C095B104D00
:1006800089004C590F4E34404C514468E118E45CE9
:100690004E788B780F79CD781B06E021C9040B408A
:1006A000E90008250D402B43072139400B43002E5C
:1006B000D2D08021C905D0E7F0BDC046E43F00009C
:1006C00000500640FFFFFFBF70B5002801D100BEFB
:1006D000FEE7424A88215358FF24A343C33C2343E7
:1006E0005350503413591B0E1B063D490B431351F5
:1006F0000378002B06D10379002B21D1037B002B3B
:100700004AD170BD45788178C278344B5C68354EEB
:1007100034405C605B68344C2340002D0ED0802454
:10072000240123430C01FF2121400B431202E0214D
:10073000C9000A401343294A5360DCE70024F0E76C
:10074000057AC47981794279244B1B693F26B343EA
:10075000002D10D001252B43002C0ED00224234362
:100760008C000C2121400B43110130220A4013431D
:100770001A4A1361C2E70025EDE70024EFE79A1C4F
:100780009200821894689900184A8C500133DBB2A9
:10079000022BF4D900230CE00023F9E7144C22408B
:1007A0000906C024A40421400A430C49CA6001334D
:1007B000DBB2012BA5D89A1D920082185168074A16
:1007C000D268002BEAD0012BEFD10A4C22408906D7
:1007D000C024240521400A43E7E7C04600800440C6
:1007E000FFFF0A00FFF7FFFF0FF0FFFF30020020BE
:1007F000FFFFFFFCFFFFFFF330B5012383700370A1
:1008000043704371C37003710376002242618373A6
:100810001C498160037343734377032101772824C4
:100820000355083C0155C2778377033402250555EB
:10083000013C0355013C0155134941650D210165FA
:100840001F31435401314254013142540131425469
:100850000131435404314354013943540139425462
:100860000139425407314354C2630264426406E0D2
:10087000130010339B00C318002199600132012A34
:10088000F6D930BD00127A00A0000020222816D927
:10089000322816D0352816D0372816D03A2816D048
:1008A000492816D040000C4BC35A9B000B4A9B585A
:1008B0005B0001D5002003E08020400000E0042020
:1008C00070470420FCE70420FAE70420F8E704203E
:1008D000F6E70420F4E7C046E43F0000005006407D
:1008E000084B5A69FF231340042B07D0802B07D0F5
:1008F000012B01D0042070470120FCE70220FAE719
:100900000320F8E700E00740014B18687047C04635
:100910003C02002010B582B000291AD0002824D053
:1009200008794A79072303401202E020C000024000
:10093000134310488222520083500A680E4B1A60FB
:100940000E4CFFF7E1FF00280BD1002C09D0013C31
:10095000F7E701236A4613715371094B0093694607
:10096000DCE7002C04D0002000E0002002B010BD25
:100970000320FBE7004006403C02002088E73000EF
:1009800000127A000048704700127A0010B582B059
:10099000002917D000281ED008784A780723034082
:1009A0001202E021C9000A4013430D49812292003E
:1009B0008B506424FFF7E6FF002808D1002C06D0F6
:1009C000013CF7E701A901230B704B70E2E7002C13
:1009D00004D0002000E0002002B010BD0320FBE79F
:1009E00000400640004870470087930310B582B06E
:1009F000002917D000281ED008784A780723034022
:100A00001202E021C9000A4013430D49C12292009D
:100A10008B506424FFF7E6FF002808D1002C06D095
:100A2000013CF7E701A901230B704B70E2E7002CB2
:100A300004D0002000E0002002B010BD0320FBE73E
:100A40000040064010B5022808D0032809D001282C
:100A500001D0002010BDFFF757FFFBE7FFF792FF23
:100A6000F8E7FFF7BFFFF5E7F8B5CE46474680B594
:100A700004004B7898465E1C0F787B1C73439946A4
:100A8000002801D100BEFEE78D782800FFF7DAFFCD
:100A90000009012C03D0022C22D000BEFEE7EB009F
:100AA000274A9B581B095E4386423ED3EA00244BEB
:100AB0009B185B681B094A465A4382423AD32D066B
:100AC000F0231B051D4043461B04F0221203134074
:100AD0002B430F2217401F431A4B5F61002025E074
:100AE000022D01D000BEFEE7EB00174A9B581B0900
:100AF0005E43864220D3EA00134B9B185B681B09B8
:100B00004A465A43824219D32D06F0231B051D4045
:100B100043461B04F022120313402B430F221740BD
:100B20003B43084A9361002000E00120C0BCB94665
:100B3000B046F8BD0120F9E70120F7E70120F5E70D
:100B4000C8400000004006400041000010B5041EEF
:100B500001D100BEFEE78378FF2B01D100BEFEE786
:100B6000FFF7BEFE042801D100BEFEE72100FFF71B
:100B70007BFF00280DD10A210139074B1A69120E9B
:100B80000F231340A2789A4201D00029F4D1002902
:100B900000D010BD0320FCE70040064070B582B0D5
:100BA000050080782900FFF7F1FE041E07D0FFF74B
:100BB00097FE01280AD002281DD000BEFEE72900BA
:100BC0000831A87BFFF7A6FE0400F0E72E001E36D2
:100BD000002C0DD1B378032B36D1AB7B002B0DD17C
:100BE0000124AB78002B01D0012C11D0002C1AD09D
:100BF000200002B070BD2E002136E9E701A80123D4
:100C00008370002242700370FFF7A0FF0400E8E742
:100C100001A8022383700023437001330370FFF7A0
:100C200095FF0400E2E7E91C6879FFF7DFFE041E88
:100C3000DED1B37801A88370737843703378037082
:100C4000FFF784FF0400D3E701A883707378437033
:100C500033780370FFF77AFF041EC9D1E91C687965
:100C6000FFF7C4FE0400C3E700B583B00E4B1A695A
:100C7000120E0F231340032B13D0FFF7B3FE0028EF
:100C800005D100210130FFF7B1FE002807D101A8EE
:100C900003238370002242700370FFF757FF03B0F5
:100CA00000BD0020FBE7C0460040064070B5041EB2
:100CB00001D100BEFEE7002831D0FFF7D5FF0028A4
:100CC00029D000282CD1174B00221A60237E002B3C
:100CD00002D0144B62691A60637F002B0AD0227F16
:100CE00011490B6A114D2B401206F0252D052A40A3
:100CF00013430B622823E35C002B11D021001E312B
:100D00000120FFF7B1FE00280AD121002131023075
:100D1000FFF7AAFE04E02000FFF740FFD1E7002024
:100D200070BDC0462C02002000400640FFFFFFF0CF
:100D300010B50400022801D900BEFEE7154B1A6960
:100D4000120E0F231340022B1BD0032B1CD0012BA0
:100D500014D000200F4B1B691B0C0F2119400131CF
:100D6000FFF7DEF9012C08D9022C10D1094B1B69C1
:100D70000F2119400131FFF7D3F910BDFFF7C4FD72
:100D8000E8E7FFF7FFFDE5E7FFF72CFEE2E70020CD
:100D9000F3E7C0460040064010B50F4B1A6A120E2A
:100DA0000F231340022B14D008D8002B0DD0012B99
:100DB00002D1FFF7A9FD07E0002005E0032B02D1D7
:100DC000FFF710FE00E0002010BD0220FFF7B0FF8B
:100DD000FAE7FFF7D7FDF7E70040064010B5002916
:100DE00003D001292DD000BEFEE7052805D0062836
:100DF0001DD0042810D000BEFEE7FFF7F3FD02006F
:100E00002549C1239B00CB5807201840002802D059
:100E10000138C240100010BDFFF7B4FD02001E49AA
:100E200081239B00C858FE3BFF3B1840EEE7FFF7CD
:100E30006BFD0200184982235B00C858FD3B184037
:100E4000E4E7052805D006281AD004280CD000BEF7
:100E5000FEE7FFF7C7FD02000F49C1239B00C858FA
:100E6000000A07231840D1E7FFF78CFD02000A496A
:100E700081239B00C858000AFE3BFF3B1840C5E792
:100E8000FFF742FD0200044982235B00C858000AB4
:100E9000FD3B1840BAE7C0460040064010B5144B71
:100EA0001A69120903231340022B1ED00FD8002BFE
:100EB00016D0012B09D10E4B1B69022210001840DD
:100EC0001A420CD0FA20C00109E0002007E0032BF1
:100ED00004D100210520FFF781FF00E0002010BDB4
:100EE00000210620FFF77AFFF9E7024B1868F6E7C2
:100EF000008004402C020020174B1A69920803233B
:100F00001340022B19D005D8002B22D0012B1ED163
:100F100000207047032B1AD10F4B1B6902221000CF
:100F200018401A42F5D00C4B1B69013A10001840CA
:100F30001A42EED0FA208000EBE7074B1B69022231
:100F4000100018401A42E4D0FA20C001E1E700BEC8
:100F5000FEE7FA204002DCE70080044010B5204B99
:100F60005A6880231B01100018401A4236D01C4BCF
:100F70005A6812090F2313400E2B26D89B00194ADA
:100F8000D3589F46FA20400220E0FFF705FF1DE0FE
:100F900001210620FFF722FF18E001210420FFF7BE
:100FA0001DFF13E001210520FFF718FF0EE00020D0
:100FB000FFF7BEFE0AE00120FFF7BAFE06E0FFF7EA
:100FC0009BFF03E0FFF76AFF00E00020044B5B6833
:100FD0001B0A072119400131FFF7A2F810BDC046D6
:100FE00000800440503F000010B50C000F285FD86F
:100FF0008000314B1B589F460020FFF799FE0300ED
:101000000020002C00D0236010BD0120FFF790FECF
:1010100003000020F5E70220FFF78AFE030000200E
:10102000EFE7FFF79BFF03000020EAE7FFF7AAFCCA
:1010300003000020E5E7FFF7D5FC03000020E0E710
:10104000FFF762FC03000020DBE71C4B1B6800205D
:10105000D7E7FFF7A1FE03000020D2E7002104201C
:10106000FFF7BCFE03000020CBE701210420FFF7BF
:10107000B5FE03000020C4E700210520FFF7AEFE07
:1010800003000020BDE701210520FFF7A7FE0300B4
:101090000020B6E700210620FFF7A0FE0300002095
:1010A000AFE701210620FFF799FE03000020A8E723
:1010B00000230420A5E7C0468C3F00002C0200203E
:1010C00010B50C001738C3B2052B03D89800184B85
:1010D0001B589F46002025E0FFF740FF22E0FFF766
:1010E000DDFE1FE0FFF708FF1CE0124B1B69022228
:1010F000100018401A4215D00E4B1B69013A10001F
:1011000018401A420ED0FA2080000BE0094B1B69F0
:101110000222100018401A4204D0FA20C00101E057
:10112000FA204002002C00D02060002010BDC046F4
:10113000CC3F00000080044070B582B004000E0077
:1011400000230193152818D0162823D001A9FFF7F2
:10115000B7FF05001D3CE4B2042C01D8002D2AD0B5
:10116000019B002B03D1042D01D080256D00002EA2
:1011700000D03360280002B070BD114BDA68120E47
:1011800003231340022B12D89B000E4A9B58019355
:101190000025DFE70A4BDA68920E03231340022B87
:1011A00007D89B00074A9B5801930025D2E70025EA
:1011B000D0E70025CEE70120FFF7BAFD0190CFE789
:1011C000008004403002002010B5382803D03928B0
:1011D00005D0002010BD1520FFF7AEFFFAE716205E
:1011E000FFF7AAFFF6E7000070B582B00023019375
:1011F00042001D4BD35A1D4A9D00AC58E4080126FD
:101200003440AA5807251540A54220D39A00174E0E
:10121000925952001BD59B009A59120E0723134076
:10122000022B17D0032B1AD0012B04D001A9FFF7F2
:10123000CBFF002503E00620FFF7D0FD0190691CDD
:101240000198FEF76DFF0190013444430194019829
:1012500002B070BD0420FFF7C1FD0190EFE705204B
:10126000FFF7BCFD0190EAE7E43F000000500640B4
:10127000F8B505000E00FFF709FB041E3BD1224B19
:101280005F5DBB0606D47B0618D47BB2002B1DDB4A
:1012900000BEFEE70120FFF74BFD00281ED0002C0A
:1012A0002FD118233B4227D03B071AD40020FB063E
:1012B0001CD4002820D1802464001DE00020FFF70A
:1012C00037FD0028EBD180246400E8E70220FFF717
:1012D0002FFD0028E3D180246400E0E7802464002F
:1012E000DDE700212800FFF77FFFE0E7012128006C
:1012F000FFF77AFFDDE70020002E00D030602000ED
:10130000F8BD0020F8E7C0467C40000030B597B03B
:101310000400FFF7E5FA012801D000BEFEE7002C2B
:1013200007D02000FFF7C2FC051E07D0280017B029
:1013300030BD6846FFF760FA6C46F2E720002C30BB
:10134000FFF7C2F920005030FFF77AF9EEE710B549
:10135000112805D9212806D9492807D9042001E0F8
:10136000FFF742FE10BDFFF7E7FEFBE7FFF780FF48
:10137000F8E7000010B5002801D100BEFEE7002A02
:1013800001D100BEFEE7044C20602171A2602373EE
:101390006373002010BDC04640020020F0B5C64671
:1013A00000B582B006000D003C4B1B79984201D37A
:1013B00000BEFEE701AC2070617000F039FC374BD5
:1013C0001A7B5A730123A370002401E00134E4B2B4
:1013D000324B1B7BA34215D9304B9A68A300D358DC
:1013E000002BF3D01A79022AF0D099681B6801A863
:1013F00098470028EAD0294B5C73002DE6D10427DA
:10140000FF3700E00027002F05D0012D03D001ABEE
:1014100000229A702EE0214B9846B3004246126893
:10142000D058FFF773FF071E43465E71EFD101AB43
:1014300002229A70002407E0002803D0174B5C7347
:10144000002D22D00134E4B2144B1B7BA3421ED9E1
:10145000124B9A68A300D358002BEDD01A79012AB9
:10146000EAD099681B6801A89847E5E7002C0ED0E0
:10147000013CE4B2094B9A68A300D358002BF5D085
:1014800099681B6801A89847F0E782277F0000F061
:10149000C1FB380002B080BCB846F0BD400200205D
:1014A00010B5032901D900BEFEE74B01C3180A4C51
:1014B000A44663441B880224A3431C00002A08D0CE
:1014C0000223234349014118034A944661440B8097
:1014D00010BD0023F5E7C0461C1000000323184090
:1014E000014B1877D877704700800040022801D858
:1014F000012070470020FCE7002A01D0C176704728
:101500008176FCE710B54B01C318104A9C180022E5
:101510002260803149010A5040188280C2800C4903
:1015200059180A600B4959180A600B4959180A8062
:101530000A4959180A800A4959180A60094959186C
:101540000A8009498C4663441A8010BD08100000C7
:101550000C10000010100000141000001610000005
:10156000181000001C1000001E10000070B504AC24
:10157000247805AD2D78032901D900BEFEE7D202FB
:1015800092B22402E026F60034402243DC00FF231E
:101590002340072425402B431A4380314901411839
:1015A000CA8070BD10B5032901D900BEFEE70368EB
:1015B0001B0621D54B01C318134CA44663441B687A
:1015C000002B0CDB4B01C31863441B685B0006D483
:1015D000920092084B01C31863441A6012E04B0159
:1015E000C31809498C4663441968890A890292051F
:1015F000920D0A431A6005E049014118024B9C46CE
:1016000061440A6010BDC0460810000010B50329EF
:1016100001D900BEFEE74B01C318174CA446634432
:101620001B881BB2002B13DB49014118124BC81851
:101630000388DB0BDB035204520C134303800F4B74
:101640009C4661440B88DB0BDB031A430A8010BD08
:1016500049014118081903885B0A5B02D205D20DC3
:1016600013430380054B9C4661440B885B0A5B0275
:101670001A430A80EBE7C0461E1000001610000057
:1016800010B5032801D900BEFEE7094B1B68002BEB
:1016900001D100BEFEE78400E458002C01D100BE59
:1016A000FEE78000C4586160C3589A60002010BDF6
:1016B0005002002010B5084B1B688200D458FFF779
:1016C0000DFF002C06D06368002B03D0217BC9B22C
:1016D000A068984710BDC04650020020F0B5C6462D
:1016E00000B586B005000C00039204930CAB1F7884
:1016F000032801D900BEFEE7604B1B68002B01D117
:1017000000BEFEE78200D358002B01D100BEFEE7E9
:101710003800FFF7EBFE002801D100BEFEE70326EC
:101720002E400123BB401A000593FF231A40904628
:1017300011000398FEF77AFD002901D000BEFEE7F4
:1017400041460498FEF772FD002901D000BEFEE775
:1017500041460D98FEF76AFD002904D0012006B02D
:1017600080BCB846F0BD31004548FFF7CBFE444A87
:101770007001444B9C46604403889B04990C424B87
:101780000B439BB20380136880218B430B43136090
:10179000330080335B010399995073013B4A9446AF
:1017A0006344049A1A6001970097002300223100D5
:1017B0003348FFF7DBFE022C4FD02BD8002C3AD059
:1017C000012C10D16B461427DF57BFB23300803392
:1017D0005B012B4A944663449F8073012C4A9446D4
:1017E000634400221A80264C0D9A31002000FFF736
:1017F000D9FE012231002000FFF708FF012231004D
:101800002000FFF74DFE1D4B1B68A800C3580020A9
:101810001873A4E7032CE6D1330080335B01184A28
:101820009446634400229A807301194A94466344A3
:1018300000221A80D7E7330080335B01104A9446B8
:10184000634400229A806B461427DF57BFB27301AE
:101850000F4A944663441F80C5E76B461427DF5741
:10186000BFB2330080335B01054A944663449F80D6
:101870007301074A944663441F80B4E75002002076
:10188000008000401C9000400080FFFF109000404E
:1018900014900040F0B5D64600B586B0040005911E
:1018A000039204930CAB1D780FAB1E78032801D96B
:1018B00000BEFEE7214B1B68002B01D100BEFEE7F6
:1018C000032707400123AB40FF221A409246110034
:1018D0000398FEF7ABFC002901D000BEFEE751469D
:1018E0000498FEF7A3FC002901D000BEFEE70D9B83
:1018F00001930095049B039A05992000FFF7EEFEE3
:10190000041E04D0200006B080BCBA46F0BD0E9A7A
:1019100039000B48FFF77AFE7B010A4A944663447C
:101920001A8808239A43002E00D100231A437B0112
:1019300004498C4663441A80E4E7C0465002002004
:10194000008000401C90004010B5032801D900BE63
:10195000FEE70A4B1B68002B01D100BEFEE78200A8
:10196000D358002B01D100BEFEE703210140012224
:101970000348FFF7C1FD002010BDC0465002002003
:101980000080004010B5032801D900BEFEE70A4BD5
:101990001B68002B01D100BEFEE78200D358002B4C
:1019A00001D100BEFEE70321014000220348FFF7FA
:1019B000A3FD002010BDC046500200200080004062
:1019C00030B5032801D900BEFEE71D4B1B68002B74
:1019D00001D100BEFEE7032801D900BEFEE7194C85
:1019E000235C7F252B402354032801D900BEFEE74A
:1019F000144D2C5C3F239C43194021432954032858
:101A000001D900BEFEE70F4B1B5C40218B43190040
:101A1000002A07D040230B430A4A1354032803D952
:101A200000BEFEE70023F6E706490B5C7F221A4062
:101A300080235B421343DBB20B54002030BDC04611
:101A40005002002000100240032801D900BEFEE72A
:101A5000094B1B68002B01D100BEFEE78200D35862
:101A6000002B01D100BEFEE70323034080335B015E
:101A7000024A99507047C046500200200080004042
:101A8000032801D900BEFEE7094B1B68002B01D1DA
:101A900000BEFEE78200D358002B01D100BEFEE756
:101AA000032303405B01034A944663441960704773
:101AB000500200200C90004010B5032801D900BE50
:101AC000FEE70A4B1B68002B01D100BEFEE7820037
:101AD000D358002B01D100BEFEE7032318400A00B3
:101AE00001000348FFF792FD10BDC04650020020E0
:101AF0000080004010B50020FFF7DCFD10BD10B5E0
:101B00000120FFF7D7FD10BD10B50220FFF7D2FD71
:101B100010BD10B50320FFF7CDFD10BD006B704761
:101B200001637047002902D00123436570470023F9
:101B3000FBE7436C0122934343647047C06DC0B21E
:101B40007047B030890040180068C0B270479C23CD
:101B5000C3580120184070479822835801218B43B5
:101B6000835070479823C358012018407047A4231E
:101B7000C058C0B27047D023C05830331840431EFD
:101B80009841C0B27047D82380225200C25070479B
:101B9000D823C05828331840431E9841C0B270471C
:101BA000DC23C3581B0A7F2018407047002801DA45
:101BB00000BEFEE7C30F1F22002182424B41DBB271
:101BC000002B01D100BEFEE71F2202404009012385
:101BD00093408000014A83507047C04600E100E016
:101BE000002801DA00BEFEE7C30F1F220021824257
:101BF0004B41DBB2002B01D100BEFEE71F210140AB
:101C0000430901228A4020339B0001495A50704702
:101C100000E100E0054B1B68002B04DD013B034A9B
:101C20001360002B00DD704762B6FCE75402002011
:101C300072B6024A136801331360704754020020E1
:101C4000026902218A430A430261882252008358B2
:101C50008B430B4383500023036183507047000084
:101C600010B5012801D900BEFEE78300094A9A5841
:101C7000002A01D100BEFEE78000074BC358586A16
:101C8000064C20405862586A054C204058622E236A
:101C9000D15410BD580200203C410000FFFFFFF866
:101CA000FFFDFFFF30B50B005A1E9341DCB2002B45
:101CB00001D100BEFEE7002801D100BEFEE7C26DE3
:101CC0000723134042680F2515400122AA4092B213
:101CD000002C01D100BEFEE78D7ACC7AA5420CD053
:101CE00030BD4B691B7803664B6901334B618B69CF
:101CF000013B8B61C46D072323408C69002CEFD01E
:101D00009342EED3ECE7000070B505000C000B7EAB
:101D1000002B01D0104B0B806368002B05D1236A88
:101D2000002B02D0616A012098476368002B06D11E
:101D3000013323766033FF33FF22EA5070BDE3683E
:101D40001A78B0235B00EA50E3680133E36063680C
:101D5000013B6360F2E7C0460102000070B5050078
:101D60000C008B68002B05D10B6A002B02D0496A4E
:101D700000209847A368002B04D1084B2380923B96
:101D8000EB5870BDB8235B00EB58226913702369D0
:101D900001332361A368013BA360F2E70202000064
:101DA00010B5002901D100BEFEE7002801D100BE18
:101DB000FEE78C2252008358114C23408350CB7E87
:101DC000002B07D18B68002B12D0043283580224D9
:101DD000A34383508822520083580124A343835095
:101DE00000238B700B618B60CB604B60CB7510BD9B
:101DF0008E22520083580124A3438350EAE7C04651
:101E0000F8F0FFFFF8B505000C0016001F000029D0
:101E100001D100BEFEE7002801D100BEFEE78369C4
:101E20001A4A134083612723CB5C002B1DD0002F5F
:101E30000DD02B69164A1A4080235B0013432B6197
:101E40002B69144A1A4080239B0013432B61002EF8
:101E500002D080239B002B6600236361A361E360B3
:101E6000236122330122E254F8BD2833C85CFFF716
:101E700089FD2369002B04D0EB6902229343EB61B7
:101E8000D5E7EB6901229343EB61D0E7FCE3FFFF69
:101E9000FFFEFFFFFFFDFFFF70B50C1E01D100BE6E
:101EA000FEE78A7ACB7A9A4217D14B69002B56D03B
:101EB0008B69002B50D12333CA5C0023FFF7A2FFAC
:101EC0002623E35C002B42D10023A383E36A002B8B
:101ED00044D0216B0420984740E00B005A1E9341E8
:101EE000DAB2002B01D100BEFEE7002801D100BE0E
:101EF000FEE7C36D0721194045680F231D400E3BC7
:101F0000AB409EB2002A01D100BEFEE7A57AE37A7B
:101F1000AB420ED08E420CD9E15CE3185D790B0226
:101F20005B190366E37A0133E372C36D072119403D
:101F3000E8E7002A01D100BEFEE7AB420ED1002A3D
:101F400001D100BEFEE70023E372A37206E0200089
:101F5000253001F0C7FCB7E7FFF7A4FE70BD836929
:101F6000012293438361F9E710B50C00CB68002B85
:101F70000AD100BEFEE7036FE2681370E368013325
:101F8000E3602369013B2361C36D1B0C5B0702D037
:101F90002369002BEFD12369002B10D0816D090C30
:101FA00003220A40934209D8013B826D10490A403E
:101FB0001B04C02189020B401343836510BD2333EA
:101FC000E25C00232100FFF71DFF2623E35C002BCA
:101FD00008D10023A383E36A002BEFD0216B0420F8
:101FE0009847EBE72000253001F07CFCF1E7C04684
:101FF000FFFFFCFF70B504000D00002801D100BEFA
:10200000FEE7C37E002B09D0637D002B0AD0236A34
:10201000002B02D0616A0420984770BD007FFFF753
:10202000B1FCF1E721002800FFF7BAFEA37E002BE8
:10203000EDD02000193001F055FCE8E730B585B04F
:102040000C000B7C002B15D14000154BC15C207897
:102050000022FFF7B5FCA2686368E5686178207824
:10206000002403940295012501950094FFF712FCCA
:1020700005B030BD40000A4B181841782078002286
:10208000FFF79EFC6268A368E56861782078002409
:1020900003940295012501950094FFF7FBFBE7E708
:1020A0004441000030B587B08300244A9D58244A3B
:1020B0009C586269002A27D02C23E15C01AB19707F
:1020C0000121597029006131FF310291E1690391C9
:1020D00000211974049201A9FFF7B0FF6369594206
:1020E0006B461879FFF7CCFC6B461879FFF72CFC90
:1020F0006369002B19D08E225200AB5801218B430B
:102100000B43AB5007B030BD2C23E25C01AB1A701F
:1021100000225A702A007132FF320292226A039220
:1021200001221A74A2690492D5E78E225200AB589C
:1021300002218B430B43AB50E4E7C0463C41000017
:102140005802002070B505001400A8235B00CB588E
:10215000DB0724D5136A002B05D0527D002A02D05C
:10216000616A02209847E37E012B0AD00023237680
:10217000E37E002B02D1637D002B0CD10223238050
:1021800070BDAB000F4A99588C2252008B58012029
:1021900003438B50EAE72800FFF784FFEEE7136A5A
:1021A000002B05D0527D002A02D0616A0320984797
:1021B000E37E002BE2D1637D002BDFD02800FFF708
:1021C00071FFDBE73C410000F8B5012801D900BEF2
:1021D000FEE78300404A9B58002B01D100BEFEE77A
:1021E00082003E4954581D0010358A225200A158E1
:1021F000A25852052BD48A2149006258520A01265E
:1022000032406158090A37000F400E4206D0263688
:10221000995D0131C9B29955012929D0002A01D10E
:10222000002F32D08A22520080218900A15001392A
:10223000FF39A150183162580120824362501A8A36
:10224000022A1FD021002800FFF7D4FEF8BD01218B
:1022500019828A235B008022D200E2508C22520035
:10226000A3588B43A35021002800FFF7C3FEEDE7DE
:102270002531595C0029D1D08A214900D9366650D0
:102280000027CBE700221A82DCE78A235B00E358B1
:102290005B071CD48A235B00E358DB0708D58C233B
:1022A0005B00E358DB0703D529002000FFF72CFD76
:1022B0008A235B00E3589B07C8D58C235B00E35857
:1022C0009B07C3D529002000FFF748FDBEE72A0081
:1022D0002100FFF737FFDDE7580200203C410000F6
:1022E000F0B5CE46474680B583B004000D00160019
:1022F000012801D900BEFEE78300514A9B58002BFC
:1023000001D100BEFEE782004E49575832229A5C46
:10231000002A00D18EE09B68187801A9FFF717F812
:10232000002801D000BEFEE7019B9846002B01D19A
:1023300000BEFEE73B69012293433B613368994647
:10234000002B19D04346581E4B46D901FDF7E8FE35
:1023500001300026062E05D80123B340834201D266
:102360000136F7E74946B14048084044FDF7D8FE3A
:10237000802803D9802003E007268020012851D936
:10238000821E5208801A831E9946002A4ED04B4660
:10239000022B01D80323994653089C46012A47D9AA
:1023A00011006346002B01D101339C467B6A072054
:1023B0008343984607233340404603437B62BE6C09
:1023C000214B1E40B046FF2360460606FC208005D8
:1023D000064040460643BE64BE6C1C480640194099
:1023E0000904FC20800301403143B964B96C184EE4
:1023F000314013401B02FC22920113400B43BB648B
:10240000BB6C3F229343484610401843B8642900F0
:102410002000FFF725FC3B690122934313433B61F6
:10242000002008E0002399460122B0E70122AEE730
:102430000221B6E7022003B0C0BCB946B046F0BDE9
:10244000580200203C410000FFFFFFC0FFFFC0FF1B
:10245000FFC0FFFF012801D900BEFEE78000054B49
:10246000C358002B01D100BEFEE7198634215A540F
:102470007047C0465802002070B582B005000C00BD
:102480008200144BD65800234B618B61CB600B61EB
:1024900022330122CA54002901D100BEFEE70023E5
:1024A000CB728B723000FFF7CBFBA36B0193A17F44
:1024B00001AA2800FFF714FF2423E25C218C2800E6
:1024C000FFF7C8FF336901229343134333610020B0
:1024D00002B070BD3C410000F8B50400012801D9EC
:1024E00000BEFEE78300444A9D58002D01D100BE86
:1024F000FEE78300414A9E582F00103773697369C5
:10250000DB0730D473699B070DD54423EB5C002BAC
:1025100033D03623EB5C002B2AD10323AB85390063
:102520002000FFF7A9FF7369DB042BD473691B0537
:1025300042D473695B0515D53623EB5C002B56D16D
:1025400080239B00AB850123002239003000FFF778
:1025500059FCEB6B002B02D0296C04209847802398
:10256000DB007361F8BD39003000FFF795FCC9E767
:102570002800353001F0B6F9CFE739003000FFF719
:10258000F3FCD0E780235B0173610123AB8500225C
:1025900039003000FFF736FC3623EB5C002B06D108
:1025A000EB6B002BC2D0296C04209847BEE72800B3
:1025B000353001F097F9F3E780231B0173610123A4
:1025C000002239003000FFF71DFC3623EB5C002BA6
:1025D00008D10B4BAB85EB6B002BAAD0296C0420E8
:1025E0009847A6E72800353001F07CF9F1E728008C
:1025F000353001F077F9A3E7580200203C41000094
:102600000302000010B5084B1B68002B01D100BE6F
:10261000FEE71B7B002B03D00020FFF75DFF10BD02
:102620000020FFF7D1FDFAE75802002010B5084B53
:102630005B68002B01D100BEFEE71B7B002B03D0A3
:102640000120FFF749FF10BD0120FFF7BDFDFAE7AC
:10265000580200200902520211430269114301612C
:102660007047FC239B01994206D0436901228A40AE
:102670001343436100207047426913434361F9E704
:10268000F0B5C64600B58000284BC458284BC65844
:102690002D23E35CF26D072515405D1BEDB220E0B4
:1026A000336E244A134033660023A38480BCB846AB
:1026B000F0BD042726E0137898460132E261208DB0
:1026C000C019FDF79DFE89B2218543467366A38C30
:1026D000DB1B9BB2A384A38C9BB2002BE6D0013DF5
:1026E000EDB2002DE2D0237C002B03D0A38C9BB253
:1026F000012BD5D0E189238DCB1A042BD9DC238D76
:10270000CB1A9FB2E269002A0CD00129D3D002294A
:1027100003D008CA9846E261D1E71388984602328E
:10272000E261CCE700239846CFE7C0466002002074
:1027300048410000FFFFEFFFF8B580001B4BC45875
:102740001B4BC758FB6D1B0C07261E401FE00425C2
:1027500028E0DA000800D0400200206A0270226AF5
:102760000132226201339BB29D42F2D8608D401942
:10277000E189FDF745FE89B26185E38C5D1BADB251
:10278000E584E38C9BB2002B0ED0013EF6B2002E06
:102790000AD0796FE589638DEB1A042BD7DC638D42
:1027A000ED1AADB20023DFE7F8BDC046600200209D
:1027B0004841000010B58000094BC458A369094A7C
:1027C0001340A361A369084A1340A3610B212000B1
:1027D000FFF747FF0C212000FFF743FF10BDC04665
:1027E00048410000FFF7FFFFFFEFFFFF70B58300D8
:1027F0001B4A9D581B4A9C5800232B763033EB5CB8
:10280000002B1CD1E36902229343E361E369013A9F
:102810009343E361FFF7CEFFA369134A1340A3611B
:102820000A212000FFF71DFF6B7C002B10D16B6B82
:10283000002B03D0AA6B00212800984770BDA36924
:1028400002229343A361A369013A9343A361E1E7A1
:102850002800313001F046F800236B74E7E7C046EA
:102860006002002048410000FFFBFFFF10B5022876
:1028700001D900BEFEE783000B4A9B58002B01D113
:1028800000BEFEE78200094BD458FFF7AFFF0122DC
:1028900001212000FFF7DEFE012201212000FFF7C9
:1028A000D9FE002010BDC046600200204841000053
:1028B00070B5050083002A4A9E582A4A9C586369CD
:1028C00063691B0502D5F369002B2BD16369DB0417
:1028D00002D5336A002B2FD163699B0703D5F38C94
:1028E0009BB2002B33D16369DB0703D5B38C9BB25A
:1028F000002B30D1B38C9BB2002B1CD1A3690122D9
:102900009343A361A2698023DB001343A361F38C8B
:102910009BB2002B0FD163695B050CD52800FFF734
:1029200065FF08E0FFF7A2FF0B212000FFF799FEEB
:1029300032230122F25470BD2800FFF797FF0C21CB
:102940002000FFF78EFE32230222F254F3E7280024
:10295000FFF7F2FEC7E72800FFF792FECAE7C0467E
:10296000600200204841000070B5022801D900BE75
:10297000FEE783001B4A9C58002C01D100BEFEE7F5
:102980008300194A9D583023E35C012B1AD0EB6970
:1029900002229343EB61EB69013A9343EB61FFF74A
:1029A00009FF00232376012201212800FFF752FEB0
:1029B000012201212800FFF74DFE637C002B0AD184
:1029C000002070BDAB6901229343AB61AB6901325A
:1029D0009343AB61E3E72000313000F083FF002335
:1029E0006374EDE7600200204841000070B5060006
:1029F0008300334A9C58334A9D5863691B0502D5AE
:102A0000EB69002B40D16369DB0402D52B6A002BF4
:102A100040D163699B0703D5EB8C9BB2002B40D15F
:102A20006369DB0703D5AB8C9BB2002B3DD1AB8C2C
:102A30009BB2002B03D1A36901229343A361EB8CCA
:102A40009BB2002B03D1A36902229343A361EB8CB9
:102A50009BB2002B1DD1AB8C9BB2002B19D1A3696B
:102A6000194A1340A361A369184A1340A3616B6B11
:102A7000002B03D0AA6B0021280098476B7C002B09
:102A800017D100232B7604E0FFF76EFF32230122DB
:102A9000EA5470BD3000FFF767FF32230222EA5488
:102AA000F7E73000FFF748FEBAE73000FFF7E8FD30
:102AB000BDE72800313000F015FF00236B74E0E71C
:102AC0004841000060020020FFF7FFFFFFEFFFFF1B
:102AD00010B5022807D88300054A9B585B6ADB07BC
:102AE00002D5FFF7E5FE10BDFFF780FFFBE7C0460C
:102AF0004841000010B50020FFF7EAFF10BD10B5F7
:102B00000120FFF7E5FF10BD10B50220FFF7E0FF41
:102B100010BD0000F0B5C64600B586B0040001281F
:102B200001D900BEFEE7002901D100BEFEE7830007
:102B300021481D5821481E58337F002B3AD1002AC6
:102B400001D100BEFEE7F1600023984673610120C9
:102B50003077023373872B001C3305933627F35DE0
:102B60009C4603900292019043460093059B0A0005
:102B700001216046FEF78EFEF05D22001049FEF74F
:102B80007FFDF05DFEF7E0FEAB690E4A1A40802340
:102B90001B031343AB61AB691B03FCD52B690A4ACA
:102BA0001A4080231B0413432B61002006B080BC15
:102BB000B846F0BD0220F9E75C4100006C0200203D
:102BC000412E0000FFFFF7FFFFFF7FFF054B036172
:102BD000054B4361002383610362F022920282620B
:102BE000C36270470400000F00C01FC00B00002A22
:102BF00000D04B1C022B0AD0826910218A431B0192
:102C0000134383610369054A1340036170470269F6
:102C100080239B0513430361F8E7C046FFFFFFDFF6
:102C20000A00836902218B43510849000B438361E9
:102C30008169012399431A40114381617047000063
:102C400030B50B0C0904090C032B0FD0072B1AD03D
:102C5000012B00D030BD046901258D40AC43002A12
:102C600000D100238B4023430361F3E783690124F0
:102C70008C40A343002A04D001228A40134383617D
:102C8000E8E70022F9E7836A01248C40A343054C5E
:102C90002340002A04D001228A4013438362D9E7EB
:102CA0000022F9E7FFFFFCFF10B5012801D900BEA3
:102CB000FEE7002901D100BEFEE78300184818583E
:102CC000184C1B591C7F002C28D1002A01D100BEB2
:102CD000FEE720241C5D002C03D0D40706D4012479
:102CE00000E00124002C03D100BEFEE70024F9E738
:102CF000D9605A6101221A7701325A8783690A4AD8
:102D00001A4080231B031343836183691B03FCD593
:102D100001220649FFF794FF002000E0022010BDC9
:102D20005C4100006C020020FFFFF7FF170003006A
:102D300070B5012801D900BEFEE78000134BC458CE
:102D4000134BC5586B8F9BB2022B13D100236B879B
:102D5000002210492000FFF773FFA3690E4A1340B9
:102D6000A361A3691B03FCD400232B77AB7F002B4B
:102D700006D170BD002209492000FFF761FFE7E797
:102D80002800383000F0AEFDF3E7C0465C4100009B
:102D90006C02002016000300FFFFF7FF170003007E
:102DA00070B58000144BC458144BC5582369144A9D
:102DB000134023613623E85CFEF7E4FD002211494D
:102DC0002000FFF73DFFA3690F4A1340A361A369E9
:102DD0001B03FCD4AB7F002B06D16B8F9BB2022B65
:102DE00007D000232B7770BD2800383000F07AFD23
:102DF000F3E700236B87F4E75C4100006C020020DE
:102E0000FFFF7FFF16000300FFFFF7FF10B58200F2
:102E10000A4BD4586369002B0CD13433E35C012B8B
:102E200009D0FFF7BDFFE36A002B03D0226B02211C
:102E30002000984710BDFFF77BFFF4E76C020020ED
:102E400070B58300184A9C58184A9D58012918D01B
:102E5000E36A002B03D0226B0121200098476369AD
:102E6000002B1AD03625605DE168FEF7EDFD616943
:102E7000605DFEF721FE00236361605DFEF764FD87
:102E800070BD01236387FFF78BFFE36A002BF7D048
:102E9000226B032120009847F2E701220449280011
:102EA000FFF7CEFEECE7C0466C0200205C4100005C
:102EB000160003000B0C032B0CD0072B11D0012B99
:102EC00001D00020704703690904090CCB400120A0
:102ED0001840F7E783690904090CCB40012018402A
:102EE000F0E7836A0904090CCB4001201840E9E7A8
:102EF00010B50B0A01221A408369044C2340920743
:102F000013438361C9B2017710BDC046FFFFFFBF05
:102F100030B50C0A012214404B0A1A408369064D51
:102F20002B40A40723435B005B08D2071343836154
:102F3000C9B2017730BDC046FFFFFFBF10B58000AA
:102F40000D4BC3580D4A8058DA6820215B5C002B7A
:102F500002D11378037710BD012B06D01378517876
:102F600009021943FFF7D4FFF5E7137851780902F6
:102F70001943FFF7BDFFEEE76C0200205C41000043
:102F800070B58300194A9C58194A9D586369002BF3
:102F900000D170BDFFF7D2FF2023E35C002B1DD1D1
:102FA000E3680133E3606369013B63616369002B9C
:102FB000EFD1E36A002B03D0226B01212000984758
:102FC0006369002BE5D100220A492800FFF738FE8B
:102FD000012209492800FFF733FEDAE7E3680233EC
:102FE000E3606369023B6361E0E7C0466C02002076
:102FF0005C4100001700030016000300002901D106
:1030000000BEFEE78369DB0F1B020B80C269D2B2F0
:1030100013430B807047002901D100BEFEE783698E
:103020009B0F5B028022920013400B808269D20FBB
:10303000120213430B80C269D2B213430B80704754
:1030400010B582B08000154BC358154A80581C69D2
:1030500020229B5C002B06D1002C01D100BEFEE794
:10306000C36923700CE0012B0CD06B46991DFFF750
:10307000D2FF6B469B7923706B46DB881B0A63701B
:1030800002B010BD6B46991DFFF7B8FF6B469B79E8
:1030900023706B46DB881B0A6370F1E76C0200202B
:1030A0005C4100000B0C042B0CD0072B11D0022B21
:1030B00001D00020704743690904090CCB4001206E
:1030C0001840F7E7C3690904090CCB4001201840F8
:1030D000F0E7836A0904090CCB4001201840E9E7B6
:1030E00070B504000D000A000949FFF7A9FD2A0088
:1030F00008492000FFF7A4FD2A0007492000FFF738
:103100009FFD2A0005492000FFF79AFD70BDC046CB
:103110001B000300180003001A000300190003003D
:1031200070B5012801D900BEFEE78000144BC558D8
:10313000144BC458A369144A1340A361A3695B03E9
:10314000FCD400212000FFF7CBFFE36900220F49E8
:103150002000FFF775FDEB7F002B06D100236B7776
:10316000AB8F9BB2022B07D070BD2800373000F028
:10317000B9FB0023EB77F1E70023AB87F4E7C04608
:103180006C0200205C410000FFFFFBFF1500030004
:1031900070B505008200174BD458FFF751FF20236C
:1031A000E35C002B13D1236901332361A369013B45
:1031B000A361A369002B06D1636A002B03D0A26A26
:1031C000002120009847A369002B07D070BD236918
:1031D00002332361A369023BA361EAE72800FFF7FA
:1031E0009FFF636A002BF1D0A26A0221200098475A
:1031F000ECE7C0466C02002070B58000154BC45847
:10320000154BC558A369154A1340A361A3695B0315
:10321000FCD400212000FFF763FF2369104A13400C
:103220002361E3693523E85CFEF7ACFBEB7F002B01
:1032300006D1AB8F9BB2022B09D000236B7770BDF8
:103240002800373000F04EFB0023EB77F1E7002336
:10325000AB87F2E75C4100006C020020FFFFFBFF40
:10326000FFFFDFFF70B506008300444A9C58444AC4
:103270009D5844492800FFF715FF002816D0424BFF
:10328000A3873423E35C012B68D03000FFF7B4FF41
:10329000636A002B03D0A26A0321200098476B6960
:1032A0003A4A1A40F0231B0313436B613849280044
:1032B000FFF7F8FE002816D0364BA3873423E35CD3
:1032C000012B4FD03000FFF797FF636A002B03D02C
:1032D000A26A0321200098476B692C4A1A40F02308
:1032E0001B0313436B612C492800FFF7DBFE00280A
:1032F00016D02A4BA3873423E35C012B36D0300051
:10330000FFF77AFF636A002B03D0A26A0321200033
:1033100098476B691D4A1A40F0231B0313436B61E6
:103320001F492800FFF7BEFE002816D01D4BA387BB
:103330003423E35C012B1DD03000FFF75DFF636A8F
:10334000002B03D0A26A0321200098476B690F4A23
:103350001A40F0231B0313436B6170BD3000FFF76D
:10336000DFFE95E73000FFF7DBFEAEE73000FFF74A
:10337000D7FEC7E73000FFF7D3FEE0E76C0200207E
:103380005C4100001300020001060000FF3FE03F27
:1033900011000200030600001000020004060000F5
:1033A0001200020005060000012801D900BEFEE758
:1033B0008000034BC358586A59629A627047C046EE
:1033C0006C02002070B504001D00012801D900BE68
:1033D000FEE7002901D100BEFEE7830017481E5812
:1033E0000123B3773333F35C012B01D900BEFEE731
:1033F000012B07D02000FFF78DFB002806D0708F2F
:1034000080B270BD2000FFF74FFCF6E73000383087
:10341000290000F00FFA0328F1D10023B37703331A
:1034200073873133F35C012B03D02000FFF7B8FC26
:10343000E5E72000FFF77CFCE1E7C0466C020020D6
:10344000F0B5D6464F464646C0B586B003000C00E0
:10345000012801D900BEFEE74B4A105C9B004B4A95
:103460009A5892464A4A9B58002B07D01A7F002A46
:1034700000D080E05B7F002B00D083E005A9FDF742
:1034800066FF059E002E01D100BEFEE7A1008E4220
:1034900001D200BEFEE73000FCF742FE83B2039388
:1034A0000104890B3000FCF73BFE84420CD2071B61
:1034B00021003000FCF734FE8146202824D804285F
:1034C00024D80423029328E0271AF1E7201AB842EF
:1034D00004D80700019B0293434603930135ADB224
:1034E00001954D4516D8210069433000FCF718FEC0
:1034F00083B298460104090C69433000FCF710FEC2
:103500008442E3D2001BE2E720239946042302937E
:103510000525E5E7029B072B06D853461A69802349
:103520009B02134352461361029F013F1F2F01D993
:1035300000BEFEE753461B69164A13403F06F822B9
:10354000520517401F4353461F61039B5A1E002319
:10355000114991425B41002B01D100BEFEE7534669
:103560001B695B0B5A03039BDB04DB0C13435246C2
:103570001361002000E0022006B0E0BCBA46B1466C
:10358000A846F0BD0220F7E7544100005C4100006E
:103590006C020020FFFFFFE0FE1F0000F0B583B0CB
:1035A00006000C001500012801D900BEFEE7002925
:1035B00001D100BEFEE7002A01D100BEFEE7830074
:1035C000414A9F58414B185C01A9FDF7C0FE019B81
:1035D000002B01D100BEFEE7B3003D4A9B58002BF3
:1035E00001D000BEFEE7EB79002B04D1AB79002BB4
:1035F00006D1013300E00123002B03D100BEFEE71A
:103600000023F9E7AB79022B04D00123002B51D121
:1036100000BEFEE72B79002B01D10133F6E7002332
:10362000F4E7E2180021117001333F2BF9D9B30000
:10363000274A9C50EA793423E254AA79143BE25495
:103640002A7A1533E2546A7A0133E2543800FFF7DC
:10365000BDFA29683000FFF7F3FE2B79002B2BD041
:10366000A97901223800FFF7C1FA29793800FFF75C
:10367000D7FA6A793B6917490B40520313433B6100
:1036800000236387A38720003730002100F040F932
:10369000050020003830002100F03AF9012D06D055
:1036A00001280FD00C4B9857FEF780FA0025280010
:1036B00003B0F0BD0023B8E7A97900223800FFF776
:1036C00095FAD2E70500F2E75C41000054410000A2
:1036D0006C020020FFDFFFFF58410000012801D9E4
:1036E00000BEFEE7002901D100BEFEE7002A01D19D
:1036F00000BEFEE78000034BC35819619A610020A9
:103700007047C0466C02002070B50400012801D942
:1037100000BEFEE783001A4A9D58FFF7A3FD194932
:103720002800FFF7C7FB00280CD117492800FFF736
:10373000C1FB002810D115492800FFF7BBFB00286A
:1037400014D170BD12492800FFF7ACFC0028ECD062
:103750002000FFF71DFDE8E70E492800FFF7A2FC57
:103760000028E8D02000FFF70BFCE4E70A49280016
:10377000FFF798FC0028E4D02000FFF747FBE0E7C4
:103780005C41000015000300170003001600030051
:1037900015000200170002001600020010B50020FC
:1037A000FFF7B2FF10BD10B50120FFF7ADFF10BD50
:1037B000024A1368013313607047C0467402002048
:1037C00030B583B004000023019301A90020FDF768
:1037D000BEFD002801D000BEFEE7019B002B01D1F9
:1037E00000BEFEE7104D00232B60FA2189000198EE
:1037F000FCF796FC03021B0A6B600C4B1B78002B3A
:1038000003D00023AB60094A1370074B07221A60EC
:10381000074B1A681B689B1A02E0054B1B689B1A32
:10382000A342FAD303B030BD10E000E0E100002075
:103830007402002070B582B004000D00002801D190
:1038400000BEFEE70023019301A90020FDF77FFDE4
:10385000002801D000BEFEE7019B002B01D100BE75
:10386000FEE71D4E00233360FA2189000198FCF722
:1038700057FC03021B0A7360184B1B78002B03D004
:103880000023B360154A1370134B07221A60002DF2
:103890000DD12378002B1CD0FEF7CAF92378013B09
:1038A000DBB22370FEF7B6F9280002B070BD0C4BF6
:1038B0001A682378002B08D1094B1B689B1A691CD6
:1038C000F7D09D42F5D2032500E00025002DEBD175
:1038D000E2E70325E8E7C04610E000E0E100002051
:1038E0007402002010B5041E01D100BEFEE7FEF7F1
:1038F0009FF92378DBB2FF2B08D023780133DBB2AA
:1039000023700024FEF786F9200010BD0124F9E79A
:1039100070B504000D00002801D100BEFEE7FEF7DF
:1039200087F92570FEF776F9002070BD70B5036841
:10393000002B01D100BEFEE7827A012A04D00121CA
:10394000002908D100BEFEE70169002901D001214C
:10395000F6E70021F4E741680F2901D900BEFEE730
:103960008C00E558047A012C3CD0022C3FD0002C6E
:1039700001D000BEFEE70234A5434024A543467AA9
:10398000B60134402C432E4D2C401202E025ED00B0
:103990002A4022432B4C2240C47AE407240C2243C1
:1039A000294C1440027B1204F0252D032A402243A7
:1039B000447B002C04D0254C224080246404224304
:1039C0008900CA500168C0254B5944680122A240B1
:1039D00093431A00837BA34013434B51837A012BFB
:1039E00008D070BD0124A54301342543C5E7032455
:1039F0002543C2E701694B69027D002A03D0012AF1
:103A00000CD000BEFEE701244568AC40A343012A68
:103A100009D002691B041B0C5361E2E701244568CD
:103A2000AC402343F3E74668447D0A680125B5406E
:103A3000AA43B44022431204120C0A60E9E7C046CC
:103A4000FFF8FFFFFF7FFFFFFFFFF0FFFFFFFFFE1D
:103A5000002308E09A0002210A4811500A48115038
:103A60000A48115001330F2B0AD8094ADA40D2070D
:103A7000F0D59A0002210748115007481150E9E794
:103A80007047C04600A0044000C0044000D004407D
:103A9000EFFF00000090044000B0044070B5050046
:103AA0000E00002406E060000019C0003018FFF787
:103AB0003DFF0134AC42F6D3002070BD4B781F2B84
:103AC00001D900BEFEE70A7801231340C4228350C7
:103AD0004A781F231340C822835070470904090CF9
:103AE000416070470904090C81607047024B1B68F4
:103AF0001B6A01201840704738410000024B1B68C8
:103B00001A6A01221A62704738410000034B1B6891
:103B10001B6A5B08012018407047C046384100000E
:103B2000024B1B681A6A02221A6270473841000071
:103B3000034B1B681B6A9B08012018407047C04656
:103B400038410000024B1B681A6A04221A6270474F
:103B500038410000034B1B681B6ADB08012018403A
:103B60007047C04638410000024B1B681A6A0822A1
:103B70001A62704738410000034B1B681B6A1B091F
:103B8000012018407047C04638410000024B1B68B6
:103B9000186C0002000A704738410000034B1B6894
:103BA0009B6B1B0A012018407047C046384100003B
:103BB000024B1B689B6B3F20184070473841000048
:103BC00010B5214B1C68002C01D100BEFEE7FFF7A9
:103BD000AFFF00280ED1FFF799FF002820D1FFF793
:103BE00085FF002821D1FFF7C7FF002801D001235E
:103BF000237310BD0123A373FFF7A4FFFFF7C6FFD4
:103C00006061FFF7CBFF2076FFF7D2FF6076FFF70A
:103C1000A1FF0028DFD001236373FFF7A5FFDAE7D8
:103C20000123E373FFF77CFFD9E701232374FFF738
:103C300065FFFFF7ABFF6061FFF7B0FF2076FFF78E
:103C4000B7FF6076CFE7C0467802002010B5034B7F
:103C50001B6818680121FDF765FF10BD7C0200207C
:103C6000F0B5C64600B5714B1E68002E01D100BEEE
:103C7000FEE737683800FDF751FF04000100380007
:103C8000FDF74EFFE30703D501239C435522B354B0
:103C9000A30730D4E30607D510239C434A33002200
:103CA000F25401330132F254A30607D520239C437A
:103CB0003A330022F25402330132F254630607D53C
:103CC00040239C431A330022F25403330132F2544E
:103CD000230669D4E30508D5554B1C405B33FF33FD
:103CE0000022F25406330132F254A30500D57DE0E0
:103CF00080BCB846F0BD02239C43350070353800C7
:103D0000FDF71CFF804600280AD06123F0540B3BCE
:103D1000F35C002B09D057230122F254083504E04C
:103D200058230122F2543500783556230122F254EB
:103D300000213800FDF705FF287001213800FDF74C
:103D400000FF687002213800FDF7FBFEA870032118
:103D50003800FDF7F6FEE87004213800FDF7F1FEAB
:103D6000287105213800FDF7ECFE68710621380046
:103D7000FDF7E7FEA87107213800FDF7E2FEE871C4
:103D80003800FDF7D6FE4346002B0AD0B023F35C83
:103D9000DBB2FF2B00D17DE73000B030FFF7A2FD92
:103DA00078E7FFF753FFF1E780239C433800FDF7E6
:103DB000CEFE002800D08DE73800FDF7D3FE0028A6
:103DC00000D187E73800FDF7D2FE02006223F054ED
:103DD000002800D17EE7043B0121F1547169B06BEA
:103DE00000F078F83800FDF7B7FE73E73800FDF70C
:103DF000C2FE002800D07BE73800FDF7C9FE00288E
:103E000000D175E73800FDF7CBFE02006323F054C4
:103E1000002800D16CE7033B0121F154B06C3169FB
:103E200000F058F83800FDF7AEFE61E77C02002094
:103E3000FFFEFFFF044B054A5A605A68044A1A60A5
:103E4000044A9A607047C0460020054020C528D922
:103E500020210000FFFF0000134B144A03E01978F3
:103E600011700132013312498B42F8D1114B124AC1
:103E700003E0197811700132013310498B42F8D1F7
:103E80000F4B02E000221A7001330E4A9342F9D11F
:103E90000D4B0E4A03E019781170013301320C49C1
:103EA0008B42F8D17047C0466C41000000000020F2
:103EB0005042000050420000E40000205042000048
:103EC000E400002080020020504200005042000028
:103ED00050420000002310B59A4200D110BDCC5CC6
:103EE000C4540133F8E70000011F000000C20100C4
:103EF00000000001010000006770696F2F706F7291
:103F000074207465737420636F64653A20737769F5
:103F10007463682066756E6374696F6E20627920C1
:103F20007074653428746F756368290A0000000096
:103F30006C656420626C696E6B790A0073746F70D3
:103F4000206C656420626C696E6B790A0000000069
:103F50008A0F0000CA0F0000900F0000CA0F000077
:103F60009A0F0000CA0F0000A40F0000AE0F00005F
:103F7000CA0F0000B60F0000840F0000CA0F000037
:103F8000BE0F0000CA0F0000C40F0000F80F0000B1
:103F90000A10000016100000221000002C10000073
:103FA0003610000040100000B01000004A10000061
:103FB000521000005C1000006A1000007810000031
:103FC0008610000094100000A2100000D81000001D
:103FD000DE100000E4100000EA1000000C110000E8
:103FE00020110000000000000000000000000000A0
:103FF00000000000000000000000000000000000C1
:1040000000000000000000000000000000000000B0
:1040100000000000000000000000000000000000A0
:104020000000000000000000000000000000000090
:104030000000000000000000000000000000000080
:104040000000000000000000000000000000000070
:104050000000000038003900000000000000660089
:10406000670000002C002D002E0040006A006B004D
:104070007A007B007C0000000000000000000000CF
:104080000000000000000000000000000000000030
:104090000000000000000000000000000000000020
:1040A0000000000000000000000000000000000010
:1040B000000000004848000000303000303030364A
:1040C00030304040400000000000000000000000D0
:1040D0000087930380C3C9010087930380C3C9018C
:1040E0000087930380C3C9010000000000000000A6
:1040F00000000000000000000087930380C3C90196
:10410000000000000000000000093D0040420F00D8
:1041100000093D0040420F0000093D0040420F00F1
:10412000000000000000000000000000000000008F
:1041300000093D0040420F0000F0024000600640D0
:10414000007006402D2C090800C0024000D002403B
:1041500000E00240444500001F1E000000A0064091
:0C41600000B00640F8B5C046F8B5C046F7
:10416C00010101010101000000127A0001010100AE
:10417C00000000000000000000000000030101002E
:10418C000303010200000000010000000101000017
:10419C00010300010100000000000000000000000D
:1041AC000000000000000000000000000000000003
:1041BC000D000000580000204001030000410103E5
:1041CC00000042010300004401020000450102000E
:1041DC00003D010300003E0103000043010200000A
:1041EC0038010200003901020000460100000147BD
:1041FC000103000048010300000000000000002043
:10420C00380102000039010200003D010200003EAD
:10421C0001020000400102000041010200004201C5
:10422C0002000043010200004401020000450102AB
:10423C000000460100000147010300004801030093
:04424C00000100006D
:04000003000000C138
:00000001FF
