:1000000000000120C10000001D010000CD02000021
:1000100000000000000000000000000000000000E0
:100020000000000000000000000000001D010000B2
:1000300000000000000000001D010000BD2E0000B7
:10004000A91D0000B31D0000BD1D0000C71D00005C
:1000500000000000000000000000000000000000A0
:10006000D10200001D01000000000000000000009F
:100070001D0100001D0100001D0100001D01000008
:100080001D0100001D0100001D0100001D010000F8
:100090001D010000000000001D0100001D01000006
:1000A0001D0100001D0100001D0100001D010000D8
:1000B0001D0100001D010000B32E0000A92E00004C
:1000C00072B610490F4A0F4B0E4C0E4D0D4E0D4F90
:1000D000B846B946BA46BB46BC460B490B4A521A0B
:1000E000013A05DD0020042308601944043AFBDAD4
:1000F00007488546074880470748804762B600F0B2
:1001000075F9FEE70000000000000020000001205B
:10011000000001205D31000081310000D0E7C046C1
:1001200002B4714649084900095C49008E4402BC8A
:100130007047C046002243088B4274D303098B42A8
:100140005FD3030A8B4244D3030B8B4228D3030CA7
:100150008B420DD3FF22090212BA030C8B4202D349
:100160001212090265D0030B8B4219D300E0090A71
:10017000C30B8B4201D3CB03C01A5241830B8B427A
:1001800001D38B03C01A5241430B8B4201D34B0363
:10019000C01A5241030B8B4201D30B03C01A5241C8
:1001A000C30A8B4201D3CB02C01A5241830A8B424D
:1001B00001D38B02C01A5241430A8B4201D34B0236
:1001C000C01A5241030A8B4201D30B02C01A52419A
:1001D000CDD2C3098B4201D3CB01C01A524183094E
:1001E0008B4201D38B01C01A524143098B4201D388
:1001F0004B01C01A524103098B4201D30B01C01AB3
:100200005241C3088B4201D3CB00C01A524183082C
:100210008B4201D38B00C01A524143088B4201D359
:100220004B00C01A5241411A00D2014652411046B9
:100230007047FFE701B5002000F006F802BDC04698
:100240000029F7D076E770477047C04602780B78F0
:10025000002A03D0013001319A42F7D0D01A7047FA
:100260000023C25C0133002AFBD1581E70470000F6
:1002700003B47146490840004900095E49008E44B4
:1002800003BC704703008218934200D17047197075
:100290000133F9E710B5002907D10A4B19780A4B49
:1002A0005B5C0A2B01D0FE2900D110BD0131C9B21F
:1002B000044B1970044BC9180122002002F094FD70
:1002C000F3E7C0465C0200205C010020FEE700006E
:1002D00010B50D4A136880210B4313600B4B1A684D
:1002E00001321A601A680A4B9A4203D9094B1B78EB
:1002F000002B00D110BD054B00221A6009020648F0
:1003000002F028FFF6E7C046000004406402002027
:100310001F4E00006802002000F10F4010B50400DD
:10032000FFF79EFF0200C8232100002002F090FB8F
:1003300010BD000000B593B0482200216846FFF7C9
:10034000A1FF0F4B0093022269468A720693012394
:1003500007932221684642540A4A0C920F220D92BA
:100360002B328354023209218154074A10924422CD
:1003700069468354032002F0DDFE13B000BDC04681
:1003800000A0044000D0044000F10F4030B585B01B
:1003900001AA074B110031CB31C10649002002F000
:1003A00083FC00220449002002F044FB05B030BD6C
:1003B000B4540000A00200209502000030B585B0C2
:1003C0006946084B0C330A0031CB31C21B681360FD
:1003D0000122002001F0BCFD034B00221A6005B091
:1003E00030BDC046B45400006402002030B583B074
:1003F000002301933B4A137002F076FE3A4A8023B1
:100400005B0411680B4313600023384A012138480C
:1004100001F00EF90021002001F01EF9FFF78AFF1C
:10042000FFF7CCFFFFF7B2FF3248FFF777FF0AE094
:100430003148FFF773FF00F01FFA3048FFF76EFFF7
:100440002F48FFF76BFF2F48FFF768FF2E4C200067
:10045000FFF706FF020000212000FFF713FF2B4BE0
:1004600000221A7001322100002002F02FFB01A9A6
:10047000002002F049FB0228F9D001A9002002F077
:1004800043FB002827D1204C214D22002149280080
:1004900003F050FF2800FFF741FF21001E48FFF73F
:1004A000D5FE0028C4D018491C48FFF7CFFE00280D
:1004B000C6D10C4B1B78002B06D11948FFF72EFF35
:1004C000084B01221A70BBE71648FFF727FF054BC0
:1004D00000221A70B4E71448FFF720FF134B186886
:1004E00003B030BD680200200840064058010020DB
:1004F0000001002054590000D4590000F4590000B4
:10050000345A0000905900005C0100205C02002079
:100510006C020020C8590000D0590000105A000099
:10052000145A0000385A0000B05900006002002040
:10053000F0B5CE46474680B593B08146884603F075
:1005400077F9051E22D000270D244F4521D23B010B
:100550004246D618D15C280003F02CFA041E18D1AC
:100560007268B168280003F073F9041E11D101A963
:10057000280003F075F9041E0BD1F068019A02A956
:1005800003F0A0FD002803D10137DEE70D2403E0CE
:100590000824280003F058F9200013B0C0BCB94665
:1005A000B046F0BDF0B5C64600B592B0070088462B
:1005B00000260D25BE4213D23401444423786268DC
:1005C000A16801A803F053F9051E09D1E068019A5A
:1005D00002A903F077FD002801D10136EAE70825DA
:1005E000280012B080BCB846F0BD000010B5034B27
:1005F00018680349FFF79CFF10BDC04608010020A2
:10060000E860000010B5034B18680349FFF7CAFF04
:1006100010BDC04608010020E8600000F0B5D646D5
:100620004F464646C0B594B02F4B1B68984603F022
:10063000FFF88146002802D000260D2430E00D246A
:100640004AE00C239A463B00AA685146052003F075
:10065000C7FB041E3DD12978009753460522484622
:1006600003F0B2F9041E34D1EA682969484603F060
:10067000B6F9041E2DD103A9484603F0B8F9041EAB
:1006800027D13A005146052003F0F2FB041E20D189
:100690006869039A04A903F015FD002818D10136F2
:1006A000464516D27500AD19ED00104BED186F6878
:1006B00080239B009F42F2D8013BFF3B9F42C0D862
:1006C000802F02D9F83B9A46BDE700239A46BAE745
:1006D0000834484603F0B8F8200014B0E0BCBA462D
:1006E000B146A846F0BDC046040100208C5D000064
:1006F000F0B5CE46474680B597B0254B1B68984667
:1007000000270D2525E00C2399463300A2684946B1
:10071000052003F065FB051E34D121692378E268CA
:100720000296484601900520009005A803F066F95E
:10073000051E27D132004946052003F099FB051E0E
:1007400020D16069059A06A903F0BCFC002818D1E5
:100750000137474516D27C00E419E4000D4BE4183C
:10076000666880239B009E42F2D8013BFF3B9E427D
:10077000C9D8802E02D9F83B9946C6E7002399468E
:10078000C3E70835280017B0C0BCB946B046F0BD75
:10079000040100208C5D0000F0B5C64600B594B0A1
:1007A0001D4B1B68984603F043F8061E28D000270F
:1007B0000D24474527D27D00ED19ED00174BED18AC
:1007C000AB6829786A6800920022300003F0FCF8D8
:1007D000041E18D1EA682969300003F000F9041EEC
:1007E00011D103A9300003F002F9041E0BD168698E
:1007F000039A04A903F066FC002803D10137D8E767
:100800000D2403E00824300003F01EF8200014B08B
:1008100080BCB846F0BDC046040100208C5D0000DD
:10082000F0B597B0124B1F6800260D25BE421CD2B2
:100830007400A419E4000F4BE4182169A068237820
:10084000E2686568029501900020009005A803F019
:10085000D5F8051E09D16069059A06A903F032FC96
:10086000002801D10136E1E70825280017B0F0BDC6
:10087000040100208C5D000010B502F0E1FC0028AE
:1008800000D010BDFFF7B2FE002817D0FFF7BAFE68
:10089000002817D0FFF7C2FE002817D0FFF728FF67
:1008A000002817D0FFF778FF002817D0FFF7B8FF10
:1008B0000028E6D10B48FFF731FDE2E70A48FFF7D1
:1008C0002DFDE3E70948FFF729FDE3E70848FFF7B7
:1008D00025FDE3E70748FFF721FDE3E70648FFF7BB
:1008E0001DFDE3E7F05A00005C5A0000785A000052
:1008F000905A0000B05A0000CC5A0000F0B5002811
:1009000001D100BEFEE7002834D04368002B31D06F
:10091000002208E000210B436100174C095B8900AD
:10092000164C0B5101320368934223D993009B1854
:100930004168C95C4900104C095B104D89004C5955
:100940000F4E34404C514468E118E45C4E788B788B
:100950000F79CD781B06E021C9040B40E90008257A
:100960000D402B43072139400B43002ED2D080216C
:10097000C905D0E7F0BDC0463C620000005006400B
:10098000FFFFFFBF70B5002801D100BEFEE7424A5D
:1009900088215358FF24A343C33C2343535050346E
:1009A00013591B0E1B063D490B4313510378002BB3
:1009B00006D10379002B21D1037B002B4AD170BDD6
:1009C00045788178C278344B5C68354E34405C6041
:1009D0005B68344C2340002D0ED080242401234337
:1009E0000C01FF2121400B431202E021C9000A4003
:1009F0001343294A5360DCE70024F0E7057AC47901
:100A000081794279244B1B693F26B343002D10D0D6
:100A100001252B43002C0ED0022423438C000C21F3
:100A200021400B43110130220A4013431A4A13613B
:100A3000C2E70025EDE70024EFE79A1C9200821838
:100A400094689900184A8C500133DBB2022BF4D918
:100A500000230CE00023F9E7144C22400906C024CF
:100A6000A40421400A430C49CA600133DBB2012BC4
:100A7000A5D89A1D920082185168074AD268002BA7
:100A8000EAD0012BEFD10A4C22408906C02424056C
:100A900021400A43E7E7C04600800440FFFF0A0008
:100AA000FFF7FFFF0FF0FFFFE4020020FFFFFFFC56
:100AB000FFFFFFF330B50123837003704370437170
:100AC000C370037103760022426183731C49816005
:100AD0000373437343770321017728240355083CAC
:100AE0000155C2778377033402250555013C035530
:100AF000013C0155134941650D2101651F314354E6
:100B000001314254013142540131425401314354C4
:100B10000431435401394354013942540139425498
:100B200007314354C2630264426406E01300103389
:100B30009B00C318002199600132012AF6D930BD0B
:100B400000127A000C010020222816D9322816D073
:100B5000352816D0372816D03A2816D0492816D06E
:100B600040000C4BC35A9B000B4A9B585B0001D5BD
:100B7000002003E08020400000E0042070470420B3
:100B8000FCE70420FAE70420F8E70420F6E7042055
:100B9000F4E7C0463C62000000500640084B5A692A
:100BA000FF231340042B07D0802B07D0012B01D04B
:100BB000042070470120FCE70220FAE70320F8E751
:100BC00000E00740014B18687047C046F002002063
:100BD00010B582B000291AD0002824D008794A79AB
:100BE000072303401202E020C000024013431048D4
:100BF0008222520083500A680E4B1A600E4CFFF797
:100C0000E1FF00280BD1002C09D0013CF7E70123BC
:100C10006A4613715371094B00936946DCE7002C57
:100C200004D0002000E0002002B010BD0320FBE74C
:100C300000400640F002002088E7300000127A00F1
:100C40000048704700127A0010B582B0002917D012
:100C500000281ED008784A78072303401202E021BA
:100C6000C9000A4013430D49812292008B5064242D
:100C7000FFF7E6FF002808D1002C06D0013CF7E77B
:100C800001A901230B704B70E2E7002C04D0002077
:100C900000E0002002B010BD0320FBE7004006404A
:100CA000004870470087930310B582B0002917D021
:100CB00000281ED008784A78072303401202E0215A
:100CC000C9000A4013430D49C12292008B5064248D
:100CD000FFF7E6FF002808D1002C06D0013CF7E71B
:100CE00001A901230B704B70E2E7002C04D0002017
:100CF00000E0002002B010BD0320FBE700400640EA
:100D000010B5022808D0032809D0012801D00020FE
:100D100010BDFFF757FFFBE7FFF792FFF8E7FFF77C
:100D2000BFFFF5E7F8B5CE46474680B504004B78DF
:100D300098465E1C0F787B1C73439946002801D1AE
:100D400000BEFEE78D782800FFF7DAFF0009012CCE
:100D500003D0022C22D000BEFEE7EB00274A9B58AE
:100D60001B095E4386423ED3EA00244B9B185B6816
:100D70001B094A465A4382423AD32D06F0231B05EB
:100D80001D4043461B04F022120313402B430F2245
:100D900017401F431A4B5F61002025E0022D01D050
:100DA00000BEFEE7EB00174A9B581B095E438642D4
:100DB00020D3EA00134B9B185B681B094A465A4331
:100DC000824219D32D06F0231B051D4043461B0408
:100DD000F022120313402B430F2217403B43084AD3
:100DE0009361002000E00120C0BCB946B046F8BDC8
:100DF0000120F9E70120F7E70120F5E72063000073
:100E0000004006405863000010B5041E01D100BE2A
:100E1000FEE78378FF2B01D100BEFEE7FFF7BEFEA1
:100E2000042801D100BEFEE72100FFF77BFF002868
:100E30000DD10A210139074B1A69120E0F231340F5
:100E4000A2789A4201D00029F4D1002900D010BD27
:100E50000320FCE70040064070B582B005008078B2
:100E60002900FFF7F1FE041E07D0FFF797FE0128C7
:100E70000AD002281DD000BEFEE729000831A87B59
:100E8000FFF7A6FE0400F0E72E001E36002C0DD161
:100E9000B378032B36D1AB7B002B0DD10124AB787B
:100EA000002B01D0012C11D0002C1AD0200002B050
:100EB00070BD2E002136E9E701A8012383700022CE
:100EC00042700370FFF7A0FF0400E8E701A80223C7
:100ED00083700023437001330370FFF795FF040014
:100EE000E2E7E91C6879FFF7DFFE041EDED1B37884
:100EF00001A883707378437033780370FFF784FF21
:100F00000400D3E701A883707378437033780370CB
:100F1000FFF77AFF041EC9D1E91C6879FFF7C4FE08
:100F20000400C3E700B583B00E4B1A69120E0F23FD
:100F30001340032B13D0FFF7B3FE002805D1002187
:100F40000130FFF7B1FE002807D101A80323837009
:100F5000002242700370FFF757FF03B000BD00206E
:100F6000FBE7C0460040064070B5041E01D100BE3C
:100F7000FEE7002831D0FFF7D5FF002829D0002850
:100F80002CD1174B00221A60237E002B02D0144B69
:100F900062691A60637F002B0AD0227F11490B6AB5
:100FA000114D2B401206F0252D052A4013430B62EC
:100FB0002823E35C002B11D021001E310120FFF714
:100FC000B1FE00280AD1210021310230FFF7AAFE2C
:100FD00004E02000FFF740FFD1E7002070BDC046CD
:100FE000E002002000400640FFFFFFF010B50400C3
:100FF000022801D900BEFEE7154B1A69120E0F2315
:101000001340022B1BD0032B1CD0012B14D000202B
:101010000F4B1B691B0C0F2119400131FFF78AF898
:10102000012C08D9022C10D1094B1B690F21194042
:101030000131FFF77FF810BDFFF7C4FDE8E7FFF7C8
:10104000FFFDE5E7FFF72CFEE2E70020F3E7C046EF
:101050000040064010B50F4B1A6A120E0F231340C2
:10106000022B14D008D8002B0DD0012B02D1FFF792
:10107000A9FD07E0002005E0032B02D1FFF710FED9
:1010800000E0002010BD0220FFF7B0FFFAE7FFF7F5
:10109000D7FDF7E70040064010B5002903D001292D
:1010A0002DD000BEFEE7052805D006281DD0042857
:1010B00010D000BEFEE7FFF7F3FD02002549C12373
:1010C0009B00CB5807201840002802D00138C240AE
:1010D000100010BDFFF7B4FD02001E4981239B00E4
:1010E000C858FE3BFF3B1840EEE7FFF76BFD0200E0
:1010F000184982235B00C858FD3B1840E4E70528E7
:1011000005D006281AD004280CD000BEFEE7FFF751
:10111000C7FD02000F49C1239B00C858000A0723DE
:101120001840D1E7FFF78CFD02000A4981239B009C
:10113000C858000AFE3BFF3B1840C5E7FFF742FDD9
:101140000200044982235B00C858000AFD3B184096
:10115000BAE7C0460040064010B5144B1A691209A0
:1011600003231340022B1ED00FD8002B16D0012BC7
:1011700009D10E4B1B690222100018401A420CD0F4
:10118000FA20C00109E0002007E0032B04D1002170
:101190000520FFF781FF00E0002010BD00210620A0
:1011A000FFF77AFFF9E7024B1868F6E70080044082
:1011B000E0020020174B1A69920803231340022B08
:1011C00019D005D8002B22D0012B1ED1002070474A
:1011D000032B1AD10F4B1B690222100018401A4230
:1011E000F5D00C4B1B69013A100018401A42EED0A2
:1011F000FA208000EBE7074B1B6902221000184021
:101200001A42E4D0FA20C001E1E700BEFEE7FA206E
:101210004002DCE70080044010B5204B5A68802370
:101220001B01100018401A4236D01C4B5A68120994
:101230000F2313400E2B26D89B00194AD3589F46E4
:10124000FA20400220E0FFF705FF1DE00121062003
:10125000FFF722FF18E001210420FFF71DFF13E034
:1012600001210520FFF718FF0EE00020FFF7BEFE6A
:101270000AE00120FFF7BAFE06E0FFF79BFF03E05C
:10128000FFF76AFF00E00020044B5B681B0A0721A0
:1012900019400131FEF74EFF10BDC04600800440EA
:1012A000A861000010B50C000F285FD88000314BFA
:1012B0001B589F460020FFF799FE03000020002CDA
:1012C00000D0236010BD0120FFF790FE0300002036
:1012D000F5E70220FFF78AFE03000020EFE7FFF7A3
:1012E0009BFF03000020EAE7FFF7AAFC03000020B1
:1012F000E5E7FFF7D5FC03000020E0E7FFF762FC1D
:1013000003000020DBE71C4B1B680020D7E7FFF73A
:10131000A1FE03000020D2E700210420FFF7BCFE5D
:1013200003000020CBE701210420FFF7B5FE0300F6
:101330000020C4E700210520FFF7AEFE03000020D7
:10134000BDE701210520FFF7A7FE03000020B6E757
:1013500000210620FFF7A0FE03000020AFE70121D7
:101360000620FFF799FE03000020A8E700230420D1
:10137000A5E7C046E4610000E002002010B50C00C3
:101380001738C3B2052B03D89800184B1B589F463B
:10139000002025E0FFF740FF22E0FFF7DDFE1FE021
:1013A000FFF708FF1CE0124B1B69022210001840D7
:1013B0001A4215D00E4B1B69013A100018401A4210
:1013C0000ED0FA2080000BE0094B1B6902221000AE
:1013D00018401A4204D0FA20C00101E0FA2040026D
:1013E000002C00D02060002010BDC0462462000008
:1013F0000080044070B582B004000E000023019309
:10140000152818D0162823D001A9FFF7B7FF05002B
:101410001D3CE4B2042C01D8002D2AD0019B002BE6
:1014200003D1042D01D080256D00002E00D0336043
:10143000280002B070BD114BDA68120E032313406E
:10144000022B12D89B000E4A9B5801930025DFE720
:101450000A4BDA68920E03231340022B07D89B0035
:10146000074A9B5801930025D2E70025D0E70025C5
:10147000CEE70120FFF7BAFD0190CFE700800440DE
:10148000E402002010B5382803D0392805D0002008
:1014900010BD1520FFF7AEFFFAE71620FFF7AAFFF1
:1014A000F6E7000070B582B00023019342001D4BA7
:1014B000D35A1D4A9D00AC58E40801263440AA586E
:1014C00007251540A54220D39A00174E9259520085
:1014D0001BD59B009A59120E07231340022B17D0DD
:1014E000032B1AD0012B04D001A9FFF7CBFF002555
:1014F00003E00620FFF7D0FD0190691C0198FEF77C
:1015000019FE0190013444430194019802B070BD6A
:101510000420FFF7C1FD0190EFE70520FFF7BCFDB8
:101520000190EAE73C62000000500640F8B5050073
:101530000E00FFF709FB041E3BD1224B5F5DBB068B
:1015400006D47B0618D47BB2002B1DDB00BEFEE761
:101550000120FFF74BFD00281ED0002C2FD11823AF
:101560003B4227D03B071AD40020FB061CD400289E
:1015700020D1802464001DE00020FFF737FD002803
:10158000EBD180246400E8E70220FFF72FFD00285C
:10159000E3D180246400E0E780246400DDE70021DB
:1015A0002800FFF77FFFE0E701212800FFF77AFF1F
:1015B000DDE70020002E00D030602000F8BD0020C4
:1015C000F8E7C046D462000030B597B00400FFF7DA
:1015D000E5FA012801D000BEFEE7002C07D020006C
:1015E000FFF7C2FC051E07D0280017B030BD6846C3
:1015F000FFF760FA6C46F2E720002C30FFF7C2F9E3
:1016000020005030FFF77AF9EEE710B5112805D920
:10161000212806D9492807D9042001E0FFF742FE16
:1016200010BDFFF7E7FEFBE7FFF780FFF8E70000DC
:1016300010B5002801D100BEFEE7002A01D100BE8E
:10164000FEE7044C20602171A260237363730020C5
:1016500010BDC046F4020020F0B5C64600B582B009
:1016600006000D003C4B1B79984201D300BEFEE7FB
:1016700001AC2070617000F0D3FB374B1A7B5A73BA
:101680000123A370002401E00134E4B2324B1B7B40
:10169000A34215D9304B9A68A300D358002BF3D03E
:1016A0001A79022AF0D099681B6801A89847002887
:1016B000EAD0294B5C73002DE6D10427FF3700E008
:1016C0000027002F05D0012D03D001AB00229A7016
:1016D0002EE0214B9846B30042461268D058FFF7DF
:1016E00073FF071E43465E71EFD101AB02229A7071
:1016F000002407E0002803D0174B5C73002D22D094
:101700000134E4B2144B1B7BA3421ED9124B9A68DE
:10171000A300D358002BEDD01A79012AEAD099689A
:101720001B6801A89847E5E7002C0ED0013CE4B205
:10173000094B9A68A300D358002BF5D099681B6811
:1017400001A89847F0E782277F0000F05BFB380094
:1017500002B080BCB846F0BDF402002010B50329E9
:1017600001D900BEFEE74B01C3180A4CA4466344EE
:101770001B880224A3431C00002A08D00223234311
:1017800049014118034A944661440B8010BD00236F
:10179000F5E7C0461C10000003231840014B1877E2
:1017A000D877704700800040022801D80120704798
:1017B0000020FCE7002A01D0C17670478176FCE763
:1017C00010B54B01C318104A9C18002222608031CA
:1017D00049010A5040188280C2800C4959180A6099
:1017E0000B4959180A600B4959180A800A495918B7
:1017F0000A800A4959180A60094959180A80094992
:101800008C4663441A8010BD081000000C100000C4
:101810001010000014100000161000001810000036
:101820001C1000001E10000070B504AC247805AD3B
:101830002D78032901D900BEFEE7D20292B224021C
:10184000E026F60034402243DC00FF232340072437
:1018500025402B431A43803149014118CA8070BD8D
:1018600010B5032901D900BEFEE703681B0621D588
:101870004B01C318134CA44663441B68002B0CDBBC
:101880004B01C31863441B685B0006D492009208A6
:101890004B01C31863441A6012E04B01C318094995
:1018A0008C4663441968890A89029205920D0A439D
:1018B0001A6005E049014118024B9C4661440A60E8
:1018C00010BDC0460810000010B5032901D900BEA4
:1018D000FEE74B01C318174CA44663441B881BB298
:1018E000002B13DB49014118124BC8180388DB0B8E
:1018F000DB035204520C134303800F4B9C4661449C
:101900000B88DB0BDB031A430A8010BD4901411829
:10191000081903885B0A5B02D205D20D13430380CA
:10192000054B9C4661440B885B0A5B021A430A80A4
:10193000EBE7C0461E10000016100000032901D975
:1019400000BEFEE74B01C3180C4A944663441B8853
:101950001BB2002B08DB49014018094B9C46604430
:1019600000884004400C704749014018044B9C46D5
:1019700060440088C005C00DF5E7C0461E10000099
:101980001610000010B5032801D900BEFEE7094B70
:101990001B68002B01D100BEFEE78400E458002C38
:1019A00001D100BEFEE78000C4586160C3589A6050
:1019B000002010BD0403002010B5084B1B688200F6
:1019C000D458FFF7E9FE002C06D06368002B03D043
:1019D000217BC9B2A068984710BDC046040300200F
:1019E000F0B5C64600B586B005000C00039204931E
:1019F0000CAB1F78032801D900BEFEE7604B1B68C3
:101A0000002B01D100BEFEE78200D358002B01D18C
:101A100000BEFEE73800FFF7C7FE002801D100BE78
:101A2000FEE703262E400123BB401A000593FF2347
:101A30001A40904611000398FEF702FC002901D0DD
:101A400000BEFEE741460498FEF7FAFB002901D0EC
:101A500000BEFEE741460D98FEF7F2FB002904D0D8
:101A6000012006B080BCB846F0BD31004548FFF704
:101A7000A7FE444A7001444B9C46604403889B0483
:101A8000990C424B0B439BB20380136880218B431C
:101A90000B431360330080335B010399995073014A
:101AA0003B4A94466344049A1A60019700970023C6
:101AB000002231003348FFF7B7FE022C4FD02BD85D
:101AC000002C3AD0012C10D16B461427DF57BFB23F
:101AD000330080335B012B4A944663449F8073013B
:101AE0002C4A9446634400221A80264C0D9A3100F9
:101AF0002000FFF7B5FE012231002000FFF7E4FED1
:101B0000012231002000FFF729FE1D4B1B68A800B1
:101B1000C35800201873A4E7032CE6D133008033A8
:101B20005B01184A9446634400229A807301194A63
:101B30009446634400221A80D7E7330080335B0168
:101B4000104A9446634400229A806B461427DF575C
:101B5000BFB273010F4A944663441F80C5E76B46CA
:101B60001427DF57BFB2330080335B01054A944628
:101B700063449F807301074A944663441F80B4E71F
:101B800004030020008000401C9000400080FFFF04
:101B90001090004014900040F0B5D64600B586B0D5
:101BA00004000591039204930CAB1D780FAB1E78D3
:101BB000032801D900BEFEE7214B1B68002B01D191
:101BC00000BEFEE7032707400123AB40FF221A4077
:101BD000924611000398FEF733FB002901D000BEA6
:101BE000FEE751460498FEF72BFB002901D000BE0A
:101BF000FEE70D9B01930095049B039A0599200035
:101C0000FFF7EEFE041E04D0200006B080BCBA46EA
:101C1000F0BD0E9A39000B48FFF756FE7B010A4AC9
:101C2000944663441A8808239A43002E00D1002367
:101C30001A437B0104498C4663441A80E4E7C0469A
:101C400004030020008000401C90004010B50328D1
:101C500001D900BEFEE70A4B1B68002B01D100BE74
:101C6000FEE78200D358002B01D100BEFEE703211E
:101C7000014001220348FFF79DFD002010BDC04632
:101C8000040300200080004010B5032801D900BEE5
:101C9000FEE70A4B1B68002B01D100BEFEE7820065
:101CA000D358002B01D100BEFEE7032101400022E2
:101CB0000348FFF77FFD002010BDC046040300204D
:101CC00000800040032801D900BEFEE7094B1B68D5
:101CD000002B01D100BEFEE78200D358002B01D1BA
:101CE00000BEFEE70323034080335B01024A9950A4
:101CF0007047C0460403002000800040032801D93B
:101D000000BEFEE7094B1B68002B01D100BEFEE7B9
:101D10008200D358002B01D100BEFEE7032303400D
:101D20005B01034A94466344196070470403002032
:101D30001090004010B5032801D900BEFEE70A4B01
:101D40001B68002B01D100BEFEE78200D358002B98
:101D500001D100BEFEE7032318400A00010003483A
:101D6000FFF7B2FD10BDC046040300200080004014
:101D700010B5032801D900BEFEE7094B1B68002BF4
:101D800001D100BEFEE78200D358002B01D100BE76
:101D9000FEE7032101400348FFF7D0FD10BDC04618
:101DA000040300200080004010B50020FFF704FE6F
:101DB00010BD10B50120FFF7FFFD10BD10B50220CA
:101DC000FFF7FAFD10BD10B50320FFF7F5FD10BDBC
:101DD000002801DA00BEFEE7C30F1F220021824265
:101DE0004B41DBB2002B01D100BEFEE71F220240B7
:101DF0004009012393408000014A83507047C04648
:101E000000E100E0054B1B68002B04DD013B034AA9
:101E10001360002B00DD704762B6FCE7080300206A
:101E200072B6024A1368013313607047080300203A
:101E3000002801D000BEFEE7044B1A6881218A43C6
:101E40001A6000221A605A609A60704700000440CD
:101E5000F8B50C00002801D000BEFEE7002901D132
:101E600000BEFEE78E68CD784F79002D59D18022D3
:101E70005202964201D300BEFEE7B6B2FFF7D8FF8A
:101E80002278314B1B6831490B40002A55D0802203
:101E9000520013432C4A136062782B4B1B68C021FD
:101EA0008B43002A4BD040221343274A1360A27869
:101EB000254B1B6884218B43002A42D00422134304
:101EC000214A136011001368822293436D00803A07
:101ED00015401D430D604B6876329343FF00174059
:101EE0001F434F6020794B68753A93430240134378
:101EF0004B608B681B0C1B0433438B60227B0B688D
:101F0000B020834312018038024013430B60627B90
:101F10000B6858308343D2008038024013430B6073
:101F2000F8BD012D01D000BEFEE78022520296428C
:101F300001D300BEFEE7B6B2A0E70022A9E7002267
:101F4000B2E70022BBE7C046000004407FFEFFFF6F
:101F500070B50C001500002801D000BEFEE7002976
:101F600001D100BEFEE7FFF773FF6378002B03D0BB
:101F7000074B802252001A60002D00D170BD054A27
:101F8000136881218B4380390B431360F6E7C04609
:101F900000E100E000000440F0B5C64600B586B0A0
:101FA0000400012801D900BEFEE7002901D100BECE
:101FB000FEE7830021481D5821481E58337F002B1F
:101FC0003AD1002A01D100BEFEE7F1600023984615
:101FD000736101203077023373872B001C33059324
:101FE0003627F35D9C46039002920190434600938E
:101FF000059B0A0001216046FFF7CEFDF05D22003F
:102000001049FFF7BFFCF05DFFF720FEAB690E4AF9
:102010001A4080231B031343AB61AB691B03FCD540
:102020002B690A4A1A4080231B0413432B610020AA
:1020300006B080BCB846F0BD0220F9E79863000006
:102040000C030020C5220000FFFFF7FFFFFF7FFF0A
:10205000054B0361054B4361002383610362F0225A
:1020600092028262C36270470400000F00C01FC06A
:102070000B00002A00D04B1C022B0AD082691021D1
:102080008A431B01134383610369054A13400361BB
:102090007047026980239B0513430361F8E7C0463C
:1020A000FFFFFFDF0A00836902218B4351084900CB
:1020B0000B4383618169012399431A401143816174
:1020C0007047000030B50B0C0904090C032B0FD02E
:1020D000072B1AD0012B00D030BD046901258D409B
:1020E000AC43002A00D100238B4023430361F3E774
:1020F000836901248C40A343002A04D001228A4032
:1021000013438361E8E70022F9E7836A01248C40E6
:10211000A343054C2340002A04D001228A401343E4
:102120008362D9E70022F9E7FFFFFCFF10B5012821
:1021300001D900BEFEE7002901D100BEFEE7830001
:1021400018481858184C1B591C7F002C28D1002AFD
:1021500001D100BEFEE720241C5D002C03D0D40773
:1021600006D4012400E00124002C03D100BEFEE7C8
:102170000024F9E7D9605A6101221A7701325A879F
:1021800083690A4A1A4080231B03134383618369CE
:102190001B03FCD501220649FFF794FF002000E055
:1021A000022010BD986300000C030020FFFFF7FF22
:1021B0001700030070B5012801D900BEFEE78000BA
:1021C000134BC458134BC5586B8F9BB2022B13D1C2
:1021D00000236B87002210492000FFF773FFA369DB
:1021E0000E4A1340A361A3691B03FCD400232B7781
:1021F000AB7F002B06D170BD002209492000FFF7FC
:1022000061FFE7E72800383000F0B8FEF3E7C0468A
:10221000986300000C03002016000300FFFFF7FF87
:102220001700030070B58000144BC458144BC558F8
:102230002369144A134023613623E85CFFF724FD29
:10224000002211492000FFF73DFFA3690F4A134008
:10225000A361A3691B03FCD4AB7F002B06D16B8F5A
:102260009BB2022B07D000232B7770BD280038309B
:1022700000F084FEF3E700236B87F4E79863000027
:102280000C030020FFFF7FFF16000300FFFFF7FF96
:1022900010B582000A4BD4586369002B0CD134333B
:1022A000E35C012B09D0FFF7BDFFE36A002B03D0ED
:1022B000226B02212000984710BDFFF77BFFF4E757
:1022C0000C03002070B58300184A9C58184A9D588A
:1022D000012918D0E36A002B03D0226B01212000D2
:1022E00098476369002B1AD03625605DE168FFF7D7
:1022F000E9FC6169605DFFF71DFD00236361605DBE
:10230000FFF7A4FC70BD01236387FFF78BFFE36A2F
:10231000002BF7D0226B032120009847F2E701221F
:1023200004492800FFF7CEFEECE7C0460C0300206E
:1023300098630000160003000B0C032B0CD0072B36
:1023400011D0012B01D00020704703690904090C4A
:10235000CB4001201840F7E783690904090CCB4002
:1023600001201840F0E7836A0904090CCB400120E2
:102370001840E9E710B50B0A01221A408369044CA2
:102380002340920713438361C9B2017710BDC04651
:10239000FFFFFFBF30B50C0A012214404B0A1A4060
:1023A0008369064D2B40A40723435B005B08D207DB
:1023B00013438361C9B2017730BDC046FFFFFFBF41
:1023C00010B580000D4BC3580D4A8058DA682021A3
:1023D0005B5C002B02D11378037710BD012B06D074
:1023E0001378517809021943FFF7D4FFF5E7137802
:1023F000517809021943FFF7BDFFEEE70C030020F7
:102400009863000070B58300194A9C58194A9D587A
:102410006369002B00D170BDFFF7D2FF2023E35C7E
:10242000002B1DD1E3680133E3606369013B636105
:102430006369002BEFD1E36A002B03D0226B0121EB
:10244000200098476369002BE5D100220A49280043
:10245000FFF738FE012209492800FFF733FEDAE7CB
:10246000E3680233E3606369023B6361E0E7C0460F
:102470000C030020986300001700030016000300FF
:10248000002901D100BEFEE78369DB0F1B020B8030
:10249000C269D2B213430B807047002901D100BE3C
:1024A000FEE783699B0F5B028022920013400B8042
:1024B0008269D20F120213430B80C269D2B2134356
:1024C0000B80704710B582B08000154BC358154A79
:1024D00080581C6920229B5C002B06D1002C01D166
:1024E00000BEFEE7C36923700CE0012B0CD06B46E5
:1024F000991DFFF7D2FF6B469B7923706B46DB88F3
:102500001B0A637002B010BD6B46991DFFF7B8FF40
:102510006B469B7923706B46DB881B0A6370F1E77F
:102520000C030020986300000B0C042B0CD0072B2D
:1025300011D0022B01D00020704743690904090C17
:10254000CB4001201840F7E7C3690904090CCB40D0
:1025500001201840F0E7836A0904090CCB400120F0
:102560001840E9E770B504000D000A000949FFF7BB
:10257000A9FD2A0008492000FFF7A4FD2A00074909
:102580002000FFF79FFD2A0005492000FFF79AFD74
:1025900070BDC0461B000300180003001A000300B2
:1025A0001900030010B5012801D900BEFEE700297B
:1025B00001D100BEFEE780001B4BC3581B4C0459E1
:1025C000587F00282DD1002A01D100BEFEE720202F
:1025D000185C002803D0D00706D4012000E00120B9
:1025E000002803D100BEFEE70020F9E7012058775C
:1025F00019619A6102229A87A3690D4A1A408023C1
:10260000DB021343A361A3695B03FCD50121200016
:10261000FFF7A8FF012207492000FFF753FD002024
:1026200000E0022010BDC0460C03002098630000AB
:10263000FFFFFBFF15000300F0B5D6464F464646A8
:10264000C0B584B004000D00012801D900BEFEE72A
:10265000002901D100BEFEE7830026495E582649C5
:102660005F587B7F002B42D1002A01D100BEFEE7DC
:1026700031001C3135239A46F85C343B984603936D
:10268000029201930023994600932B000A00002137
:10269000FFF782FA5346F85C22001849FFF772F9F7
:1026A0005346F85CFFF7D2FA3D614B46BB614346A7
:1026B0007B770133BB87B369114A1A408023DB0261
:1026C0001343B361B3695B03FCD501213000FFF70D
:1026D00049FF33690B4A1A4080239B03134333613C
:1026E000002004B0E0BCBA46B146A846F0BD0220C6
:1026F000F7E7C046986300000C0300204D28000057
:10270000FFFFFBFFFFFFDFFF70B5012801D900BE0F
:10271000FEE78000144BC558144BC458A369144AF3
:102720001340A361A3695B03FCD400212000FFF7E1
:1027300019FFE36900220F492000FFF7C3FCEB7F7C
:10274000002B06D100236B77AB8F9BB2022B07D0F7
:1027500070BD2800373000F011FC0023EB77F1E763
:102760000023AB87F4E7C0460C0300209863000009
:10277000FFFFFBFF1500030070B505008200174B3B
:10278000D458FFF79FFE2023E35C002B13D123696D
:1027900001332361A369013BA361A369002B06D127
:1027A000636A002B03D0A26A002120009847A36926
:1027B000002B07D070BD236902332361A369023B5C
:1027C000A361EAE72800FFF79FFF636A002BF1D0BF
:1027D000A26A022120009847ECE7C0460C030020C3
:1027E00070B58000154BC458154BC558A369154AE0
:1027F0001340A361A3695B03FCD400212000FFF711
:10280000B1FE2369104A13402361E3693523E85C74
:10281000FFF73AFAEB7F002B06D1AB8F9BB2022B6E
:1028200009D000236B7770BD2800373000F0A6FB7D
:102830000023EB77F1E70023AB87F2E79863000012
:102840000C030020FFFFFBFFFFFFDFFF70B505005B
:102850008300244A9C58244A9E5801291CD0A38FE7
:102860009BB2022B17D1636A002B03D0A26A00210E
:1028700020009847A369002B21D03525605D216990
:10288000FFF73CFAA169605DFFF754FA0023A361EA
:10289000605DFFF7DBF970BD0123A387FFF7A0FFA1
:1028A000636A002B03D0A26A032120009847736952
:1028B0000E4A1A40F0231B0313437361CFE728002D
:1028C000FFF78EFF636A002B03D0A26A022120006B
:1028D00098477369054A1A40F0231B031343736139
:1028E000D9E7C0460C03002098630000FF3FE03F9B
:1028F00070B506008300444A9C58444A9D58444998
:102900002800FFF711FE002816D0424BA38734237E
:10291000E35C012B68D03000FFF762FF636A002B95
:1029200003D0A26A0321200098476B693A4A1A40F3
:10293000F0231B0313436B6138492800FFF7F4FDB4
:10294000002816D0364BA3873423E35C012B4FD0ED
:102950003000FFF745FF636A002B03D0A26A032112
:10296000200098476B692C4A1A40F0231B0313433D
:102970006B612C492800FFF7D7FD002816D02A4BA1
:10298000A3873423E35C012B36D03000FFF728FF08
:10299000636A002B03D0A26A0321200098476B6969
:1029A0001D4A1A40F0231B0313436B611F49280083
:1029B000FFF7BAFD002816D01D4BA3873423E35C34
:1029C000012B1DD03000FFF70BFF636A002B03D0F3
:1029D000A26A0321200098476B690F4A1A40F0232E
:1029E0001B0313436B6170BD3000FFF78DFE95E74D
:1029F0003000FFF789FEAEE73000FFF785FEC7E73E
:102A00003000FFF781FEE0E70C0300209863000030
:102A10001300020001060000FF3FE03F110002002A
:102A2000030600001000020004060000120002006D
:102A300005060000012801D900BEFEE78000034B17
:102A4000C358586A59629A627047C0460C03002006
:102A500070B504001D00012801D900BEFEE7002961
:102A600001D100BEFEE7830017481E580123B3774B
:102A70003333F35C012B01D900BEFEE7012B07D0F5
:102A80002000FFF789FA002806D0708F80B270BD51
:102A90002000FFF74BFBF6E730003830290000F04C
:102AA00015FA0328F1D10023B37703337387313349
:102AB000F35C012B03D02000FFF7B4FBE5E7200017
:102AC000FFF778FBE1E7C0460C03002010B50128B2
:102AD00001D900BEFEE7002901D100BEFEE7830058
:102AE000084C1B590024DC7734341B5D012B01D9C1
:102AF00000BEFEE7012B02D0FFF79EFD10BDFFF7E1
:102B000051FDFBE70C03002070B50C00012801D932
:102B100000BEFEE780000C4BC558002911D06B7F2A
:102B2000002B0CD03423EB5C012B02D1AB690B6082
:102B300007E03523E85CFFF71BF9206001E0002384
:102B40000B60A88F80B270BD0C030020F0B5D64694
:102B50004F464646C0B586B003000C00012801D997
:102B600000BEFEE74B4A105C9B004B4A9A589246C7
:102B70004A4A9B58002B07D01A7F002A00D080E0D9
:102B80005B7F002B00D083E005A9FEF73EFD059E8C
:102B9000002E01D100BEFEE7A1008E4201D200BE90
:102BA000FEE73000FDF7C6FA83B203930104890BF8
:102BB0003000FDF7BFFA84420CD2071B2100300021
:102BC000FDF7B8FA8146202824D8042824D8042305
:102BD000029328E0271AF1E7201AB84204D8070028
:102BE000019B0293434603930135ADB201954D45D8
:102BF00016D8210069433000FDF79CFA83B298464D
:102C00000104090C69433000FDF794FA8442E3D2D1
:102C1000001BE2E720239946042302930525E5E7FC
:102C2000029B072B06D853461A6980239B02134345
:102C300052461361029F013F1F2F01D900BEFEE7DC
:102C400053461B69164A13403F06F82252051740A7
:102C50001F4353461F61039B5A1E00231149914293
:102C60005B41002B01D100BEFEE753461B695B0BA5
:102C70005A03039BDB04DB0C134352461361002011
:102C800000E0022006B0E0BCBA46B146A846F0BD5E
:102C90000220F7E790630000986300000C03002017
:102CA000FFFFFFE0FE1F0000F0B583B006000C0040
:102CB0001500012801D900BEFEE7002901D100BEA0
:102CC000FEE7002A01D100BEFEE78300414A9F587B
:102CD000414B185C01A9FEF798FC019B002B01D128
:102CE00000BEFEE7B3003D4A9B58002B01D000BE5A
:102CF000FEE7EB79002B04D1AB79002B06D1013331
:102D000000E00123002B03D100BEFEE70023F9E71A
:102D1000AB79022B04D00123002B51D100BEFEE77A
:102D20002B79002B01D10133F6E70023F4E7E218F9
:102D30000021117001333F2BF9D9B300274A9C5071
:102D4000EA793423E254AA79143BE2542A7A1533FF
:102D5000E2546A7A0133E2543800FFF779F92968BE
:102D60003000FFF7F3FE2B79002B2BD0A97901223D
:102D70003800FFF77DF929793800FFF793F96A7970
:102D80003B6917490B40520313433B6100236387A0
:102D9000A38720003730002100F006F9050020004D
:102DA0003830002100F000F9012D06D001280FD0A5
:102DB0000C4B9857FFF70CF80025280003B0F0BD26
:102DC0000023B8E7A97900223800FFF751F9D2E7CC
:102DD0000500F2E798630000906300000C030020F8
:102DE000FFDFFFFF94630000012801D900BEFEE76A
:102DF000002901D100BEFEE7002A01D100BEFEE796
:102E00008000034BC35819619A6100207047C04687
:102E10000C03002070B50400012801D900BEFEE7B4
:102E200083001A4A9D58FFF763FD19492800FFF7F0
:102E300083FA00280CD117492800FFF77DFA0028F3
:102E400010D115492800FFF777FA002814D170BD7A
:102E500012492800FFF768FB0028ECD02000FFF79C
:102E60008BFCE8E70E492800FFF75EFB0028E8D05E
:102E70002000FFF7C7FAE4E70A492800FFF754FBF0
:102E80000028E4D02000FFF703FAE0E79863000091
:102E900015000300170003001600030015000200D0
:102EA000170002001600020010B50020FFF7B2FF65
:102EB00010BD10B50120FFF7ADFF10BD024A136829
:102EC000013313607047C0461403002070B582B010
:102ED00004000D00002801D100BEFEE7002301938D
:102EE00001A90020FEF791FB002801D000BEFEE7FB
:102EF000019B002B01D100BEFEE71D4E0023336075
:102F0000FA2189000198FDF715F903021B0A736085
:102F1000184B1B78002B03D00023B360154A1370A5
:102F2000134B07221A60002D0DD12378002B1CD0E3
:102F3000FEF776FF2378013BDBB22370FEF762FFDA
:102F4000280002B070BD0C4B1A682378002B08D102
:102F5000094B1B689B1A691CF7D09D42F5D20325CB
:102F600000E00025002DEBD1E2E70325E8E7C046AD
:102F700010E000E04D0100201403002010B5041EF5
:102F800001D100BEFEE7FEF74BFF2378DBB2FF2B3B
:102F900008D023780133DBB223700024FEF732FF20
:102FA000200010BD0124F9E770B504000D000028D1
:102FB00001D100BEFEE7FEF733FF2570FEF722FFCA
:102FC000002070BD70B50368002B01D100BEFEE784
:102FD000827A012A04D00121002908D100BEFEE72F
:102FE0000169002901D00121F6E70021F4E74168D9
:102FF0000F2901D900BEFEE78C00E558047A012CA8
:103000003CD0022C3FD0002C01D000BEFEE70234A1
:10301000A5434024A543467AB60134402C432E4DA7
:103020002C401202E025ED002A4022432B4C224086
:10303000C47AE407240C2243294C1440027B120476
:10304000F0252D032A402243447B002C04D0254C3C
:1030500022408024640422438900CA500168C025AC
:103060004B5944680122A24093431A00837BA3403A
:1030700013434B51837A012B08D070BD0124A54323
:1030800001342543C5E703242543C2E701694B69A1
:10309000027D002A03D0012A0CD000BEFEE70124E5
:1030A0004568AC40A343012A09D002691B041B0CEC
:1030B0005361E2E701244568AC402343F3E74668E7
:1030C000447D0A680125B540AA43B4402243120456
:1030D000120C0A60E9E7C046FFF8FFFFFF7FFFFF21
:1030E000FFFFF0FFFFFFFFFE002308E09A00022130
:1030F0000A4811500A4811500A48115001330F2B49
:103100000AD8094ADA40D207F0D59A0002210748C6
:10311000115007481150E9E77047C04600A004402D
:1031200000C0044000D00440EFFF000000900440C5
:1031300000B0044070B505000E00002406E06000F9
:103140000019C0003018FFF73DFF0134AC42F6D340
:10315000002070BD0904090CC1607047044B054A8A
:103160005A605A68044A1A60044A9A607047C04616
:103170000020054020C528D920210000FFFF0000C5
:10318000134B144A03E019781170013201331249CC
:103190008B42F8D1114B124A03E0197811700132B9
:1031A000013310498B42F8D10F4B02E000221A7014
:1031B00001330E4A9342F9D10D4B0E4A03E01978C0
:1031C0001170013301320C498B42F8D17047C0466F
:1031D0006C65000000000020C4660000C4660000AA
:1031E00058010020C4660000580100208003002020
:1031F000C4660000C4660000C466000070B50C0020
:103200000500002000F01EFF094E220029003000BA
:1032100000F019FF002807DA2B00064A0649074884
:1032200001F05CF8072070BD00207460FBE7C04629
:1032300050010020C5630000A0630000A6630000E9
:10324000A02110B53148C901FFF7D8FF00285BD194
:1032500000F042F9002857D1C020800100F078FE2C
:10326000002851D18020C00100F086FE00284BD1FB
:10327000C020000100F090FD002845D1C020800052
:1032800000F09CFD00283FD10130FF3000F084F8B1
:10329000002839D18020000100F0B8FA002833D18D
:1032A0008820800000F0E8FE00282DD19020000149
:1032B00000F018FE002827D18020800000F068FE72
:1032C000002821D19020800000F074FE00281BD13E
:1032D0009820800000F080FE002815D1A0208000FA
:1032E00000F08CFE00280FD18020400100F00EF984
:1032F000002809D1B020000100F092FE002803D17F
:103300008020C00000F0A6FE10BDC0460000C043F3
:10331000F0B5140091B00500684600F0E1FE00260B
:10332000A408A400A64201D111B0F0BD6B46985983
:1033300000F0EAFDAF1938600436F3E7F0B5140089
:10334000002595B0960800900191B60004AFB542F3
:1033500019D10326250039002700B5432A0000981B
:1033600000F0BEFE374034420BD0019B591908686B
:1033700000F0CAFD009B03903A00581903A900F021
:10338000AFFE15B0F0BD019B5B19186800F0BCFDE5
:1033900078510435DAE70000054B10B51B68C018FA
:1033A000044B01681860044800F0BEFB10BDC04625
:1033B0005001002018030020A1A0465010B50A00BB
:1033C00004000420402906D8034B2100186840302F
:1033D000FFF79EFF002010BD1803002010B50A0063
:1033E00004000420402906D8034B210018688030CF
:1033F000FFF78EFF002010BD180300200A0010B553
:10340000402900D94022034B1968C031FFF796FFCD
:1034100010BDC0461803002070B5074D04002E688B
:103420000800F263110000F012FE706320002D68A6
:1034300000F00EFEA86370BD1C03002012020243C0
:103440001B061A43024B09011B680A43DA667047E0
:103450001C030020002901D002231843002A01D0B8
:1034600004231843014B1B68586270471C0300205B
:1034700010B5444260418024C00724060019002989
:1034800002D08021C9050843002A02D0802292057B
:103490001043002B02D080235B051843029B1B06C0
:1034A0001843024B1B68586410BDC0461C03002023
:1034B0000122024B1B681A627047C0461C030020A1
:1034C00003000120034A126812691040002B00D04B
:1034D0001A6070471C030020094B10B51B68C01808
:1034E000084B01681860084800F01EFB041E04D158
:1034F00000F0ABFD002800DA0734200010BDC04604
:10350000500100201C030020A2005050054B10B5B4
:103510001B68C018044B01681860044800F004FBE5
:1035200010BDC04650010020340300200393F0EC8E
:103530000238072300B5062808D8FCF7F1FD040976
:103540000B0D040909001C230B600023180000BDAB
:103550002023F9E73023F7E74023F5E70300881E2F
:1035600000B5062805D8FCF7DBFD06121416181A5C
:103570001C00072000BD022100201160012BF9D0A2
:10358000022BF6D11168FE330B431360F2E70321DF
:10359000F2E70421F0E70521EEE70621ECE7072139
:1035A000EAE70821E8E70000F0B516000022050070
:1035B00095B00F00100011000293FFF74BFF2B0096
:1035C000012200249B330393187802991300504082
:1035D0000094FFF74DFF39002F0032002000FFF765
:1035E0001BFF802398373A889B009A421BD1280002
:1035F0004021EC30FFF7E2FE29002D314022FF315F
:1036000004A800F06DFD0821334B02AA1E68521871
:10361000A300D05800F078FC230010339B00013445
:103620009851102CEFD12B000833DC6F80233E78AB
:103630009B009C4200D91C002B009033196830007D
:1036400000F076FB2200030001213000FFF7F6FEB8
:10365000039B1B78002B04D028004021AC30FFF7DF
:10366000BDFE2B009A331978013B187804AAFFF7A6
:1036700075FF041E17D12F00174E049A33688C373C
:103680009A613A681A62FFF713FF04A8FFF718FF60
:103690000028FAD1049B002B08D0104A1049114889
:1036A00000F01CFE0D24200015B0F0BD33681B692E
:1036B0000493002B03D0094A09490B48F0E7029B09
:1036C000002BF0D128004021AC30FFF797FE336883
:1036D0001B6B3B60E7E7C046380300202B6400000B
:1036E000A0630000D663000001640000F0B50C0088
:1036F00093B09931069109780626814233D1161E7E
:1037000031D00026B3422ED0210088310968251D12
:103710000291210094310968009301911300210066
:10372000EA6F08A800F08FF9EE67059608AD089BD0
:103730000793079A059B934201D3002613E02B7948
:10374000AF68EE68002B1FD00020FFF7B9FE031E04
:103750000CD1320039002000FFF726FF061E07D0EB
:103760000023069A1370300013B0F0BD0526F7E76A
:1037700023009B331A78002A01D101321A70059B6D
:103780000C3501330593D2E7231DD86FBC4203D11A
:10379000002801D1DE67F2E732003900201800F07E
:1037A000A8FC231DDA6F9619F4E7F8B50E009936D8
:1037B000150032780C000623824225D10B1DDF6FE5
:1037C00097331B78002B02D00423002F1AD0042338
:1037D000002D17D00020FFF773FE0523002811D11C
:1037E000043B3A0021002000FFF7DEFE031E09D152
:1037F0004021281D9A34FFF701FE29002078FFF7A9
:1038000097FE0300002232701800F8BD054B10B57A
:103810001B68C018044B01681860044800F084F964
:1038200010BDC04650010020380300200038393157
:10383000B62010B5400000F031FC002803D0030092
:10384000002299331A7010BD10B500F031FC10BD84
:1038500010B513000A0001000120FFF747FF10BD5B
:1038600010B50A0001000120FFF79FFF10BDF0B561
:103870001600B6221F00DDB004000D00520000212A
:1038800001A8FCF7FFFC390001A800F093F800281C
:103890000AD13200290001A8FFF7DAFF002803D17E
:1038A000210001A8FFF7DCFF5DB0F0BDF0B51E0000
:1038B0000B0095B0019099331B780C001500052082
:1038C0001A9F002B18D101380E2A15D8FD22B31EDD
:1038D0000630134210D0364B019A1B689B68022AAF
:1038E00002D10130DA0707D5072D07D8032D11D8EB
:1038F000AA1E0420012A08D915B0F0BD0420082D05
:10390000FAD10B202B4203D1F6E70B209B07F3D50E
:10391000402203E00B2080225B07EDD52300943387
:103920001A60019B022B09D1002E2BD03A003100E6
:1039300001201B9B00F0B2F90028DDD100201B9A6A
:10394000231DD8670433DA67012280331A60019A95
:103950001E74586004335A739D73D873864202D024
:1039600090342760C8E7EC34802231002000FCF757
:1039700089FC1B9B3900DA1D2000D20800F0B0FB47
:103980003000B9E7230094331B681B9ADB009A428E
:10399000D4D91B9B3900DA1DD2082B0003A8FFF7EE
:1039A00066FF0028A8D1039B04AFDB001B93C5E78B
:1039B00038030020002307B50A000100019301200D
:1039C0000093FFF773FF0EBD13B5049C00930194A1
:1039D00013000A0001000220FFF768FF16BD10B5B2
:1039E00013000A0001000220FFF780FE10BD10B591
:1039F0000A0001000220FFF7D8FE10BDF0B5150047
:103A0000B6221E00E1B066AB039052000C0005A880
:103A100000211F78FCF736FC689B3A0000933100C8
:103A2000679B05A8FFF7D0FF00280AD12A002100D4
:103A300005A8FFF7D4FF002803D1039905A8FFF7D5
:103A4000D6FF61B0F0BDF0B5140085B00A9F282202
:103A5000019100210C9E00930500FCF713FCE31973
:103A600003930B9BE219F3189A4203D30B9B901B11
:103A700098420AD2019BEC60AB60009BAF616B6126
:103A800002232B60280005B0F0BD0B99FCF752FB18
:103A90000600002C1BD00B9A4243944229D80B9F5E
:103AA000013EA74221D33B1B0293019B029A1819A6
:103AB000009900F015FB029A01249446019BEF60E7
:103AC000AB60009B2C7163440093039BDF1B002EB3
:103AD0001AD00C2301226343EB181A71009A0134A7
:103AE0009A600B9A7243DA600EE00B9B013EFF185E
:103AF000D7E701232B71019BEA6099180026A21ACF
:103B00000224AB606961AA610C220B9B62435E4395
:103B10000023AA181371009BBF1B9B1901349360EB
:103B2000D7602C60AEE7000007B50B000200002054
:103B30008A4206D000920349034A044800F0CEFBB3
:103B400008200EBDA0630000876400003D640000F3
:103B5000030030B50B290BD807290FD98024022088
:103B60006400A24209D8541E01307F2C09D804E019
:103B70000C000C3C0420012C24D930BD0220802AEA
:103B8000FBD800208342F8D00B2925D82D4B0729DC
:103B900043D90C001B68083CE4001C19236A04206C
:103BA000DD07EAD55D046D0D9542E6D11B0C483169
:103BB000DBB28B42E1D1606A1B04C31A5A1E9341E7
:103BC0009800DAE780240220A400A242D5D8541E2F
:103BD0000130FF2CD5D8D0E70C000C3CE3B2042018
:103BE000012BCAD8174B24011B6804201C19236A17
:103BF000DD07C2D55D046D0D9542BED11B0C54315D
:103C0000DBB28B42B9D1626A1B049A42B5D1A36A76
:103C10009A42B2D1E06A101A0FE018680B0008331C
:103C20009B001B580420DC07A7D55C04640D94425C
:103C3000A3D1180CC0B23031401A431E9841800005
:103C40009BE7C0463C0300200122104B10B51968C9
:103C50004A610B691342FCD10A205A0715D4082186
:103C600008380B4211D10130DA060ED420221C0094
:103C700008001440134208D12000002B05D0044A4C
:103C80000449054800F02AFB0D2010BD4003002028
:103C9000B6640000A06300009564000070B50600E3
:103CA000481E15001A0005283ED8FCF739FA03090A
:103CB0000D151A1F1900E8B200F030F9010009E0F3
:103CC000E8B200F023F9F9E7802300241B019A42AF
:103CD0006441A100080070BDEDB2112DFAD10021A0
:103CE000F8E73000E9B2FFF733FFE7E72B000E3BC0
:103CF000DBB20421022BEDD8902302399B009A42BB
:103D0000E8D800218E42E5D0084BEDB21B680235A1
:103D1000AD00EB580431D807DCD55B045B0DD21A3B
:103D2000531E9A419100D5E70421D3E73C030020BC
:103D300000B506280CD8FCF7F3F904060E04141994
:103D40002800002000BDCBB2043B081F1F2BF9D96F
:103D500001204042F6E7CBB2013B022BF8D8080025
:103D6000F0E7CBB21139112BF9D0F1E7CBB20B2B25
:103D700005D8F8231942F2D008394800E2E70C3B95
:103D8000012BE5D80C398800DCE7CBB20E3B022BC7
:103D9000DED80E39E3E70000054B10B51B68C018EC
:103DA000044B016818600448FFF7BEFE10BDC04612
:103DB000500100203C030020A0015050054B10B5DD
:103DC0001B68C018044B016818600448FFF7ACFE7C
:103DD00010BDC0465001002040030020004638338B
:103DE000F0B51D0099B0431F040002910420039216
:103DF000012B39D80A002B0021000020FFF74EFFCD
:103E0000002831D1194E053037683B69DB072BD4C8
:103E10002B020193062C04D180232A021B031A4390
:103E2000019202992000FFF783FF019B00051843D0
:103E300050220021B86104A8FCF724FAEA1D039976
:103E4000D20804A800F04CF90024A30004AAD0581A
:103E5000356800F059F8230010339B0001345851A5
:103E6000142CF2D1FFF7F0FE19B0F0BD4003002092
:103E70001300021F70B50C000425022A19D80A008D
:103E800001000120FFF70AFF051E12D1112C24D8D2
:103E90002000134BFCF744F909090909090909092C
:103EA0000F0F0F0F13131717171D0122A2401B68C6
:103EB0001A61280070BD083C03226400F6E70C3C40
:103EC0000F22A400F2E701220E3CA2401B685A61B7
:103ED000EFE701221B689A61EBE70425E9E7C0469A
:103EE0003C030020054B10B51B68C018044B01684B
:103EF00018600448FFF718FE10BDC04650010020AE
:103F00004403002000444B4800BA70470138C3B254
:103F100002209842804140428000704704380A00E5
:103F2000C1B2042310B51F290DD88021023B09011D
:103F30008A4208D20121FE339A4206D8FCF780F962
:103F40004B1E9941CBB2180010BD5B004900F3E74E
:103F5000064B10B51B68C018054B1860B0239B00BA
:103F6000C1580448FFF7E0FD10BDC04650010020D5
:103F700048030020D6304D50034B044A1B681B18E1
:103F8000136000207047C046500100204C03002001
:103F9000054B10B51B68C018044B01681860044835
:103FA000FFF7C2FD10BDC0465001002050030020A5
:103FB00000413833054B10B51B68C018044B01682D
:103FC00018600448FFF7B0FD10BDC0465001002046
:103FD0005403002001433833054B10B51B68C0184B
:103FE000044B016818600448FFF79EFD10BDC046F1
:103FF000500100205803002001443833054B10B510
:104000001B68C018044B016818600448FFF78CFD5A
:1040100010BDC046500100205C030020004538332D
:10402000054B10B51B68C018044B016818600448A4
:10403000FFF77AFD10BDC04650010020600300204C
:1040400000413039704700207047002070477047AA
:1040500070470000054B10B51B68C018044B016881
:1040600018600448FFF760FD10BDC04650010020F5
:104070006403002002003984054B10B51B68C0188A
:10408000044B016818600448FFF74EFD10BDC046A0
:1040900050010020680300200042383310B5034B64
:1040A0000100186800F0A4F810BDC0460000002010
:1040B00010B5034B0100186800F02EF810BDC04683
:1040C0000000002030B500240139A24201D10020B7
:1040D00005E0035D01340D5DAB42F6D0581B30BDE9
:1040E000002310B59A4200D110BDCC5CC4540133FA
:1040F000F8E710B5884202D98B18984203D3002301
:1041000007E08B5C8354013AFBD210BDCC5CC454F5
:1041100001339A42FAD1F8E770B50500002910D0B2
:104120000C1F2368002B00DAE418280000F02EFC96
:104130001D4A1368002B05D163601460280000F04D
:104140002DFC70BDA34208D9216860188342F3D1C9
:1041500018685B6841182160EEE71A005B68002B65
:1041600001D0A342F9D911685018A0420BD12068A0
:104170000918501811608342E0D118685B68411833
:1041800011605360DAE7A04202D90C232B60D5E717
:1041900021686018834203D118685B684118216068
:1041A00063605460CAE7C0466C03002070B50F4ED0
:1041B0000D0031680400002902D100F0A9F8306038
:1041C0002900200000F0A4F8431C0AD00323C51CDA
:1041D0009D43A84207D0291A200000F099F8431CFB
:1041E00001D101256D42280070BDC046700300203A
:1041F000F7B50322CB1C9343083306001F000C2B9A
:1042000032D20C27B94231D8300000F0BFFB324D1A
:104210002B681C00002C2ED139003000FFF7C6FFA0
:104220000400431C1ED12C682500002D4AD12368B0
:104230002900E3183000019300F06AF8019B8342E3
:1042400043D123680337FF1A03239F4308370C2FFA
:1042500000D20C2739003000FFF7A8FF431C34D0F0
:104260002368DF19276013E0002BCBDA0C2300252D
:1042700033602800FEBD2268D11B20D40B2917D93A
:10428000E2192760A34211D12A606368116053606C
:104290003000250000F082FB07220B35231D9543DB
:1042A000EA1A9D42E5D05B1BA350E2E75A60ECE7B7
:1042B0006268A34201D12A60EAE75A60E8E7230076
:1042C0006468A7E72C006D68AFE70C23300033600B
:1042D00000F064FBCDE7C0466C0300200FB40B4B2D
:1042E00013B51C68002C05D0A369002B02D1200057
:1042F00000F03CFA05AB2000049AA168019300F09D
:1043000061FE16BC08BC04B01847C046000000207F
:10431000002370B5064D040008002B6001F0B4F8CE
:10432000431C03D12B68002B00D0236070BDC04616
:10433000780300200EB400B50B499CB01DAB029071
:104340000690079104910948094904CB059100683A
:1043500002A9019300F08CFB0023029A13701CB099
:1043600008BC03B01847C046FFFFFF7F00000020D5
:104370000802FFFFF8B505000E001400002804D065
:104380008369002B01D100F0F1F9224B9C422ED120
:104390006C68A369A360A3891B0732D52369002B2E
:1043A0002FD023682269F7B2981A6369F6B2834264
:1043B00005DC2100280000F037F9002827D1A36888
:1043C0000130013BA36023685A1C22601F7063699F
:1043D000834204D0A389DB0707D50A2E05D121002B
:1043E000280000F021F9002811D13000F8BD0A4B57
:1043F0009C4201D1AC68CCE7084B9C42C9D1EC6827
:10440000C7E72100280000F00BF80028C9D00126DA
:104410007642EAE7E864000008650000C86400002E
:10442000374B70B51D6806000C00002D05D0AB6938
:10443000002B02D1280000F099F9324B9C420FD199
:104440006C680C23E25E93B211072DD4D90611D407
:1044500009230120336037331343A381404270BDE9
:10446000294B9C4201D1AC68EBE7284B9C42E8D138
:10447000EC68E6E75B0713D5616B002908D02300E1
:104480004433994202D03000FFF746FE00236363B5
:104490002422A3899343A3810023636023692360BB
:1044A0000823A2891343A3812369002B0BD1A021E8
:1044B0008022A389890092000B40934203D02100FF
:1044C000300000F01FFA0C22A35E01201A0099B2FE
:1044D000024003420FD00022A26062695242A261F0
:1044E000002022698242BAD10A06B8D5402213437D
:1044F000A3810138B3E7880700D46269A260EFE7BF
:1045000000000020E864000008650000C8640000A6
:10451000F7B58B8905000C001A075FD44A68002A9A
:1045200004DC0A6C002A01DC0020FEBDE76A002FD3
:10453000FAD0002280212E682A601A0049010A4020
:104540000B4234D0606DA3895B0706D56368C01A3F
:10455000636B002B01D0236CC01A0200216A002378
:104560002800E76AB847A189431C06D12B681D2B98
:1045700031D82C4ADA40D3072DD500236360236954
:104580002360CB0405D5431C02D12B68002B00D13E
:104590006065616B2E600029C6D0230044339942C8
:1045A00002D02800FFF7B8FD00206063BDE70123BB
:1045B0002800216AB847431CC5D12B68002BC2D004
:1045C0001D2B01D0162B01D12E60ADE74023A2890F
:1045D0001343A381A9E740230B43FAE70F69002F98
:1045E000A2D00A680F60D21B019200229B0700D163
:1045F0004A69A260019B002B00DC95E73A00280085
:10460000019B216AA66AB047002806DC40230120EE
:10461000A28940421343A38187E7019B3F181B1ADD
:104620000193E7E7010040200B6970B505000C001D
:10463000002B02D10025280070BD002804D083691A
:10464000002B01D100F092F8144B9C421BD16C68F6
:104650000C22A35E002BEDD0626ED20704D49B0522
:1046600002D4A06D00F023F928002100FFF750FFCD
:10467000636E0500DB07DED4A3899B05DBD4A06D48
:1046800000F016F9D7E7064B9C4201D1AC68DFE792
:10469000044B9C42DCD1EC68DAE7C046E8640000D9
:1046A00008650000C8640000002310B50400036022
:1046B00043608360818143661900C2810361436165
:1046C000836108225C30FBF7DDFD054B24626362E9
:1046D000044BA362044BE362044B236310BDC0464A
:1046E000395200006152000099520000C55200008A
:1046F00010B5024900F0BAF810BDC04629460000C6
:1047000070B568254A1E55430E0029007431FFF725
:104710006FFD041E08D000212A00016046600C30A5
:10472000A0606832FBF7AEFD200070BD10B50248F6
:1047300000F0BDF810BDC0467503002010B502485A
:1047400000F0B6F810BDC0467503002010B5024851
:1047500000F0ADF810BDC0467603002010B5024849
:1047600000F0A6F810BDC0467603002013B5040083
:10477000FFF7ECFFA369002B02D0FFF7EFFF13BD9B
:10478000A364E3642365134B134A1B68A26201937D
:10479000A34201D10123A361200000F01FF8606053
:1047A000200000F01BF8A060200000F017F80022A5
:1047B0000421E0606068FFF777FF01220921A0680B
:1047C000FFF772FF02221221E068FFF76DFF01235D
:1047D000A361D2E750590000F1460000F8B5070088
:1047E000FFF7A4FF1F4B1E68B369002B02D13000F6
:1047F000FFF7BCFF4836B4687368013B04D53368E3
:10480000002B22D03668F6E70C22A55E002D1AD1C7
:104810002000154B5830E360656600F047F8FFF75D
:104820008DFF2000082229002560A56065602561B4
:104830006561A5615C30FBF725FD6563A563A56433
:10484000E5642000F8BD6834D7E704213800FFF79D
:1048500057FF041E3060D5D1FFF770FF0C233B607B
:10486000EFE7C046505900000100FFFFF7B5040014
:1048700006000027019148346368A5680093009BF7
:10488000013B009304D52468002CF5D13800FEBD0F
:10489000AB89012B08D90E22AB5E013304D029006D
:1048A0003000019B984707436835E8E77047704739
:1048B0007047000070B50E001D000E23C95E140085
:1048C00096B0002908DA0C22B35E00222A601B068B
:1048D00011D48023DB000FE06A4600F01FFD0028A2
:1048E000F1DBF02301991B021940054BC9184B421B
:1048F00059412960EDE740230020236016B070BDC8
:1049000000E0FFFFF7B502268B8905000C0033425B
:1049100006D0230047332360236101236361F7BD81
:104920006A4601ABFFF7C6FF009907002800FFF7B2
:104930005FFC002808D10C22A35E9A05EFD4032265
:1049400093431E43A681E4E70F4BAB628023A28909
:1049500020601343A381009B20616361019B002BB6
:104960000DD028000E23E15E00F0EAFC002806D0FE
:104970000322A38993431A0001231343A381A0892F
:104980000743A781CBE7C046F146000010B50248B7
:10499000FFF78DFF10BDC0467403002010B502481C
:1049A000FFF786FF10BDC04674030020F0B58E6887
:1049B00085B007000C00039201939E423CD89023DF
:1049C0008A89DB001A4234D00969236860695B1A5E
:1049D000029303234343DD0FED18019B029801333B
:1049E0001B186D10AB4200D91D00530532D52900AC
:1049F0003800FFF7FDFB061E09D10C233B60402366
:104A00000120A28940421343A38105B0F0BD029A60
:104A10002169FFF765FBA389144A1A4080231343D9
:104A2000A381029B2661F61826606561019EED1A3E
:104A3000A560019B9E4200D9019E32000399206827
:104A4000FFF757FBA36800209B1BA36023689E19F8
:104A50002660DAE72A00380000F0A3FC061EE0D149
:104A600038002169FFF758FBC7E7C0467FFBFFFF0F
:104A7000F0B5A1B003901D008B890F0016001B0636
:104A800011D50B69002B0ED14021FFF7B1FB386027
:104A90003861002805D10C23039A0138136021B036
:104AA000F0BD40237B61002308AC63612033637653
:104AB0001033A376079535002B78002B01D0252BDA
:104AC00047D1AB1B0593B5420CD032003900039897
:104AD000FFF76CFF431C00D1AEE06269059B944672
:104AE000634463612B78002B00D1A5E001220023F1
:104AF0005242626004A9543252186E1C2360E36073
:104B0000A3601370A36505223178544800F03EFC81
:104B1000751C00281FD12268D30604D5532304A98D
:104B20005B1820211970130704D5532304A95B18BF
:104B30002B21197033782A2B16D0350000210A203A
:104B4000E3682A786E1C303A092A4ED9002911D11F
:104B500017E00135B0E7414B2268C01A01238340BA
:104B600013432E002360CEE7079B191D1B68079196
:104B7000002B01DB0B9304E05B42E3600223134351
:104B800023602B782E2B0AD16B782A2B35D1079BEB
:104B900002351A1D1B680792002B2BDB0993304E40
:104BA00003223000297800F0F1FB002806D04023D2
:104BB000801B834022680135134323602978062235
:104BC00028486E1C217600F0E1FB00283CD0264BE3
:104BD000002B25D10722079B073393430833079304
:104BE0006369049A9B18636165E7434335000121BB
:104BF0009B18A6E701235B42D0E700230A201A0096
:104C00000135636029786E1C3039092903D9002BDE
:104C1000C5D00992C3E74243350001235218F1E79A
:104C200007AB00933A002100104B039800E000BF4F
:104C30000490049B0133D3D1BB890D985B0600D44B
:104C40002DE7012040422AE707AB00933A002100FC
:104C5000064B039800F07CF8EAE7C04628650000A0
:104C60002E6500003265000000000000AD49000024
:104C7000F7B5150001938A680B690C000090934208
:104C800000DA130022002B6043321278002A01D090
:104C900001332B6023689B0602D52B6802332B60FF
:104CA0002268062317001F401A4227D023004333EF
:104CB0001B785A1E93412268920630D42200019933
:104CC0000098089E4332B047431C25D00623206835
:104CD0002A68E16800250340042B03D18D1AEB43B9
:104CE000DB171D40A3682269934201DD9B1AED1872
:104CF0000027BD4220D1002010E00137E3682A6878
:104D00009B1ABB42D2DD2200012301990098089E24
:104D10001932B047431CF0D101204042FEBD302083
:104D2000E1184331087021005A1C45310978A21856
:104D3000433202331170C1E7220001230199009828
:104D4000089E1A32B047431CE6D00137D1E7000075
:104D5000F0B58BB006920A00433207930590049297
:104D60000A7E0C00109B782A07D8622A09D8002AEC
:104D700000D1C1E0582A00D18CE0260042363270C2
:104D800022E0100063381528F7D8FBF771FA1600F7
:104D90001F00F6FFF6FFF6FFF6FF1F00F6FFF6FF17
:104DA000F6FFF6FFA80036009A00F6FFF6FFB900FE
:104DB000F6FF3600F6FFF6FF9E0026001A68423620
:104DC000111D1960136833700123A7E00868196882
:104DD0000A1D05060BD50D681A60002D03DA2D2378
:104DE000049A6D421370614B0A2703931BE00D6810
:104DF0001A604106F1D52DB2EFE70D681968081D5C
:104E000018602E0601D50D6803E06D06FBD50D6810
:104E1000ADB2564B082703936F2A00D00237230008
:104E2000002243331A706368A360002B03DB042263
:104E3000216891432160002D02D1049E002B0CD0EB
:104E4000049E28003900FBF7FBF9039B013E5B5CE5
:104E500033702B0005009F42F3D9082F09D1236836
:104E6000DB0706D563682269934202DC3023013EEA
:104E70003370049B9B1B2361079B210000930598C3
:104E8000069B09AAFFF7F4FE431C4CD101204042C7
:104E90000BB0F0BD45310A70344A03921A6821689C
:104EA00020CA1A60080616D5CB0702D5202319435D
:104EB00021601027002DB2D1202322689A4322605E
:104EC000ADE7202209680A4322602200782145329A
:104ED0001170274AE1E74806E6D5ADB2E4E71A6863
:104EE0000D68101D4969186013682E0601D51960F8
:104EF00002E06D06FBD519800023049E2361BBE709
:104F00001A68111D1960166800213000626800F0EF
:104F10003DFA002801D0801B606063682361002394
:104F2000049A1370A8E72369320006990598079D33
:104F3000A847431CAAD023689B0715D4099BE068A7
:104F40009842A5DA1800A3E72200012306990598E4
:104F5000079E1932B047431C98D00135E368099A7F
:104F60009B1AAB42F0DCE9E70025F7E73965000062
:104F70004A650000936810B5013B9360002B04DA8A
:104F80009469A34207DB0A2905D01368581C1060F6
:104F90001970080010BDFFF7EDF90100F9E7F8B549
:104FA00006000F001400D518AC4201D1002007E024
:104FB00021783A003000FFF7DDFF0134431CF3D1C4
:104FC000F8BD0000F0B5A1B006000C001F00039270
:104FD000002804D08369002B01D1FFF7C7FB8E4B5B
:104FE0009C421CD17468636EDB0705D4A3899B05C2
:104FF00002D4A06DFFF75BFCA3891B0702D52369D0
:10500000002B1DD121003000FFF70AFA002817D02D
:10501000636EDB070DD50120404221B0F0BD7F4B10
:105020009C4201D1B468DEE77D4B9C42DBD1F46841
:10503000D9E7A3899B05EED4A06DFFF739FCEAE719
:10504000002308AD6B6120336B761033AB76079786
:10505000039F3B78002B01D0252B4ED1039BFB1ADD
:105060000593039B9F420DD0059B21003000039ABE
:10507000FFF795FF431C00D1B5E06A69059B944694
:1050800063446B613B78002B00D1ACE001227B1CB8
:105090000393002352426A6004A9543252182B60D1
:1050A000EB60AB601370AB65039B052219785D481C
:1050B00000F06CF9039B5F1C002820D12A68D306FE
:1050C00004D5532304A95B1820211970130704D5B4
:1050D000532304A95B182B211970039B1B782A2BDF
:1050E00016D00021EB68039F3A78781C303A84464A
:1050F000092A4FD9002911D117E00137A9E7494BF7
:105100002A68C01A0123834013432B600397CBE71F
:10511000079B191D1B680791002B01DB0B9304E013
:105120005B42EB60022313432B603B782E2B0AD1AA
:105130007B782A2B37D1079B02371A1D1B680792F1
:10514000002B2DDB099303223978374800F01EF934
:10515000002807D0344B2A68C01A402383401343E9
:1051600001372B6039787B1C06223048039329765F
:1051700000F00CF9002845D02D4B002B27D1072239
:10518000079B07339343083307936B69049A9B1873
:105190006B615DE70A214B4367469B180939A3E71A
:1051A00001235B42CEE700231A0001376B60397898
:1051B000781C30398446092903D9002BC3D00992C1
:1051C000C1E70A235A4367465218093BEFE707AB8A
:1051D0000093220029003000164B00E000BF04902D
:1051E000049B0133D1D1636EDB0705D4A3899B05F2
:1051F00002D4A06DFFF75CFBA3895B0600D50AE72C
:105200000D980AE707AB0093220029003000094BF4
:10521000FFF79EFDE3E7C046E86400000865000074
:10522000C8640000286500002E650000326500009B
:10523000000000009F4F000070B50C000E25495F74
:1052400000F0DEF8002803DB636D1B18636570BD9A
:10525000A389024A1340A381F9E7C046FFEFFFFF8D
:10526000F8B51F008B8905000C001600DB0505D57D
:105270000E23C95E0022022300F074F8A389054AB8
:1052800028001340A38132000E23E15E3B0000F0B2
:105290001FF8F8BDFFEFFFFF70B50C000E25495F4A
:1052A00000F060F8A389421C03D1054A1340A38192
:1052B00070BD802252011343A3816065F8E7C046A8
:1052C000FFEFFFFF10B50E23C95E00F015F810BD0B
:1052D00070B50400080011001A000023054D2B6072
:1052E00000F0E0F8431C03D12B68002B00D02360B2
:1052F00070BDC04678030020002370B5064D040041
:1053000008002B6000F098F8431C03D12B68002B99
:1053100000D0236070BDC04678030020002370B524
:10532000064D0400080011002B6000F08DF8431CAE
:1053300003D12B68002B00D0236070BD78030020C0
:10534000002370B5064D040008002B6000F084F8BF
:10535000431C03D12B68002B00D0236070BDC046D6
:105360007803002070B50400080011001A00002323
:10537000054D2B6000F078F8431C03D12B68002BFF
:1053800000D0236070BDC04678030020C9B28218E7
:10539000904201D10020704703788B42FBD001304E
:1053A000F6E7F7B507000E001400002905D111003B
:1053B000FEF71EFF05002800FEBD002A03D1FEF700
:1053C000ABFE2500F7E700F02FF80190844203D8E8
:1053D00035004308A342EED321003800FEF708FF52
:1053E000051EE8D0019B22009C4200D91A00310022
:1053F0002800FEF775FE31003800FEF78DFEDAE773
:1054000070B50400080011001A000023054D2B6040
:1054100000F032F8431C03D12B68002B00D023602E
:1054200070BDC046780300200B1F1B68181F002B9F
:1054300001DA0B58C018704758220120014B404236
:105440001A6070477803002058220120014B404227
:105450001A607047780300205822024B00201A601F
:105460007047C0467803002058220120014B40427B
:105470001A6070477803002058220120014B4042F7
:105480001A60704778030020044A0300106800285F
:1054900002D0C318136070470148FAE77C0300206C
:1054A0008003002058220120014B40421A607047BF
:1054B0007803002000C2010000000001010000008C
:1054C00000010000000200000900000000000000D0
:1054D000A30E01098BC6DBBF45690F3A7E9E6D0F97
:1054E0008BBEA2A39E6148008FD05E4400000000E6
:1054F0005BDCC146BF60754E6A042426089575C7FB
:105500005A003F089D2739839DEC58B964EC384315
:1055100000000000F149E41D848F59276CFDDD7403
:105520003BAFA9A90E1EE4A263A118142B33E370AC
:105530002176EF0A59F8237A1CB51B42F3DED6B266
:1055400002D9AF0997898FDD03CF60BDA951C5147A
:10555000547A0850CEC25444AE2F24CB711BFBAFFB
:10556000CC3956C941D3DE69F155E3F8B10F06DBFA
:105570005F37359B772DDD43E1035A0A0D3DB3328A
:1055800042D5843033833B0DD43B870C6BF60E8DB4
:10559000EAB55F317CC3273F5E3BA747F0CB65058B
:1055A0000CB7228796210D9254873643008D45F221
:1055B0009CFD6C5B060C9A00451101250EC6F26637
:1055C00052249D59DC974B7361D571A8101CDFD311
:1055D0006ABA3B5854D3AE086B5FDD4597721B66C1
:1055E000E3C0DC5D8C606D9657D0E323283A5217F8
:1055F000D1F53F2F284F57B85C8A61AC8924711FC1
:10560000895C5ED90EF17745ED2D728ABD22A5F732
:10561000A13479A462D71B56C19A74A40B655C5857
:10562000EDFE0A188AD2CF46CBF30524F65D423C44
:10563000837DD1FF2BF462AC4198007345BB44DB02
:10564000B7B1C861298CDF61982A833AFC728FAEAA
:105650001EDA2F87AA2C9480858BEC003C593AA542
:1056600039FDCDAE516CDF2F15000F6634185C8804
:10567000F505B39775FB9AB137A10AA200000000A7
:1056800062C6A169B9BE02B3D7B471A964FC0BCCE0
:1056900072B480D26AECB2ED460B7F50016DDAF045
:1056A0004C51218783F3AADFDFF5A04DED030D7B7D
:1056B0003FB7376B61BA30B90E2DA921A447074017
:1056C000D63FB99FA16CC8ED81ABAF8CE4016E50A1
:1056D000DF81DA832070372C24A80890AA3A26FAB2
:1056E000675710B8FB718266249D496F313C55D0D5
:1056F000BADA101F8F56EECCEE4345A8F98F60A39F
:105700006662CFDA794900D12F9414FCBDFDEB8598
:10571000388A814996B47E24D5C8086E7A8EDCC555
:105720003D299D0D033E6BB60C58B83D6E8B57F668
:10573000C258D6081DD10EB942FDF8EC157EC3E75C
:105740005371235A8196EB9D22B1DE3A2D30C2ABC4
:10575000BE0DB7650CF6C7159BACBE29B3A93C922C
:10576000100508004F05600950664D5190A2EBC22C
:105770009C9EDB89C20079A4D3E6BC3B27D75E346C
:10578000E2FA3D02768502BD69790078598D5FCFD6
:105790003D6779BFED1284BBE5AD72FB456015181E
:1057A0001D9587D6E864C940564EAAFB4F2FEAD410
:1057B000346EA09B6877D9340F6B82EB151588087F
:1057C00072213DA3AD88FEBA9F4F13817A71D6F93D
:1057D0000A1A17C43A15C038D988B5B29EDFFE2D13
:1057E0006A062813CEDBE852CDE302B3E33B6968D7
:1057F00046D2A8E36BD680EFCC6CD3F9E9A4C1AE56
:105800008CAC10CC5244D131677140399176ED4661
:10581000700019A004A163806F7FA467FC4E17B4C9
:10582000617BBD7641AAFF7FF56396BA8C08A8BE5E
:10583000100B33A20B5DAF134A2AEFA5E1C34967F2
:1058400070DCF6BAA4F7BB009625AE618EA633FDD8
:105850007AE5B20CEAFD6B1F3AB1A6AA20ADED665F
:10586000810E78F38925E9C2FA783A32C40AF3F94D
:10587000D7DDA0C635B482254B1D85A281AF72311C
:10588000109166CD133C8360E281E5E39BCDD7C6E2
:1058900001AC47928A8C78CDB3C4F71E97D4D0B1AF
:1058A000C0EE01DD3DB62F04F44798BB3A76492B94
:1058B000A15A91B7110CB5E01BABE56589A36FAE9A
:1058C0003A2F336A2D1D5778DBD23C03CA8DB0F2D4
:1058D0005FF0657FF4BCA1252ADC38C080A5B8F054
:1058E000255CE3BE0BF862823D2AB704729B74E12B
:1058F000E275AA305824A566895ED677A460113E69
:105900002A7BF91F00D0B8EBC358F3035B27FCC117
:10591000D3F14A1367CD2769DF39A9D21C5EE36151
:10592000F1965CD6342CC17A1463D60000CE3B5974
:105930002D4E1A65F780DF351FA7B2C01B49DF4E19
:10594000A913C3FAB24297F5791B18E500000000CD
:1059500004000020506C6561736520656E7465728B
:105960002061206C65747465722070287075667390
:1059700029206F722067286770696F2920746F2053
:10598000737461727420746573742E0A00000000D1
:10599000284374726C2B4A20746F207465726D6991
:1059A0006E61746520696E707574293A200000007C
:1059B00075617274207265636569766520657272BF
:1059C0006F7221210A0000003E3E3E202573000038
:1059D000700A000050554653203A20537461727487
:1059E0002074686520505546532074657374200AEE
:1059F0000000000050554653203A20456E64207444
:105A00006865205055465320746573742E200A0033
:105A1000670A00004750494F203A205475726E20A3
:105A20006F6E20746865204C454420626C696E6B13
:105A3000696E67200A0000004750494F203A205401
:105A400075726E206F666620746865204C45442030
:105A5000626C696E6B696E67200A0000097075667A
:105A6000735F736861325F6975665F746573742014
:105A70006F6B200A0000000009707566735F736821
:105A800061325F74657374206F6B200A0000000040
:105A900009707566735F686D61635F736861325F1B
:105AA0006975665F74657374206F6B200A0000006F
:105AB00009707566735F686D61635F736861325FFB
:105AC00074657374206F6B200A000000097075669E
:105AD000735F686D61635F736861325F73776B6575
